{
	"FundMe/Lesson04/FundMe.sol": {
		"FUndMe": {
			"abi": [
				{
					"inputs": [
						{
							"internalType": "address",
							"name": "",
							"type": "address"
						}
					],
					"name": "addressToAmountFunded",
					"outputs": [
						{
							"internalType": "uint256",
							"name": "",
							"type": "uint256"
						}
					],
					"stateMutability": "view",
					"type": "function"
				},
				{
					"inputs": [],
					"name": "fund",
					"outputs": [],
					"stateMutability": "payable",
					"type": "function"
				},
				{
					"inputs": [
						{
							"internalType": "uint256",
							"name": "",
							"type": "uint256"
						}
					],
					"name": "funders",
					"outputs": [
						{
							"internalType": "address",
							"name": "",
							"type": "address"
						}
					],
					"stateMutability": "view",
					"type": "function"
				},
				{
					"inputs": [],
					"name": "minimumUsd",
					"outputs": [
						{
							"internalType": "uint256",
							"name": "",
							"type": "uint256"
						}
					],
					"stateMutability": "view",
					"type": "function"
				},
				{
					"inputs": [],
					"name": "withdraw",
					"outputs": [],
					"stateMutability": "nonpayable",
					"type": "function"
				}
			],
			"devdoc": {
				"kind": "dev",
				"methods": {},
				"version": 1
			},
			"evm": {
				"assembly": "    /* \"FundMe/Lesson04/FundMe.sol\":230:1632  contract FUndMe {... */\n  mstore(0x40, 0x80)\n    /* \"FundMe/Lesson04/FundMe.sol\":319:328  50 * 1e18 */\n  0x02b5e3af16b1880000\n    /* \"FundMe/Lesson04/FundMe.sol\":291:328  uint256 public minimumUsd = 50 * 1e18 */\n  0x00\n  sstore\n    /* \"FundMe/Lesson04/FundMe.sol\":230:1632  contract FUndMe {... */\n  callvalue\n  dup1\n  iszero\n  tag_1\n  jumpi\n  0x00\n  dup1\n  revert\ntag_1:\n  pop\n  dataSize(sub_0)\n  dup1\n  dataOffset(sub_0)\n  0x00\n  codecopy\n  0x00\n  return\nstop\n\nsub_0: assembly {\n        /* \"FundMe/Lesson04/FundMe.sol\":230:1632  contract FUndMe {... */\n      mstore(0x40, 0x80)\n      jumpi(tag_1, lt(calldatasize, 0x04))\n      shr(0xe0, calldataload(0x00))\n      dup1\n      0x098de820\n      eq\n      tag_2\n      jumpi\n      dup1\n      0x3ccfd60b\n      eq\n      tag_3\n      jumpi\n      dup1\n      0x3e47d6f3\n      eq\n      tag_4\n      jumpi\n      dup1\n      0xb60d4288\n      eq\n      tag_5\n      jumpi\n      dup1\n      0xdc0d3dff\n      eq\n      tag_6\n      jumpi\n    tag_1:\n      0x00\n      dup1\n      revert\n        /* \"FundMe/Lesson04/FundMe.sol\":291:328  uint256 public minimumUsd = 50 * 1e18 */\n    tag_2:\n      callvalue\n      dup1\n      iszero\n      tag_7\n      jumpi\n      0x00\n      dup1\n      revert\n    tag_7:\n      pop\n      tag_8\n      tag_9\n      jump\t// in\n    tag_8:\n      mload(0x40)\n      tag_10\n      swap2\n      swap1\n      tag_11\n      jump\t// in\n    tag_10:\n      mload(0x40)\n      dup1\n      swap2\n      sub\n      swap1\n      return\n        /* \"FundMe/Lesson04/FundMe.sol\":690:1630  function withdraw() public {... */\n    tag_3:\n      callvalue\n      dup1\n      iszero\n      tag_12\n      jumpi\n      0x00\n      dup1\n      revert\n    tag_12:\n      pop\n      tag_13\n      tag_14\n      jump\t// in\n    tag_13:\n      stop\n        /* \"FundMe/Lesson04/FundMe.sol\":364:420  mapping(address => uint256) public addressToAmountFunded */\n    tag_4:\n      callvalue\n      dup1\n      iszero\n      tag_15\n      jumpi\n      0x00\n      dup1\n      revert\n    tag_15:\n      pop\n      tag_16\n      0x04\n      dup1\n      calldatasize\n      sub\n      dup2\n      add\n      swap1\n      tag_17\n      swap2\n      swap1\n      tag_18\n      jump\t// in\n    tag_17:\n      tag_19\n      jump\t// in\n    tag_16:\n      mload(0x40)\n      tag_20\n      swap2\n      swap1\n      tag_11\n      jump\t// in\n    tag_20:\n      mload(0x40)\n      dup1\n      swap2\n      sub\n      swap1\n      return\n        /* \"FundMe/Lesson04/FundMe.sol\":427:684  function fund() public payable {... */\n    tag_5:\n      tag_21\n      tag_22\n      jump\t// in\n    tag_21:\n      stop\n        /* \"FundMe/Lesson04/FundMe.sol\":334:358  address[] public funders */\n    tag_6:\n      callvalue\n      dup1\n      iszero\n      tag_23\n      jumpi\n      0x00\n      dup1\n      revert\n    tag_23:\n      pop\n      tag_24\n      0x04\n      dup1\n      calldatasize\n      sub\n      dup2\n      add\n      swap1\n      tag_25\n      swap2\n      swap1\n      tag_26\n      jump\t// in\n    tag_25:\n      tag_27\n      jump\t// in\n    tag_24:\n      mload(0x40)\n      tag_28\n      swap2\n      swap1\n      tag_29\n      jump\t// in\n    tag_28:\n      mload(0x40)\n      dup1\n      swap2\n      sub\n      swap1\n      return\n        /* \"FundMe/Lesson04/FundMe.sol\":291:328  uint256 public minimumUsd = 50 * 1e18 */\n    tag_9:\n      sload(0x00)\n      dup2\n      jump\t// out\n        /* \"FundMe/Lesson04/FundMe.sol\":690:1630  function withdraw() public {... */\n    tag_14:\n        /* \"FundMe/Lesson04/FundMe.sol\":745:764  uint256 funderIndex */\n      0x00\n        /* \"FundMe/Lesson04/FundMe.sol\":727:957  for (... */\n    tag_31:\n        /* \"FundMe/Lesson04/FundMe.sol\":796:803  funders */\n      0x01\n        /* \"FundMe/Lesson04/FundMe.sol\":796:810  funders.length */\n      dup1\n      sload\n      swap1\n      pop\n        /* \"FundMe/Lesson04/FundMe.sol\":782:793  funderIndex */\n      dup2\n        /* \"FundMe/Lesson04/FundMe.sol\":782:810  funderIndex < funders.length */\n      lt\n        /* \"FundMe/Lesson04/FundMe.sol\":727:957  for (... */\n      iszero\n      tag_32\n      jumpi\n        /* \"FundMe/Lesson04/FundMe.sol\":862:876  address funder */\n      0x00\n        /* \"FundMe/Lesson04/FundMe.sol\":879:886  funders */\n      0x01\n        /* \"FundMe/Lesson04/FundMe.sol\":887:898  funderIndex */\n      dup3\n        /* \"FundMe/Lesson04/FundMe.sol\":879:899  funders[funderIndex] */\n      dup2\n      sload\n      dup2\n      lt\n      tag_34\n      jumpi\n      tag_35\n      tag_36\n      jump\t// in\n    tag_35:\n    tag_34:\n      swap1\n      0x00\n      mstore\n      keccak256(0x00, 0x20)\n      add\n      0x00\n      swap1\n      sload\n      swap1\n      0x0100\n      exp\n      swap1\n      div\n      0xffffffffffffffffffffffffffffffffffffffff\n      and\n        /* \"FundMe/Lesson04/FundMe.sol\":862:899  address funder = funders[funderIndex] */\n      swap1\n      pop\n        /* \"FundMe/Lesson04/FundMe.sol\":945:946  0 */\n      0x00\n        /* \"FundMe/Lesson04/FundMe.sol\":913:934  addressToAmountFunded */\n      0x02\n        /* \"FundMe/Lesson04/FundMe.sol\":913:942  addressToAmountFunded[funder] */\n      0x00\n        /* \"FundMe/Lesson04/FundMe.sol\":935:941  funder */\n      dup4\n        /* \"FundMe/Lesson04/FundMe.sol\":913:942  addressToAmountFunded[funder] */\n      0xffffffffffffffffffffffffffffffffffffffff\n      and\n      0xffffffffffffffffffffffffffffffffffffffff\n      and\n      dup2\n      mstore\n      0x20\n      add\n      swap1\n      dup2\n      mstore\n      0x20\n      add\n      0x00\n      keccak256\n        /* \"FundMe/Lesson04/FundMe.sol\":913:946  addressToAmountFunded[funder] = 0 */\n      dup2\n      swap1\n      sstore\n      pop\n        /* \"FundMe/Lesson04/FundMe.sol\":848:957  {... */\n      pop\n        /* \"FundMe/Lesson04/FundMe.sol\":824:837  funderIndex++ */\n      dup1\n      dup1\n      tag_38\n      swap1\n      tag_39\n      jump\t// in\n    tag_38:\n      swap2\n      pop\n      pop\n        /* \"FundMe/Lesson04/FundMe.sol\":727:957  for (... */\n      jump(tag_31)\n    tag_32:\n      pop\n        /* \"FundMe/Lesson04/FundMe.sol\":990:991  0 */\n      0x00\n        /* \"FundMe/Lesson04/FundMe.sol\":976:992  new address[](0) */\n      0xffffffffffffffff\n      dup2\n      gt\n      iszero\n      tag_40\n      jumpi\n      tag_41\n      tag_42\n      jump\t// in\n    tag_41:\n    tag_40:\n      mload(0x40)\n      swap1\n      dup1\n      dup3\n      mstore\n      dup1\n      0x20\n      mul\n      0x20\n      add\n      dup3\n      add\n      0x40\n      mstore\n      dup1\n      iszero\n      tag_43\n      jumpi\n      dup2\n      0x20\n      add\n      0x20\n      dup3\n      mul\n      dup1\n      calldatasize\n      dup4\n      calldatacopy\n      dup1\n      dup3\n      add\n      swap2\n      pop\n      pop\n      swap1\n      pop\n    tag_43:\n      pop\n        /* \"FundMe/Lesson04/FundMe.sol\":966:973  funders */\n      0x01\n        /* \"FundMe/Lesson04/FundMe.sol\":966:992  funders = new address[](0) */\n      swap1\n      dup1\n      mload\n      swap1\n      0x20\n      add\n      swap1\n      tag_44\n      swap3\n      swap2\n      swap1\n      tag_45\n      jump\t// in\n    tag_44:\n      pop\n        /* \"FundMe/Lesson04/FundMe.sol\":1463:1475  bool success */\n      0x00\n        /* \"FundMe/Lesson04/FundMe.sol\":1529:1539  msg.sender */\n      caller\n        /* \"FundMe/Lesson04/FundMe.sol\":1521:1545  payable(msg.sender).call */\n      0xffffffffffffffffffffffffffffffffffffffff\n      and\n        /* \"FundMe/Lesson04/FundMe.sol\":1553:1574  address(this).balance */\n      selfbalance\n        /* \"FundMe/Lesson04/FundMe.sol\":1521:1579  payable(msg.sender).call{value: address(this).balance}(\"\") */\n      mload(0x40)\n      tag_46\n      swap1\n      tag_47\n      jump\t// in\n    tag_46:\n      0x00\n      mload(0x40)\n      dup1\n      dup4\n      sub\n      dup2\n      dup6\n      dup8\n      gas\n      call\n      swap3\n      pop\n      pop\n      pop\n      returndatasize\n      dup1\n      0x00\n      dup2\n      eq\n      tag_50\n      jumpi\n      mload(0x40)\n      swap2\n      pop\n      and(add(returndatasize, 0x3f), not(0x1f))\n      dup3\n      add\n      0x40\n      mstore\n      returndatasize\n      dup3\n      mstore\n      returndatasize\n      0x00\n      0x20\n      dup5\n      add\n      returndatacopy\n      jump(tag_49)\n    tag_50:\n      0x60\n      swap2\n      pop\n    tag_49:\n      pop\n        /* \"FundMe/Lesson04/FundMe.sol\":1449:1579  (... */\n      pop\n      swap1\n      pop\n        /* \"FundMe/Lesson04/FundMe.sol\":1597:1604  success */\n      dup1\n        /* \"FundMe/Lesson04/FundMe.sol\":1589:1623  require(success, \"transfer fails\") */\n      tag_51\n      jumpi\n      mload(0x40)\n      0x08c379a000000000000000000000000000000000000000000000000000000000\n      dup2\n      mstore\n      0x04\n      add\n      tag_52\n      swap1\n      tag_53\n      jump\t// in\n    tag_52:\n      mload(0x40)\n      dup1\n      swap2\n      sub\n      swap1\n      revert\n    tag_51:\n        /* \"FundMe/Lesson04/FundMe.sol\":717:1630  {... */\n      pop\n        /* \"FundMe/Lesson04/FundMe.sol\":690:1630  function withdraw() public {... */\n      jump\t// out\n        /* \"FundMe/Lesson04/FundMe.sol\":364:420  mapping(address => uint256) public addressToAmountFunded */\n    tag_19:\n      mstore(0x20, 0x02)\n      dup1\n      0x00\n      mstore\n      keccak256(0x00, 0x40)\n      0x00\n      swap2\n      pop\n      swap1\n      pop\n      sload\n      dup2\n      jump\t// out\n        /* \"FundMe/Lesson04/FundMe.sol\":427:684  function fund() public payable {... */\n    tag_22:\n        /* \"FundMe/Lesson04/FundMe.sol\":522:532  minimumUsd */\n      sload(0x00)\n        /* \"FundMe/Lesson04/FundMe.sol\":489:518  msg.value.getConversionRate() */\n      tag_55\n        /* \"FundMe/Lesson04/FundMe.sol\":489:498  msg.value */\n      callvalue\n        /* \"FundMe/Lesson04/FundMe.sol\":489:516  msg.value.getConversionRate */\n      tag_56\n        /* \"FundMe/Lesson04/FundMe.sol\":489:518  msg.value.getConversionRate() */\n      jump\t// in\n    tag_55:\n        /* \"FundMe/Lesson04/FundMe.sol\":489:532  msg.value.getConversionRate() >= minimumUsd */\n      lt\n      iszero\n        /* \"FundMe/Lesson04/FundMe.sol\":468:587  require(... */\n      tag_57\n      jumpi\n      mload(0x40)\n      0x08c379a000000000000000000000000000000000000000000000000000000000\n      dup2\n      mstore\n      0x04\n      add\n      tag_58\n      swap1\n      tag_59\n      jump\t// in\n    tag_58:\n      mload(0x40)\n      dup1\n      swap2\n      sub\n      swap1\n      revert\n    tag_57:\n        /* \"FundMe/Lesson04/FundMe.sol\":597:604  funders */\n      0x01\n        /* \"FundMe/Lesson04/FundMe.sol\":610:620  msg.sender */\n      caller\n        /* \"FundMe/Lesson04/FundMe.sol\":597:621  funders.push(msg.sender) */\n      swap1\n      dup1\n      0x01\n      dup2\n      sload\n      add\n      dup1\n      dup3\n      sstore\n      dup1\n      swap2\n      pop\n      pop\n      0x01\n      swap1\n      sub\n      swap1\n      0x00\n      mstore\n      keccak256(0x00, 0x20)\n      add\n      0x00\n      swap1\n      swap2\n      swap1\n      swap2\n      swap1\n      swap2\n      0x0100\n      exp\n      dup2\n      sload\n      dup2\n      0xffffffffffffffffffffffffffffffffffffffff\n      mul\n      not\n      and\n      swap1\n      dup4\n      0xffffffffffffffffffffffffffffffffffffffff\n      and\n      mul\n      or\n      swap1\n      sstore\n      pop\n        /* \"FundMe/Lesson04/FundMe.sol\":668:677  msg.value */\n      callvalue\n        /* \"FundMe/Lesson04/FundMe.sol\":631:652  addressToAmountFunded */\n      0x02\n        /* \"FundMe/Lesson04/FundMe.sol\":631:664  addressToAmountFunded[msg.sender] */\n      0x00\n        /* \"FundMe/Lesson04/FundMe.sol\":653:663  msg.sender */\n      caller\n        /* \"FundMe/Lesson04/FundMe.sol\":631:664  addressToAmountFunded[msg.sender] */\n      0xffffffffffffffffffffffffffffffffffffffff\n      and\n      0xffffffffffffffffffffffffffffffffffffffff\n      and\n      dup2\n      mstore\n      0x20\n      add\n      swap1\n      dup2\n      mstore\n      0x20\n      add\n      0x00\n      keccak256\n      0x00\n        /* \"FundMe/Lesson04/FundMe.sol\":631:677  addressToAmountFunded[msg.sender] += msg.value */\n      dup3\n      dup3\n      sload\n      tag_61\n      swap2\n      swap1\n      tag_62\n      jump\t// in\n    tag_61:\n      swap3\n      pop\n      pop\n      dup2\n      swap1\n      sstore\n      pop\n        /* \"FundMe/Lesson04/FundMe.sol\":427:684  function fund() public payable {... */\n      jump\t// out\n        /* \"FundMe/Lesson04/FundMe.sol\":334:358  address[] public funders */\n    tag_27:\n      0x01\n      dup2\n      dup2\n      sload\n      dup2\n      lt\n      tag_63\n      jumpi\n      0x00\n      dup1\n      revert\n    tag_63:\n      swap1\n      0x00\n      mstore\n      keccak256(0x00, 0x20)\n      add\n      0x00\n      swap2\n      pop\n      sload\n      swap1\n      0x0100\n      exp\n      swap1\n      div\n      0xffffffffffffffffffffffffffffffffffffffff\n      and\n      dup2\n      jump\t// out\n        /* \"FundMe/Lesson04/PriceConverter.sol\":909:1424  function getConversionRate(uint256 ethAmount)... */\n    tag_56:\n        /* \"FundMe/Lesson04/PriceConverter.sol\":1006:1013  uint256 */\n      0x00\n        /* \"FundMe/Lesson04/PriceConverter.sol\":1031:1047  uint256 ethPrice */\n      dup1\n        /* \"FundMe/Lesson04/PriceConverter.sol\":1050:1060  getPrice() */\n      tag_66\n        /* \"FundMe/Lesson04/PriceConverter.sol\":1050:1058  getPrice */\n      tag_67\n        /* \"FundMe/Lesson04/PriceConverter.sol\":1050:1060  getPrice() */\n      jump\t// in\n    tag_66:\n        /* \"FundMe/Lesson04/PriceConverter.sol\":1031:1060  uint256 ethPrice = getPrice() */\n      swap1\n      pop\n        /* \"FundMe/Lesson04/PriceConverter.sol\":1071:1093  uint256 ethAmountInUsd */\n      0x00\n        /* \"FundMe/Lesson04/PriceConverter.sol\":1121:1125  1e18 */\n      0x0de0b6b3a7640000\n        /* \"FundMe/Lesson04/PriceConverter.sol\":1108:1117  ethAmount */\n      dup5\n        /* \"FundMe/Lesson04/PriceConverter.sol\":1097:1105  ethPrice */\n      dup4\n        /* \"FundMe/Lesson04/PriceConverter.sol\":1097:1117  ethPrice * ethAmount */\n      tag_68\n      swap2\n      swap1\n      tag_69\n      jump\t// in\n    tag_68:\n        /* \"FundMe/Lesson04/PriceConverter.sol\":1096:1125  (ethPrice * ethAmount) / 1e18 */\n      tag_70\n      swap2\n      swap1\n      tag_71\n      jump\t// in\n    tag_70:\n        /* \"FundMe/Lesson04/PriceConverter.sol\":1071:1125  uint256 ethAmountInUsd = (ethPrice * ethAmount) / 1e18 */\n      swap1\n      pop\n        /* \"FundMe/Lesson04/PriceConverter.sol\":1175:1189  ethAmountInUsd */\n      dup1\n        /* \"FundMe/Lesson04/PriceConverter.sol\":1168:1189  return ethAmountInUsd */\n      swap3\n      pop\n      pop\n      pop\n        /* \"FundMe/Lesson04/PriceConverter.sol\":909:1424  function getConversionRate(uint256 ethAmount)... */\n      swap2\n      swap1\n      pop\n      jump\t// out\n        /* \"FundMe/Lesson04/PriceConverter.sol\":214:608  function getPrice() internal  view returns (uint256) {... */\n    tag_67:\n        /* \"FundMe/Lesson04/PriceConverter.sol\":258:265  uint256 */\n      0x00\n        /* \"FundMe/Lesson04/PriceConverter.sol\":308:339  AggregatorV3Interface priceFeed */\n      dup1\n        /* \"FundMe/Lesson04/PriceConverter.sol\":378:420  0x694AA1769357215DE4FAC081bf1f309aDC325306 */\n      0x694aa1769357215de4fac081bf1f309adc325306\n        /* \"FundMe/Lesson04/PriceConverter.sol\":308:431  AggregatorV3Interface priceFeed = AggregatorV3Interface(... */\n      swap1\n      pop\n        /* \"FundMe/Lesson04/PriceConverter.sol\":445:458  int256 answer */\n      0x00\n        /* \"FundMe/Lesson04/PriceConverter.sol\":468:477  priceFeed */\n      dup2\n        /* \"FundMe/Lesson04/PriceConverter.sol\":468:493  priceFeed.latestRoundData */\n      0xffffffffffffffffffffffffffffffffffffffff\n      and\n      0xfeaf968c\n        /* \"FundMe/Lesson04/PriceConverter.sol\":468:495  priceFeed.latestRoundData() */\n      mload(0x40)\n      dup2\n      0xffffffff\n      and\n      0xe0\n      shl\n      dup2\n      mstore\n      0x04\n      add\n      0xa0\n      mload(0x40)\n      dup1\n      dup4\n      sub\n      dup2\n      dup7\n      dup1\n      extcodesize\n      iszero\n      dup1\n      iszero\n      tag_73\n      jumpi\n      0x00\n      dup1\n      revert\n    tag_73:\n      pop\n      gas\n      staticcall\n      iszero\n      dup1\n      iszero\n      tag_75\n      jumpi\n      returndatasize\n      0x00\n      dup1\n      returndatacopy\n      revert(0x00, returndatasize)\n    tag_75:\n      pop\n      pop\n      pop\n      pop\n      mload(0x40)\n      returndatasize\n      not(0x1f)\n      0x1f\n      dup3\n      add\n      and\n      dup3\n      add\n      dup1\n      0x40\n      mstore\n      pop\n      dup2\n      add\n      swap1\n      tag_76\n      swap2\n      swap1\n      tag_77\n      jump\t// in\n    tag_76:\n        /* \"FundMe/Lesson04/PriceConverter.sol\":442:495  (, int256 answer, , , ) = priceFeed.latestRoundData() */\n      pop\n      pop\n      pop\n      swap2\n      pop\n      pop\n        /* \"FundMe/Lesson04/PriceConverter.sol\":508:522  uint8 weiPower */\n      0x00\n        /* \"FundMe/Lesson04/PriceConverter.sol\":525:527  18 */\n      0x12\n        /* \"FundMe/Lesson04/PriceConverter.sol\":508:527  uint8 weiPower = 18 */\n      swap1\n      pop\n        /* \"FundMe/Lesson04/PriceConverter.sol\":579:588  priceFeed */\n      dup3\n        /* \"FundMe/Lesson04/PriceConverter.sol\":579:597  priceFeed.decimals */\n      0xffffffffffffffffffffffffffffffffffffffff\n      and\n      0x313ce567\n        /* \"FundMe/Lesson04/PriceConverter.sol\":579:599  priceFeed.decimals() */\n      mload(0x40)\n      dup2\n      0xffffffff\n      and\n      0xe0\n      shl\n      dup2\n      mstore\n      0x04\n      add\n      0x20\n      mload(0x40)\n      dup1\n      dup4\n      sub\n      dup2\n      dup7\n      dup1\n      extcodesize\n      iszero\n      dup1\n      iszero\n      tag_78\n      jumpi\n      0x00\n      dup1\n      revert\n    tag_78:\n      pop\n      gas\n      staticcall\n      iszero\n      dup1\n      iszero\n      tag_80\n      jumpi\n      returndatasize\n      0x00\n      dup1\n      returndatacopy\n      revert(0x00, returndatasize)\n    tag_80:\n      pop\n      pop\n      pop\n      pop\n      mload(0x40)\n      returndatasize\n      not(0x1f)\n      0x1f\n      dup3\n      add\n      and\n      dup3\n      add\n      dup1\n      0x40\n      mstore\n      pop\n      dup2\n      add\n      swap1\n      tag_81\n      swap2\n      swap1\n      tag_82\n      jump\t// in\n    tag_81:\n        /* \"FundMe/Lesson04/PriceConverter.sol\":568:576  weiPower */\n      dup2\n        /* \"FundMe/Lesson04/PriceConverter.sol\":568:599  weiPower - priceFeed.decimals() */\n      tag_83\n      swap2\n      swap1\n      tag_84\n      jump\t// in\n    tag_83:\n        /* \"FundMe/Lesson04/PriceConverter.sol\":563:565  10 */\n      0x0a\n        /* \"FundMe/Lesson04/PriceConverter.sol\":563:600  10**(weiPower - priceFeed.decimals()) */\n      tag_85\n      swap2\n      swap1\n      tag_86\n      jump\t// in\n    tag_85:\n        /* \"FundMe/Lesson04/PriceConverter.sol\":553:559  answer */\n      dup3\n        /* \"FundMe/Lesson04/PriceConverter.sol\":545:600  uint256(answer) * 10**(weiPower - priceFeed.decimals()) */\n      tag_87\n      swap2\n      swap1\n      tag_69\n      jump\t// in\n    tag_87:\n        /* \"FundMe/Lesson04/PriceConverter.sol\":538:600  return uint256(answer) * 10**(weiPower - priceFeed.decimals()) */\n      swap4\n      pop\n      pop\n      pop\n      pop\n        /* \"FundMe/Lesson04/PriceConverter.sol\":214:608  function getPrice() internal  view returns (uint256) {... */\n      swap1\n      jump\t// out\n    tag_45:\n      dup3\n      dup1\n      sload\n      dup3\n      dup3\n      sstore\n      swap1\n      0x00\n      mstore\n      keccak256(0x00, 0x20)\n      swap1\n      dup2\n      add\n      swap3\n      dup3\n      iszero\n      tag_88\n      jumpi\n      swap2\n      0x20\n      mul\n      dup3\n      add\n    tag_89:\n      dup3\n      dup2\n      gt\n      iszero\n      tag_90\n      jumpi\n      dup3\n      mload\n      dup3\n      exp(0x0100, 0x00)\n      dup2\n      sload\n      dup2\n      0xffffffffffffffffffffffffffffffffffffffff\n      mul\n      not\n      and\n      swap1\n      dup4\n      0xffffffffffffffffffffffffffffffffffffffff\n      and\n      mul\n      or\n      swap1\n      sstore\n      pop\n      swap2\n      0x20\n      add\n      swap2\n      swap1\n      0x01\n      add\n      swap1\n      jump(tag_89)\n    tag_90:\n    tag_88:\n      pop\n      swap1\n      pop\n      tag_91\n      swap2\n      swap1\n      tag_92\n      jump\t// in\n    tag_91:\n      pop\n      swap1\n      jump\t// out\n    tag_92:\n    tag_93:\n      dup1\n      dup3\n      gt\n      iszero\n      tag_94\n      jumpi\n      0x00\n      dup2\n      0x00\n      swap1\n      sstore\n      pop\n      0x01\n      add\n      jump(tag_93)\n    tag_94:\n      pop\n      swap1\n      jump\t// out\n        /* \"#utility.yul\":7:84   */\n    tag_95:\n        /* \"#utility.yul\":44:51   */\n      0x00\n        /* \"#utility.yul\":73:78   */\n      dup2\n        /* \"#utility.yul\":62:78   */\n      swap1\n      pop\n        /* \"#utility.yul\":7:84   */\n      swap2\n      swap1\n      pop\n      jump\t// out\n        /* \"#utility.yul\":90:208   */\n    tag_96:\n        /* \"#utility.yul\":177:201   */\n      tag_133\n        /* \"#utility.yul\":195:200   */\n      dup2\n        /* \"#utility.yul\":177:201   */\n      tag_95\n      jump\t// in\n    tag_133:\n        /* \"#utility.yul\":172:175   */\n      dup3\n        /* \"#utility.yul\":165:202   */\n      mstore\n        /* \"#utility.yul\":90:208   */\n      pop\n      pop\n      jump\t// out\n        /* \"#utility.yul\":214:436   */\n    tag_11:\n        /* \"#utility.yul\":307:311   */\n      0x00\n        /* \"#utility.yul\":345:347   */\n      0x20\n        /* \"#utility.yul\":334:343   */\n      dup3\n        /* \"#utility.yul\":330:348   */\n      add\n        /* \"#utility.yul\":322:348   */\n      swap1\n      pop\n        /* \"#utility.yul\":358:429   */\n      tag_135\n        /* \"#utility.yul\":426:427   */\n      0x00\n        /* \"#utility.yul\":415:424   */\n      dup4\n        /* \"#utility.yul\":411:428   */\n      add\n        /* \"#utility.yul\":402:408   */\n      dup5\n        /* \"#utility.yul\":358:429   */\n      tag_96\n      jump\t// in\n    tag_135:\n        /* \"#utility.yul\":214:436   */\n      swap3\n      swap2\n      pop\n      pop\n      jump\t// out\n        /* \"#utility.yul\":523:640   */\n    tag_98:\n        /* \"#utility.yul\":632:633   */\n      0x00\n        /* \"#utility.yul\":629:630   */\n      dup1\n        /* \"#utility.yul\":622:634   */\n      revert\n        /* \"#utility.yul\":769:895   */\n    tag_100:\n        /* \"#utility.yul\":806:813   */\n      0x00\n        /* \"#utility.yul\":846:888   */\n      0xffffffffffffffffffffffffffffffffffffffff\n        /* \"#utility.yul\":839:844   */\n      dup3\n        /* \"#utility.yul\":835:889   */\n      and\n        /* \"#utility.yul\":824:889   */\n      swap1\n      pop\n        /* \"#utility.yul\":769:895   */\n      swap2\n      swap1\n      pop\n      jump\t// out\n        /* \"#utility.yul\":901:997   */\n    tag_101:\n        /* \"#utility.yul\":938:945   */\n      0x00\n        /* \"#utility.yul\":967:991   */\n      tag_141\n        /* \"#utility.yul\":985:990   */\n      dup3\n        /* \"#utility.yul\":967:991   */\n      tag_100\n      jump\t// in\n    tag_141:\n        /* \"#utility.yul\":956:991   */\n      swap1\n      pop\n        /* \"#utility.yul\":901:997   */\n      swap2\n      swap1\n      pop\n      jump\t// out\n        /* \"#utility.yul\":1003:1125   */\n    tag_102:\n        /* \"#utility.yul\":1076:1100   */\n      tag_143\n        /* \"#utility.yul\":1094:1099   */\n      dup2\n        /* \"#utility.yul\":1076:1100   */\n      tag_101\n      jump\t// in\n    tag_143:\n        /* \"#utility.yul\":1069:1074   */\n      dup2\n        /* \"#utility.yul\":1066:1101   */\n      eq\n        /* \"#utility.yul\":1056:1119   */\n      tag_144\n      jumpi\n        /* \"#utility.yul\":1115:1116   */\n      0x00\n        /* \"#utility.yul\":1112:1113   */\n      dup1\n        /* \"#utility.yul\":1105:1117   */\n      revert\n        /* \"#utility.yul\":1056:1119   */\n    tag_144:\n        /* \"#utility.yul\":1003:1125   */\n      pop\n      jump\t// out\n        /* \"#utility.yul\":1131:1270   */\n    tag_103:\n        /* \"#utility.yul\":1177:1182   */\n      0x00\n        /* \"#utility.yul\":1215:1221   */\n      dup2\n        /* \"#utility.yul\":1202:1222   */\n      calldataload\n        /* \"#utility.yul\":1193:1222   */\n      swap1\n      pop\n        /* \"#utility.yul\":1231:1264   */\n      tag_146\n        /* \"#utility.yul\":1258:1263   */\n      dup2\n        /* \"#utility.yul\":1231:1264   */\n      tag_102\n      jump\t// in\n    tag_146:\n        /* \"#utility.yul\":1131:1270   */\n      swap3\n      swap2\n      pop\n      pop\n      jump\t// out\n        /* \"#utility.yul\":1276:1605   */\n    tag_18:\n        /* \"#utility.yul\":1335:1341   */\n      0x00\n        /* \"#utility.yul\":1384:1386   */\n      0x20\n        /* \"#utility.yul\":1372:1381   */\n      dup3\n        /* \"#utility.yul\":1363:1370   */\n      dup5\n        /* \"#utility.yul\":1359:1382   */\n      sub\n        /* \"#utility.yul\":1355:1387   */\n      slt\n        /* \"#utility.yul\":1352:1471   */\n      iszero\n      tag_148\n      jumpi\n        /* \"#utility.yul\":1390:1469   */\n      tag_149\n      tag_98\n      jump\t// in\n    tag_149:\n        /* \"#utility.yul\":1352:1471   */\n    tag_148:\n        /* \"#utility.yul\":1510:1511   */\n      0x00\n        /* \"#utility.yul\":1535:1588   */\n      tag_150\n        /* \"#utility.yul\":1580:1587   */\n      dup5\n        /* \"#utility.yul\":1571:1577   */\n      dup3\n        /* \"#utility.yul\":1560:1569   */\n      dup6\n        /* \"#utility.yul\":1556:1578   */\n      add\n        /* \"#utility.yul\":1535:1588   */\n      tag_103\n      jump\t// in\n    tag_150:\n        /* \"#utility.yul\":1525:1588   */\n      swap2\n      pop\n        /* \"#utility.yul\":1481:1598   */\n      pop\n        /* \"#utility.yul\":1276:1605   */\n      swap3\n      swap2\n      pop\n      pop\n      jump\t// out\n        /* \"#utility.yul\":1611:1733   */\n    tag_104:\n        /* \"#utility.yul\":1684:1708   */\n      tag_152\n        /* \"#utility.yul\":1702:1707   */\n      dup2\n        /* \"#utility.yul\":1684:1708   */\n      tag_95\n      jump\t// in\n    tag_152:\n        /* \"#utility.yul\":1677:1682   */\n      dup2\n        /* \"#utility.yul\":1674:1709   */\n      eq\n        /* \"#utility.yul\":1664:1727   */\n      tag_153\n      jumpi\n        /* \"#utility.yul\":1723:1724   */\n      0x00\n        /* \"#utility.yul\":1720:1721   */\n      dup1\n        /* \"#utility.yul\":1713:1725   */\n      revert\n        /* \"#utility.yul\":1664:1727   */\n    tag_153:\n        /* \"#utility.yul\":1611:1733   */\n      pop\n      jump\t// out\n        /* \"#utility.yul\":1739:1878   */\n    tag_105:\n        /* \"#utility.yul\":1785:1790   */\n      0x00\n        /* \"#utility.yul\":1823:1829   */\n      dup2\n        /* \"#utility.yul\":1810:1830   */\n      calldataload\n        /* \"#utility.yul\":1801:1830   */\n      swap1\n      pop\n        /* \"#utility.yul\":1839:1872   */\n      tag_155\n        /* \"#utility.yul\":1866:1871   */\n      dup2\n        /* \"#utility.yul\":1839:1872   */\n      tag_104\n      jump\t// in\n    tag_155:\n        /* \"#utility.yul\":1739:1878   */\n      swap3\n      swap2\n      pop\n      pop\n      jump\t// out\n        /* \"#utility.yul\":1884:2213   */\n    tag_26:\n        /* \"#utility.yul\":1943:1949   */\n      0x00\n        /* \"#utility.yul\":1992:1994   */\n      0x20\n        /* \"#utility.yul\":1980:1989   */\n      dup3\n        /* \"#utility.yul\":1971:1978   */\n      dup5\n        /* \"#utility.yul\":1967:1990   */\n      sub\n        /* \"#utility.yul\":1963:1995   */\n      slt\n        /* \"#utility.yul\":1960:2079   */\n      iszero\n      tag_157\n      jumpi\n        /* \"#utility.yul\":1998:2077   */\n      tag_158\n      tag_98\n      jump\t// in\n    tag_158:\n        /* \"#utility.yul\":1960:2079   */\n    tag_157:\n        /* \"#utility.yul\":2118:2119   */\n      0x00\n        /* \"#utility.yul\":2143:2196   */\n      tag_159\n        /* \"#utility.yul\":2188:2195   */\n      dup5\n        /* \"#utility.yul\":2179:2185   */\n      dup3\n        /* \"#utility.yul\":2168:2177   */\n      dup6\n        /* \"#utility.yul\":2164:2186   */\n      add\n        /* \"#utility.yul\":2143:2196   */\n      tag_105\n      jump\t// in\n    tag_159:\n        /* \"#utility.yul\":2133:2196   */\n      swap2\n      pop\n        /* \"#utility.yul\":2089:2206   */\n      pop\n        /* \"#utility.yul\":1884:2213   */\n      swap3\n      swap2\n      pop\n      pop\n      jump\t// out\n        /* \"#utility.yul\":2219:2337   */\n    tag_106:\n        /* \"#utility.yul\":2306:2330   */\n      tag_161\n        /* \"#utility.yul\":2324:2329   */\n      dup2\n        /* \"#utility.yul\":2306:2330   */\n      tag_101\n      jump\t// in\n    tag_161:\n        /* \"#utility.yul\":2301:2304   */\n      dup3\n        /* \"#utility.yul\":2294:2331   */\n      mstore\n        /* \"#utility.yul\":2219:2337   */\n      pop\n      pop\n      jump\t// out\n        /* \"#utility.yul\":2343:2565   */\n    tag_29:\n        /* \"#utility.yul\":2436:2440   */\n      0x00\n        /* \"#utility.yul\":2474:2476   */\n      0x20\n        /* \"#utility.yul\":2463:2472   */\n      dup3\n        /* \"#utility.yul\":2459:2477   */\n      add\n        /* \"#utility.yul\":2451:2477   */\n      swap1\n      pop\n        /* \"#utility.yul\":2487:2558   */\n      tag_163\n        /* \"#utility.yul\":2555:2556   */\n      0x00\n        /* \"#utility.yul\":2544:2553   */\n      dup4\n        /* \"#utility.yul\":2540:2557   */\n      add\n        /* \"#utility.yul\":2531:2537   */\n      dup5\n        /* \"#utility.yul\":2487:2558   */\n      tag_106\n      jump\t// in\n    tag_163:\n        /* \"#utility.yul\":2343:2565   */\n      swap3\n      swap2\n      pop\n      pop\n      jump\t// out\n        /* \"#utility.yul\":2571:2751   */\n    tag_36:\n        /* \"#utility.yul\":2619:2696   */\n      0x4e487b7100000000000000000000000000000000000000000000000000000000\n        /* \"#utility.yul\":2616:2617   */\n      0x00\n        /* \"#utility.yul\":2609:2697   */\n      mstore\n        /* \"#utility.yul\":2716:2720   */\n      0x32\n        /* \"#utility.yul\":2713:2714   */\n      0x04\n        /* \"#utility.yul\":2706:2721   */\n      mstore\n        /* \"#utility.yul\":2740:2744   */\n      0x24\n        /* \"#utility.yul\":2737:2738   */\n      0x00\n        /* \"#utility.yul\":2730:2745   */\n      revert\n        /* \"#utility.yul\":2757:2937   */\n    tag_107:\n        /* \"#utility.yul\":2805:2882   */\n      0x4e487b7100000000000000000000000000000000000000000000000000000000\n        /* \"#utility.yul\":2802:2803   */\n      0x00\n        /* \"#utility.yul\":2795:2883   */\n      mstore\n        /* \"#utility.yul\":2902:2906   */\n      0x11\n        /* \"#utility.yul\":2899:2900   */\n      0x04\n        /* \"#utility.yul\":2892:2907   */\n      mstore\n        /* \"#utility.yul\":2926:2930   */\n      0x24\n        /* \"#utility.yul\":2923:2924   */\n      0x00\n        /* \"#utility.yul\":2916:2931   */\n      revert\n        /* \"#utility.yul\":2943:3176   */\n    tag_39:\n        /* \"#utility.yul\":2982:2985   */\n      0x00\n        /* \"#utility.yul\":3005:3029   */\n      tag_167\n        /* \"#utility.yul\":3023:3028   */\n      dup3\n        /* \"#utility.yul\":3005:3029   */\n      tag_95\n      jump\t// in\n    tag_167:\n        /* \"#utility.yul\":2996:3029   */\n      swap2\n      pop\n        /* \"#utility.yul\":3051:3117   */\n      0xffffffffffffffffffffffffffffffffffffffffffffffffffffffffffffffff\n        /* \"#utility.yul\":3044:3049   */\n      dup3\n        /* \"#utility.yul\":3041:3118   */\n      eq\n        /* \"#utility.yul\":3038:3141   */\n      iszero\n      tag_168\n      jumpi\n        /* \"#utility.yul\":3121:3139   */\n      tag_169\n      tag_107\n      jump\t// in\n    tag_169:\n        /* \"#utility.yul\":3038:3141   */\n    tag_168:\n        /* \"#utility.yul\":3168:3169   */\n      0x01\n        /* \"#utility.yul\":3161:3166   */\n      dup3\n        /* \"#utility.yul\":3157:3170   */\n      add\n        /* \"#utility.yul\":3150:3170   */\n      swap1\n      pop\n        /* \"#utility.yul\":2943:3176   */\n      swap2\n      swap1\n      pop\n      jump\t// out\n        /* \"#utility.yul\":3182:3362   */\n    tag_42:\n        /* \"#utility.yul\":3230:3307   */\n      0x4e487b7100000000000000000000000000000000000000000000000000000000\n        /* \"#utility.yul\":3227:3228   */\n      0x00\n        /* \"#utility.yul\":3220:3308   */\n      mstore\n        /* \"#utility.yul\":3327:3331   */\n      0x41\n        /* \"#utility.yul\":3324:3325   */\n      0x04\n        /* \"#utility.yul\":3317:3332   */\n      mstore\n        /* \"#utility.yul\":3351:3355   */\n      0x24\n        /* \"#utility.yul\":3348:3349   */\n      0x00\n        /* \"#utility.yul\":3341:3356   */\n      revert\n        /* \"#utility.yul\":3368:3515   */\n    tag_108:\n        /* \"#utility.yul\":3469:3480   */\n      0x00\n        /* \"#utility.yul\":3506:3509   */\n      dup2\n        /* \"#utility.yul\":3491:3509   */\n      swap1\n      pop\n        /* \"#utility.yul\":3368:3515   */\n      swap3\n      swap2\n      pop\n      pop\n      jump\t// out\n        /* \"#utility.yul\":3521:3635   */\n    tag_109:\n      pop\n      jump\t// out\n        /* \"#utility.yul\":3641:4039   */\n    tag_110:\n        /* \"#utility.yul\":3800:3803   */\n      0x00\n        /* \"#utility.yul\":3821:3904   */\n      tag_174\n        /* \"#utility.yul\":3902:3903   */\n      0x00\n        /* \"#utility.yul\":3897:3900   */\n      dup4\n        /* \"#utility.yul\":3821:3904   */\n      tag_108\n      jump\t// in\n    tag_174:\n        /* \"#utility.yul\":3814:3904   */\n      swap2\n      pop\n        /* \"#utility.yul\":3913:4006   */\n      tag_175\n        /* \"#utility.yul\":4002:4005   */\n      dup3\n        /* \"#utility.yul\":3913:4006   */\n      tag_109\n      jump\t// in\n    tag_175:\n        /* \"#utility.yul\":4031:4032   */\n      0x00\n        /* \"#utility.yul\":4026:4029   */\n      dup3\n        /* \"#utility.yul\":4022:4033   */\n      add\n        /* \"#utility.yul\":4015:4033   */\n      swap1\n      pop\n        /* \"#utility.yul\":3641:4039   */\n      swap2\n      swap1\n      pop\n      jump\t// out\n        /* \"#utility.yul\":4045:4424   */\n    tag_47:\n        /* \"#utility.yul\":4229:4232   */\n      0x00\n        /* \"#utility.yul\":4251:4398   */\n      tag_177\n        /* \"#utility.yul\":4394:4397   */\n      dup3\n        /* \"#utility.yul\":4251:4398   */\n      tag_110\n      jump\t// in\n    tag_177:\n        /* \"#utility.yul\":4244:4398   */\n      swap2\n      pop\n        /* \"#utility.yul\":4415:4418   */\n      dup2\n        /* \"#utility.yul\":4408:4418   */\n      swap1\n      pop\n        /* \"#utility.yul\":4045:4424   */\n      swap2\n      swap1\n      pop\n      jump\t// out\n        /* \"#utility.yul\":4430:4599   */\n    tag_111:\n        /* \"#utility.yul\":4514:4525   */\n      0x00\n        /* \"#utility.yul\":4548:4554   */\n      dup3\n        /* \"#utility.yul\":4543:4546   */\n      dup3\n        /* \"#utility.yul\":4536:4555   */\n      mstore\n        /* \"#utility.yul\":4588:4592   */\n      0x20\n        /* \"#utility.yul\":4583:4586   */\n      dup3\n        /* \"#utility.yul\":4579:4593   */\n      add\n        /* \"#utility.yul\":4564:4593   */\n      swap1\n      pop\n        /* \"#utility.yul\":4430:4599   */\n      swap3\n      swap2\n      pop\n      pop\n      jump\t// out\n        /* \"#utility.yul\":4605:4769   */\n    tag_112:\n        /* \"#utility.yul\":4745:4761   */\n      0x7472616e73666572206661696c73000000000000000000000000000000000000\n        /* \"#utility.yul\":4741:4742   */\n      0x00\n        /* \"#utility.yul\":4733:4739   */\n      dup3\n        /* \"#utility.yul\":4729:4743   */\n      add\n        /* \"#utility.yul\":4722:4762   */\n      mstore\n        /* \"#utility.yul\":4605:4769   */\n      pop\n      jump\t// out\n        /* \"#utility.yul\":4775:5141   */\n    tag_113:\n        /* \"#utility.yul\":4917:4920   */\n      0x00\n        /* \"#utility.yul\":4938:5005   */\n      tag_181\n        /* \"#utility.yul\":5002:5004   */\n      0x0e\n        /* \"#utility.yul\":4997:5000   */\n      dup4\n        /* \"#utility.yul\":4938:5005   */\n      tag_111\n      jump\t// in\n    tag_181:\n        /* \"#utility.yul\":4931:5005   */\n      swap2\n      pop\n        /* \"#utility.yul\":5014:5107   */\n      tag_182\n        /* \"#utility.yul\":5103:5106   */\n      dup3\n        /* \"#utility.yul\":5014:5107   */\n      tag_112\n      jump\t// in\n    tag_182:\n        /* \"#utility.yul\":5132:5134   */\n      0x20\n        /* \"#utility.yul\":5127:5130   */\n      dup3\n        /* \"#utility.yul\":5123:5135   */\n      add\n        /* \"#utility.yul\":5116:5135   */\n      swap1\n      pop\n        /* \"#utility.yul\":4775:5141   */\n      swap2\n      swap1\n      pop\n      jump\t// out\n        /* \"#utility.yul\":5147:5566   */\n    tag_53:\n        /* \"#utility.yul\":5313:5317   */\n      0x00\n        /* \"#utility.yul\":5351:5353   */\n      0x20\n        /* \"#utility.yul\":5340:5349   */\n      dup3\n        /* \"#utility.yul\":5336:5354   */\n      add\n        /* \"#utility.yul\":5328:5354   */\n      swap1\n      pop\n        /* \"#utility.yul\":5400:5409   */\n      dup2\n        /* \"#utility.yul\":5394:5398   */\n      dup2\n        /* \"#utility.yul\":5390:5410   */\n      sub\n        /* \"#utility.yul\":5386:5387   */\n      0x00\n        /* \"#utility.yul\":5375:5384   */\n      dup4\n        /* \"#utility.yul\":5371:5388   */\n      add\n        /* \"#utility.yul\":5364:5411   */\n      mstore\n        /* \"#utility.yul\":5428:5559   */\n      tag_184\n        /* \"#utility.yul\":5554:5558   */\n      dup2\n        /* \"#utility.yul\":5428:5559   */\n      tag_113\n      jump\t// in\n    tag_184:\n        /* \"#utility.yul\":5420:5559   */\n      swap1\n      pop\n        /* \"#utility.yul\":5147:5566   */\n      swap2\n      swap1\n      pop\n      jump\t// out\n        /* \"#utility.yul\":5572:5740   */\n    tag_114:\n        /* \"#utility.yul\":5712:5732   */\n      0x4469646e27742073656e6420656e6f7567680000000000000000000000000000\n        /* \"#utility.yul\":5708:5709   */\n      0x00\n        /* \"#utility.yul\":5700:5706   */\n      dup3\n        /* \"#utility.yul\":5696:5710   */\n      add\n        /* \"#utility.yul\":5689:5733   */\n      mstore\n        /* \"#utility.yul\":5572:5740   */\n      pop\n      jump\t// out\n        /* \"#utility.yul\":5746:6112   */\n    tag_115:\n        /* \"#utility.yul\":5888:5891   */\n      0x00\n        /* \"#utility.yul\":5909:5976   */\n      tag_187\n        /* \"#utility.yul\":5973:5975   */\n      0x12\n        /* \"#utility.yul\":5968:5971   */\n      dup4\n        /* \"#utility.yul\":5909:5976   */\n      tag_111\n      jump\t// in\n    tag_187:\n        /* \"#utility.yul\":5902:5976   */\n      swap2\n      pop\n        /* \"#utility.yul\":5985:6078   */\n      tag_188\n        /* \"#utility.yul\":6074:6077   */\n      dup3\n        /* \"#utility.yul\":5985:6078   */\n      tag_114\n      jump\t// in\n    tag_188:\n        /* \"#utility.yul\":6103:6105   */\n      0x20\n        /* \"#utility.yul\":6098:6101   */\n      dup3\n        /* \"#utility.yul\":6094:6106   */\n      add\n        /* \"#utility.yul\":6087:6106   */\n      swap1\n      pop\n        /* \"#utility.yul\":5746:6112   */\n      swap2\n      swap1\n      pop\n      jump\t// out\n        /* \"#utility.yul\":6118:6537   */\n    tag_59:\n        /* \"#utility.yul\":6284:6288   */\n      0x00\n        /* \"#utility.yul\":6322:6324   */\n      0x20\n        /* \"#utility.yul\":6311:6320   */\n      dup3\n        /* \"#utility.yul\":6307:6325   */\n      add\n        /* \"#utility.yul\":6299:6325   */\n      swap1\n      pop\n        /* \"#utility.yul\":6371:6380   */\n      dup2\n        /* \"#utility.yul\":6365:6369   */\n      dup2\n        /* \"#utility.yul\":6361:6381   */\n      sub\n        /* \"#utility.yul\":6357:6358   */\n      0x00\n        /* \"#utility.yul\":6346:6355   */\n      dup4\n        /* \"#utility.yul\":6342:6359   */\n      add\n        /* \"#utility.yul\":6335:6382   */\n      mstore\n        /* \"#utility.yul\":6399:6530   */\n      tag_190\n        /* \"#utility.yul\":6525:6529   */\n      dup2\n        /* \"#utility.yul\":6399:6530   */\n      tag_115\n      jump\t// in\n    tag_190:\n        /* \"#utility.yul\":6391:6530   */\n      swap1\n      pop\n        /* \"#utility.yul\":6118:6537   */\n      swap2\n      swap1\n      pop\n      jump\t// out\n        /* \"#utility.yul\":6543:6848   */\n    tag_62:\n        /* \"#utility.yul\":6583:6586   */\n      0x00\n        /* \"#utility.yul\":6602:6622   */\n      tag_192\n        /* \"#utility.yul\":6620:6621   */\n      dup3\n        /* \"#utility.yul\":6602:6622   */\n      tag_95\n      jump\t// in\n    tag_192:\n        /* \"#utility.yul\":6597:6622   */\n      swap2\n      pop\n        /* \"#utility.yul\":6636:6656   */\n      tag_193\n        /* \"#utility.yul\":6654:6655   */\n      dup4\n        /* \"#utility.yul\":6636:6656   */\n      tag_95\n      jump\t// in\n    tag_193:\n        /* \"#utility.yul\":6631:6656   */\n      swap3\n      pop\n        /* \"#utility.yul\":6790:6791   */\n      dup3\n        /* \"#utility.yul\":6722:6788   */\n      0xffffffffffffffffffffffffffffffffffffffffffffffffffffffffffffffff\n        /* \"#utility.yul\":6718:6792   */\n      sub\n        /* \"#utility.yul\":6715:6716   */\n      dup3\n        /* \"#utility.yul\":6712:6793   */\n      gt\n        /* \"#utility.yul\":6709:6816   */\n      iszero\n      tag_194\n      jumpi\n        /* \"#utility.yul\":6796:6814   */\n      tag_195\n      tag_107\n      jump\t// in\n    tag_195:\n        /* \"#utility.yul\":6709:6816   */\n    tag_194:\n        /* \"#utility.yul\":6840:6841   */\n      dup3\n        /* \"#utility.yul\":6837:6838   */\n      dup3\n        /* \"#utility.yul\":6833:6842   */\n      add\n        /* \"#utility.yul\":6826:6842   */\n      swap1\n      pop\n        /* \"#utility.yul\":6543:6848   */\n      swap3\n      swap2\n      pop\n      pop\n      jump\t// out\n        /* \"#utility.yul\":6854:7202   */\n    tag_69:\n        /* \"#utility.yul\":6894:6901   */\n      0x00\n        /* \"#utility.yul\":6917:6937   */\n      tag_197\n        /* \"#utility.yul\":6935:6936   */\n      dup3\n        /* \"#utility.yul\":6917:6937   */\n      tag_95\n      jump\t// in\n    tag_197:\n        /* \"#utility.yul\":6912:6937   */\n      swap2\n      pop\n        /* \"#utility.yul\":6951:6971   */\n      tag_198\n        /* \"#utility.yul\":6969:6970   */\n      dup4\n        /* \"#utility.yul\":6951:6971   */\n      tag_95\n      jump\t// in\n    tag_198:\n        /* \"#utility.yul\":6946:6971   */\n      swap3\n      pop\n        /* \"#utility.yul\":7139:7140   */\n      dup2\n        /* \"#utility.yul\":7071:7137   */\n      0xffffffffffffffffffffffffffffffffffffffffffffffffffffffffffffffff\n        /* \"#utility.yul\":7067:7141   */\n      div\n        /* \"#utility.yul\":7064:7065   */\n      dup4\n        /* \"#utility.yul\":7061:7142   */\n      gt\n        /* \"#utility.yul\":7056:7057   */\n      dup3\n        /* \"#utility.yul\":7049:7058   */\n      iszero\n        /* \"#utility.yul\":7042:7059   */\n      iszero\n        /* \"#utility.yul\":7038:7143   */\n      and\n        /* \"#utility.yul\":7035:7166   */\n      iszero\n      tag_199\n      jumpi\n        /* \"#utility.yul\":7146:7164   */\n      tag_200\n      tag_107\n      jump\t// in\n    tag_200:\n        /* \"#utility.yul\":7035:7166   */\n    tag_199:\n        /* \"#utility.yul\":7194:7195   */\n      dup3\n        /* \"#utility.yul\":7191:7192   */\n      dup3\n        /* \"#utility.yul\":7187:7196   */\n      mul\n        /* \"#utility.yul\":7176:7196   */\n      swap1\n      pop\n        /* \"#utility.yul\":6854:7202   */\n      swap3\n      swap2\n      pop\n      pop\n      jump\t// out\n        /* \"#utility.yul\":7208:7388   */\n    tag_116:\n        /* \"#utility.yul\":7256:7333   */\n      0x4e487b7100000000000000000000000000000000000000000000000000000000\n        /* \"#utility.yul\":7253:7254   */\n      0x00\n        /* \"#utility.yul\":7246:7334   */\n      mstore\n        /* \"#utility.yul\":7353:7357   */\n      0x12\n        /* \"#utility.yul\":7350:7351   */\n      0x04\n        /* \"#utility.yul\":7343:7358   */\n      mstore\n        /* \"#utility.yul\":7377:7381   */\n      0x24\n        /* \"#utility.yul\":7374:7375   */\n      0x00\n        /* \"#utility.yul\":7367:7382   */\n      revert\n        /* \"#utility.yul\":7394:7579   */\n    tag_71:\n        /* \"#utility.yul\":7434:7435   */\n      0x00\n        /* \"#utility.yul\":7451:7471   */\n      tag_203\n        /* \"#utility.yul\":7469:7470   */\n      dup3\n        /* \"#utility.yul\":7451:7471   */\n      tag_95\n      jump\t// in\n    tag_203:\n        /* \"#utility.yul\":7446:7471   */\n      swap2\n      pop\n        /* \"#utility.yul\":7485:7505   */\n      tag_204\n        /* \"#utility.yul\":7503:7504   */\n      dup4\n        /* \"#utility.yul\":7485:7505   */\n      tag_95\n      jump\t// in\n    tag_204:\n        /* \"#utility.yul\":7480:7505   */\n      swap3\n      pop\n        /* \"#utility.yul\":7524:7525   */\n      dup3\n        /* \"#utility.yul\":7514:7549   */\n      tag_205\n      jumpi\n        /* \"#utility.yul\":7529:7547   */\n      tag_206\n      tag_116\n      jump\t// in\n    tag_206:\n        /* \"#utility.yul\":7514:7549   */\n    tag_205:\n        /* \"#utility.yul\":7571:7572   */\n      dup3\n        /* \"#utility.yul\":7568:7569   */\n      dup3\n        /* \"#utility.yul\":7564:7573   */\n      div\n        /* \"#utility.yul\":7559:7573   */\n      swap1\n      pop\n        /* \"#utility.yul\":7394:7579   */\n      swap3\n      swap2\n      pop\n      pop\n      jump\t// out\n        /* \"#utility.yul\":7585:7690   */\n    tag_117:\n        /* \"#utility.yul\":7621:7628   */\n      0x00\n        /* \"#utility.yul\":7661:7683   */\n      0xffffffffffffffffffff\n        /* \"#utility.yul\":7654:7659   */\n      dup3\n        /* \"#utility.yul\":7650:7684   */\n      and\n        /* \"#utility.yul\":7639:7684   */\n      swap1\n      pop\n        /* \"#utility.yul\":7585:7690   */\n      swap2\n      swap1\n      pop\n      jump\t// out\n        /* \"#utility.yul\":7696:7816   */\n    tag_118:\n        /* \"#utility.yul\":7768:7791   */\n      tag_209\n        /* \"#utility.yul\":7785:7790   */\n      dup2\n        /* \"#utility.yul\":7768:7791   */\n      tag_117\n      jump\t// in\n    tag_209:\n        /* \"#utility.yul\":7761:7766   */\n      dup2\n        /* \"#utility.yul\":7758:7792   */\n      eq\n        /* \"#utility.yul\":7748:7810   */\n      tag_210\n      jumpi\n        /* \"#utility.yul\":7806:7807   */\n      0x00\n        /* \"#utility.yul\":7803:7804   */\n      dup1\n        /* \"#utility.yul\":7796:7808   */\n      revert\n        /* \"#utility.yul\":7748:7810   */\n    tag_210:\n        /* \"#utility.yul\":7696:7816   */\n      pop\n      jump\t// out\n        /* \"#utility.yul\":7822:7963   */\n    tag_119:\n        /* \"#utility.yul\":7878:7883   */\n      0x00\n        /* \"#utility.yul\":7909:7915   */\n      dup2\n        /* \"#utility.yul\":7903:7916   */\n      mload\n        /* \"#utility.yul\":7894:7916   */\n      swap1\n      pop\n        /* \"#utility.yul\":7925:7957   */\n      tag_212\n        /* \"#utility.yul\":7951:7956   */\n      dup2\n        /* \"#utility.yul\":7925:7957   */\n      tag_118\n      jump\t// in\n    tag_212:\n        /* \"#utility.yul\":7822:7963   */\n      swap3\n      swap2\n      pop\n      pop\n      jump\t// out\n        /* \"#utility.yul\":7969:8045   */\n    tag_120:\n        /* \"#utility.yul\":8005:8012   */\n      0x00\n        /* \"#utility.yul\":8034:8039   */\n      dup2\n        /* \"#utility.yul\":8023:8039   */\n      swap1\n      pop\n        /* \"#utility.yul\":7969:8045   */\n      swap2\n      swap1\n      pop\n      jump\t// out\n        /* \"#utility.yul\":8051:8171   */\n    tag_121:\n        /* \"#utility.yul\":8123:8146   */\n      tag_215\n        /* \"#utility.yul\":8140:8145   */\n      dup2\n        /* \"#utility.yul\":8123:8146   */\n      tag_120\n      jump\t// in\n    tag_215:\n        /* \"#utility.yul\":8116:8121   */\n      dup2\n        /* \"#utility.yul\":8113:8147   */\n      eq\n        /* \"#utility.yul\":8103:8165   */\n      tag_216\n      jumpi\n        /* \"#utility.yul\":8161:8162   */\n      0x00\n        /* \"#utility.yul\":8158:8159   */\n      dup1\n        /* \"#utility.yul\":8151:8163   */\n      revert\n        /* \"#utility.yul\":8103:8165   */\n    tag_216:\n        /* \"#utility.yul\":8051:8171   */\n      pop\n      jump\t// out\n        /* \"#utility.yul\":8177:8318   */\n    tag_122:\n        /* \"#utility.yul\":8233:8238   */\n      0x00\n        /* \"#utility.yul\":8264:8270   */\n      dup2\n        /* \"#utility.yul\":8258:8271   */\n      mload\n        /* \"#utility.yul\":8249:8271   */\n      swap1\n      pop\n        /* \"#utility.yul\":8280:8312   */\n      tag_218\n        /* \"#utility.yul\":8306:8311   */\n      dup2\n        /* \"#utility.yul\":8280:8312   */\n      tag_121\n      jump\t// in\n    tag_218:\n        /* \"#utility.yul\":8177:8318   */\n      swap3\n      swap2\n      pop\n      pop\n      jump\t// out\n        /* \"#utility.yul\":8324:8467   */\n    tag_123:\n        /* \"#utility.yul\":8381:8386   */\n      0x00\n        /* \"#utility.yul\":8412:8418   */\n      dup2\n        /* \"#utility.yul\":8406:8419   */\n      mload\n        /* \"#utility.yul\":8397:8419   */\n      swap1\n      pop\n        /* \"#utility.yul\":8428:8461   */\n      tag_220\n        /* \"#utility.yul\":8455:8460   */\n      dup2\n        /* \"#utility.yul\":8428:8461   */\n      tag_104\n      jump\t// in\n    tag_220:\n        /* \"#utility.yul\":8324:8467   */\n      swap3\n      swap2\n      pop\n      pop\n      jump\t// out\n        /* \"#utility.yul\":8473:9444   */\n    tag_77:\n        /* \"#utility.yul\":8576:8582   */\n      0x00\n        /* \"#utility.yul\":8584:8590   */\n      dup1\n        /* \"#utility.yul\":8592:8598   */\n      0x00\n        /* \"#utility.yul\":8600:8606   */\n      dup1\n        /* \"#utility.yul\":8608:8614   */\n      0x00\n        /* \"#utility.yul\":8657:8660   */\n      0xa0\n        /* \"#utility.yul\":8645:8654   */\n      dup7\n        /* \"#utility.yul\":8636:8643   */\n      dup9\n        /* \"#utility.yul\":8632:8655   */\n      sub\n        /* \"#utility.yul\":8628:8661   */\n      slt\n        /* \"#utility.yul\":8625:8745   */\n      iszero\n      tag_222\n      jumpi\n        /* \"#utility.yul\":8664:8743   */\n      tag_223\n      tag_98\n      jump\t// in\n    tag_223:\n        /* \"#utility.yul\":8625:8745   */\n    tag_222:\n        /* \"#utility.yul\":8784:8785   */\n      0x00\n        /* \"#utility.yul\":8809:8872   */\n      tag_224\n        /* \"#utility.yul\":8864:8871   */\n      dup9\n        /* \"#utility.yul\":8855:8861   */\n      dup3\n        /* \"#utility.yul\":8844:8853   */\n      dup10\n        /* \"#utility.yul\":8840:8862   */\n      add\n        /* \"#utility.yul\":8809:8872   */\n      tag_119\n      jump\t// in\n    tag_224:\n        /* \"#utility.yul\":8799:8872   */\n      swap6\n      pop\n        /* \"#utility.yul\":8755:8882   */\n      pop\n        /* \"#utility.yul\":8921:8923   */\n      0x20\n        /* \"#utility.yul\":8947:9010   */\n      tag_225\n        /* \"#utility.yul\":9002:9009   */\n      dup9\n        /* \"#utility.yul\":8993:8999   */\n      dup3\n        /* \"#utility.yul\":8982:8991   */\n      dup10\n        /* \"#utility.yul\":8978:9000   */\n      add\n        /* \"#utility.yul\":8947:9010   */\n      tag_122\n      jump\t// in\n    tag_225:\n        /* \"#utility.yul\":8937:9010   */\n      swap5\n      pop\n        /* \"#utility.yul\":8892:9020   */\n      pop\n        /* \"#utility.yul\":9059:9061   */\n      0x40\n        /* \"#utility.yul\":9085:9149   */\n      tag_226\n        /* \"#utility.yul\":9141:9148   */\n      dup9\n        /* \"#utility.yul\":9132:9138   */\n      dup3\n        /* \"#utility.yul\":9121:9130   */\n      dup10\n        /* \"#utility.yul\":9117:9139   */\n      add\n        /* \"#utility.yul\":9085:9149   */\n      tag_123\n      jump\t// in\n    tag_226:\n        /* \"#utility.yul\":9075:9149   */\n      swap4\n      pop\n        /* \"#utility.yul\":9030:9159   */\n      pop\n        /* \"#utility.yul\":9198:9200   */\n      0x60\n        /* \"#utility.yul\":9224:9288   */\n      tag_227\n        /* \"#utility.yul\":9280:9287   */\n      dup9\n        /* \"#utility.yul\":9271:9277   */\n      dup3\n        /* \"#utility.yul\":9260:9269   */\n      dup10\n        /* \"#utility.yul\":9256:9278   */\n      add\n        /* \"#utility.yul\":9224:9288   */\n      tag_123\n      jump\t// in\n    tag_227:\n        /* \"#utility.yul\":9214:9288   */\n      swap3\n      pop\n        /* \"#utility.yul\":9169:9298   */\n      pop\n        /* \"#utility.yul\":9337:9340   */\n      0x80\n        /* \"#utility.yul\":9364:9427   */\n      tag_228\n        /* \"#utility.yul\":9419:9426   */\n      dup9\n        /* \"#utility.yul\":9410:9416   */\n      dup3\n        /* \"#utility.yul\":9399:9408   */\n      dup10\n        /* \"#utility.yul\":9395:9417   */\n      add\n        /* \"#utility.yul\":9364:9427   */\n      tag_119\n      jump\t// in\n    tag_228:\n        /* \"#utility.yul\":9354:9427   */\n      swap2\n      pop\n        /* \"#utility.yul\":9308:9437   */\n      pop\n        /* \"#utility.yul\":8473:9444   */\n      swap3\n      swap6\n      pop\n      swap3\n      swap6\n      swap1\n      swap4\n      pop\n      jump\t// out\n        /* \"#utility.yul\":9450:9536   */\n    tag_124:\n        /* \"#utility.yul\":9485:9492   */\n      0x00\n        /* \"#utility.yul\":9525:9529   */\n      0xff\n        /* \"#utility.yul\":9518:9523   */\n      dup3\n        /* \"#utility.yul\":9514:9530   */\n      and\n        /* \"#utility.yul\":9503:9530   */\n      swap1\n      pop\n        /* \"#utility.yul\":9450:9536   */\n      swap2\n      swap1\n      pop\n      jump\t// out\n        /* \"#utility.yul\":9542:9660   */\n    tag_125:\n        /* \"#utility.yul\":9613:9635   */\n      tag_231\n        /* \"#utility.yul\":9629:9634   */\n      dup2\n        /* \"#utility.yul\":9613:9635   */\n      tag_124\n      jump\t// in\n    tag_231:\n        /* \"#utility.yul\":9606:9611   */\n      dup2\n        /* \"#utility.yul\":9603:9636   */\n      eq\n        /* \"#utility.yul\":9593:9654   */\n      tag_232\n      jumpi\n        /* \"#utility.yul\":9650:9651   */\n      0x00\n        /* \"#utility.yul\":9647:9648   */\n      dup1\n        /* \"#utility.yul\":9640:9652   */\n      revert\n        /* \"#utility.yul\":9593:9654   */\n    tag_232:\n        /* \"#utility.yul\":9542:9660   */\n      pop\n      jump\t// out\n        /* \"#utility.yul\":9666:9805   */\n    tag_126:\n        /* \"#utility.yul\":9721:9726   */\n      0x00\n        /* \"#utility.yul\":9752:9758   */\n      dup2\n        /* \"#utility.yul\":9746:9759   */\n      mload\n        /* \"#utility.yul\":9737:9759   */\n      swap1\n      pop\n        /* \"#utility.yul\":9768:9799   */\n      tag_234\n        /* \"#utility.yul\":9793:9798   */\n      dup2\n        /* \"#utility.yul\":9768:9799   */\n      tag_125\n      jump\t// in\n    tag_234:\n        /* \"#utility.yul\":9666:9805   */\n      swap3\n      swap2\n      pop\n      pop\n      jump\t// out\n        /* \"#utility.yul\":9811:10158   */\n    tag_82:\n        /* \"#utility.yul\":9879:9885   */\n      0x00\n        /* \"#utility.yul\":9928:9930   */\n      0x20\n        /* \"#utility.yul\":9916:9925   */\n      dup3\n        /* \"#utility.yul\":9907:9914   */\n      dup5\n        /* \"#utility.yul\":9903:9926   */\n      sub\n        /* \"#utility.yul\":9899:9931   */\n      slt\n        /* \"#utility.yul\":9896:10015   */\n      iszero\n      tag_236\n      jumpi\n        /* \"#utility.yul\":9934:10013   */\n      tag_237\n      tag_98\n      jump\t// in\n    tag_237:\n        /* \"#utility.yul\":9896:10015   */\n    tag_236:\n        /* \"#utility.yul\":10054:10055   */\n      0x00\n        /* \"#utility.yul\":10079:10141   */\n      tag_238\n        /* \"#utility.yul\":10133:10140   */\n      dup5\n        /* \"#utility.yul\":10124:10130   */\n      dup3\n        /* \"#utility.yul\":10113:10122   */\n      dup6\n        /* \"#utility.yul\":10109:10131   */\n      add\n        /* \"#utility.yul\":10079:10141   */\n      tag_126\n      jump\t// in\n    tag_238:\n        /* \"#utility.yul\":10069:10141   */\n      swap2\n      pop\n        /* \"#utility.yul\":10025:10151   */\n      pop\n        /* \"#utility.yul\":9811:10158   */\n      swap3\n      swap2\n      pop\n      pop\n      jump\t// out\n        /* \"#utility.yul\":10164:10349   */\n    tag_84:\n        /* \"#utility.yul\":10202:10206   */\n      0x00\n        /* \"#utility.yul\":10222:10240   */\n      tag_240\n        /* \"#utility.yul\":10238:10239   */\n      dup3\n        /* \"#utility.yul\":10222:10240   */\n      tag_124\n      jump\t// in\n    tag_240:\n        /* \"#utility.yul\":10217:10240   */\n      swap2\n      pop\n        /* \"#utility.yul\":10254:10272   */\n      tag_241\n        /* \"#utility.yul\":10270:10271   */\n      dup4\n        /* \"#utility.yul\":10254:10272   */\n      tag_124\n      jump\t// in\n    tag_241:\n        /* \"#utility.yul\":10249:10272   */\n      swap3\n      pop\n        /* \"#utility.yul\":10291:10292   */\n      dup3\n        /* \"#utility.yul\":10288:10289   */\n      dup3\n        /* \"#utility.yul\":10285:10293   */\n      lt\n        /* \"#utility.yul\":10282:10316   */\n      iszero\n      tag_242\n      jumpi\n        /* \"#utility.yul\":10296:10314   */\n      tag_243\n      tag_107\n      jump\t// in\n    tag_243:\n        /* \"#utility.yul\":10282:10316   */\n    tag_242:\n        /* \"#utility.yul\":10341:10342   */\n      dup3\n        /* \"#utility.yul\":10338:10339   */\n      dup3\n        /* \"#utility.yul\":10334:10343   */\n      sub\n        /* \"#utility.yul\":10326:10343   */\n      swap1\n      pop\n        /* \"#utility.yul\":10164:10349   */\n      swap3\n      swap2\n      pop\n      pop\n      jump\t// out\n        /* \"#utility.yul\":10355:10457   */\n    tag_127:\n        /* \"#utility.yul\":10397:10405   */\n      0x00\n        /* \"#utility.yul\":10444:10449   */\n      dup2\n        /* \"#utility.yul\":10441:10442   */\n      0x01\n        /* \"#utility.yul\":10437:10450   */\n      shr\n        /* \"#utility.yul\":10416:10450   */\n      swap1\n      pop\n        /* \"#utility.yul\":10355:10457   */\n      swap2\n      swap1\n      pop\n      jump\t// out\n        /* \"#utility.yul\":10463:11311   */\n    tag_128:\n        /* \"#utility.yul\":10524:10529   */\n      0x00\n        /* \"#utility.yul\":10531:10535   */\n      dup1\n        /* \"#utility.yul\":10555:10561   */\n      dup3\n        /* \"#utility.yul\":10546:10561   */\n      swap2\n      pop\n        /* \"#utility.yul\":10579:10584   */\n      dup4\n        /* \"#utility.yul\":10570:10584   */\n      swap1\n      pop\n        /* \"#utility.yul\":10593:11305   */\n    tag_246:\n        /* \"#utility.yul\":10614:10615   */\n      0x01\n        /* \"#utility.yul\":10604:10612   */\n      dup6\n        /* \"#utility.yul\":10601:10616   */\n      gt\n        /* \"#utility.yul\":10593:11305   */\n      iszero\n      tag_248\n      jumpi\n        /* \"#utility.yul\":10709:10713   */\n      dup1\n        /* \"#utility.yul\":10704:10707   */\n      dup7\n        /* \"#utility.yul\":10700:10714   */\n      div\n        /* \"#utility.yul\":10694:10698   */\n      dup2\n        /* \"#utility.yul\":10691:10715   */\n      gt\n        /* \"#utility.yul\":10688:10738   */\n      iszero\n      tag_249\n      jumpi\n        /* \"#utility.yul\":10718:10736   */\n      tag_250\n      tag_107\n      jump\t// in\n    tag_250:\n        /* \"#utility.yul\":10688:10738   */\n    tag_249:\n        /* \"#utility.yul\":10768:10769   */\n      0x01\n        /* \"#utility.yul\":10758:10766   */\n      dup6\n        /* \"#utility.yul\":10754:10770   */\n      and\n        /* \"#utility.yul\":10751:11202   */\n      iszero\n      tag_251\n      jumpi\n        /* \"#utility.yul\":11183:11187   */\n      dup1\n        /* \"#utility.yul\":11176:11181   */\n      dup3\n        /* \"#utility.yul\":11172:11188   */\n      mul\n        /* \"#utility.yul\":11163:11188   */\n      swap2\n      pop\n        /* \"#utility.yul\":10751:11202   */\n    tag_251:\n        /* \"#utility.yul\":11233:11237   */\n      dup1\n        /* \"#utility.yul\":11227:11231   */\n      dup2\n        /* \"#utility.yul\":11223:11238   */\n      mul\n        /* \"#utility.yul\":11215:11238   */\n      swap1\n      pop\n        /* \"#utility.yul\":11263:11295   */\n      tag_252\n        /* \"#utility.yul\":11286:11294   */\n      dup6\n        /* \"#utility.yul\":11263:11295   */\n      tag_127\n      jump\t// in\n    tag_252:\n        /* \"#utility.yul\":11251:11295   */\n      swap5\n      pop\n        /* \"#utility.yul\":10593:11305   */\n      jump(tag_246)\n    tag_248:\n        /* \"#utility.yul\":10463:11311   */\n      swap5\n      pop\n      swap5\n      swap3\n      pop\n      pop\n      pop\n      jump\t// out\n        /* \"#utility.yul\":11317:12390   */\n    tag_129:\n        /* \"#utility.yul\":11371:11376   */\n      0x00\n        /* \"#utility.yul\":11562:11570   */\n      dup3\n        /* \"#utility.yul\":11552:11592   */\n      tag_254\n      jumpi\n        /* \"#utility.yul\":11583:11584   */\n      0x01\n        /* \"#utility.yul\":11574:11584   */\n      swap1\n      pop\n        /* \"#utility.yul\":11585:11590   */\n      jump(tag_253)\n        /* \"#utility.yul\":11552:11592   */\n    tag_254:\n        /* \"#utility.yul\":11611:11615   */\n      dup2\n        /* \"#utility.yul\":11601:11637   */\n      tag_255\n      jumpi\n        /* \"#utility.yul\":11628:11629   */\n      0x00\n        /* \"#utility.yul\":11619:11629   */\n      swap1\n      pop\n        /* \"#utility.yul\":11630:11635   */\n      jump(tag_253)\n        /* \"#utility.yul\":11601:11637   */\n    tag_255:\n        /* \"#utility.yul\":11697:11701   */\n      dup2\n        /* \"#utility.yul\":11745:11746   */\n      0x01\n        /* \"#utility.yul\":11740:11767   */\n      dup2\n      eq\n      tag_257\n      jumpi\n        /* \"#utility.yul\":11781:11782   */\n      0x02\n        /* \"#utility.yul\":11776:11967   */\n      dup2\n      eq\n      tag_258\n      jumpi\n        /* \"#utility.yul\":11690:11967   */\n      jump(tag_256)\n        /* \"#utility.yul\":11740:11767   */\n    tag_257:\n        /* \"#utility.yul\":11758:11759   */\n      0x01\n        /* \"#utility.yul\":11749:11759   */\n      swap2\n      pop\n        /* \"#utility.yul\":11760:11765   */\n      pop\n      jump(tag_253)\n        /* \"#utility.yul\":11776:11967   */\n    tag_258:\n        /* \"#utility.yul\":11821:11824   */\n      0xff\n        /* \"#utility.yul\":11811:11819   */\n      dup5\n        /* \"#utility.yul\":11808:11825   */\n      gt\n        /* \"#utility.yul\":11805:11848   */\n      iszero\n      tag_259\n      jumpi\n        /* \"#utility.yul\":11828:11846   */\n      tag_260\n      tag_107\n      jump\t// in\n    tag_260:\n        /* \"#utility.yul\":11805:11848   */\n    tag_259:\n        /* \"#utility.yul\":11877:11885   */\n      dup4\n        /* \"#utility.yul\":11874:11875   */\n      0x02\n        /* \"#utility.yul\":11870:11886   */\n      exp\n        /* \"#utility.yul\":11861:11886   */\n      swap2\n      pop\n        /* \"#utility.yul\":11912:11915   */\n      dup5\n        /* \"#utility.yul\":11905:11910   */\n      dup3\n        /* \"#utility.yul\":11902:11916   */\n      gt\n        /* \"#utility.yul\":11899:11939   */\n      iszero\n      tag_261\n      jumpi\n        /* \"#utility.yul\":11919:11937   */\n      tag_262\n      tag_107\n      jump\t// in\n    tag_262:\n        /* \"#utility.yul\":11899:11939   */\n    tag_261:\n        /* \"#utility.yul\":11952:11957   */\n      pop\n      jump(tag_253)\n        /* \"#utility.yul\":11690:11967   */\n    tag_256:\n      pop\n        /* \"#utility.yul\":12076:12078   */\n      0x20\n        /* \"#utility.yul\":12066:12074   */\n      dup4\n        /* \"#utility.yul\":12063:12079   */\n      lt\n        /* \"#utility.yul\":12057:12060   */\n      0x0133\n        /* \"#utility.yul\":12051:12055   */\n      dup4\n        /* \"#utility.yul\":12048:12061   */\n      lt\n        /* \"#utility.yul\":12044:12080   */\n      and\n        /* \"#utility.yul\":12026:12028   */\n      0x4e\n        /* \"#utility.yul\":12016:12024   */\n      dup5\n        /* \"#utility.yul\":12013:12029   */\n      lt\n        /* \"#utility.yul\":12008:12010   */\n      0x0b\n        /* \"#utility.yul\":12002:12006   */\n      dup5\n        /* \"#utility.yul\":11999:12011   */\n      lt\n        /* \"#utility.yul\":11995:12030   */\n      and\n        /* \"#utility.yul\":11979:12090   */\n      or\n        /* \"#utility.yul\":11976:12222   */\n      iszero\n      tag_263\n      jumpi\n        /* \"#utility.yul\":12132:12140   */\n      dup3\n        /* \"#utility.yul\":12126:12130   */\n      dup3\n        /* \"#utility.yul\":12122:12141   */\n      exp\n        /* \"#utility.yul\":12113:12141   */\n      swap1\n      pop\n        /* \"#utility.yul\":12167:12170   */\n      dup4\n        /* \"#utility.yul\":12160:12165   */\n      dup2\n        /* \"#utility.yul\":12157:12171   */\n      gt\n        /* \"#utility.yul\":12154:12194   */\n      iszero\n      tag_264\n      jumpi\n        /* \"#utility.yul\":12174:12192   */\n      tag_265\n      tag_107\n      jump\t// in\n    tag_265:\n        /* \"#utility.yul\":12154:12194   */\n    tag_264:\n        /* \"#utility.yul\":12207:12212   */\n      jump(tag_253)\n        /* \"#utility.yul\":11976:12222   */\n    tag_263:\n        /* \"#utility.yul\":12247:12289   */\n      tag_266\n        /* \"#utility.yul\":12285:12288   */\n      dup5\n        /* \"#utility.yul\":12275:12283   */\n      dup5\n        /* \"#utility.yul\":12269:12273   */\n      dup5\n        /* \"#utility.yul\":12266:12267   */\n      0x01\n        /* \"#utility.yul\":12247:12289   */\n      tag_128\n      jump\t// in\n    tag_266:\n        /* \"#utility.yul\":12232:12289   */\n      swap3\n      pop\n      swap1\n      pop\n        /* \"#utility.yul\":12321:12325   */\n      dup2\n        /* \"#utility.yul\":12316:12319   */\n      dup5\n        /* \"#utility.yul\":12312:12326   */\n      div\n        /* \"#utility.yul\":12305:12310   */\n      dup2\n        /* \"#utility.yul\":12302:12327   */\n      gt\n        /* \"#utility.yul\":12299:12350   */\n      iszero\n      tag_267\n      jumpi\n        /* \"#utility.yul\":12330:12348   */\n      tag_268\n      tag_107\n      jump\t// in\n    tag_268:\n        /* \"#utility.yul\":12299:12350   */\n    tag_267:\n        /* \"#utility.yul\":12379:12383   */\n      dup2\n        /* \"#utility.yul\":12372:12377   */\n      dup2\n        /* \"#utility.yul\":12368:12384   */\n      mul\n        /* \"#utility.yul\":12359:12384   */\n      swap1\n      pop\n        /* \"#utility.yul\":11317:12390   */\n    tag_253:\n      swap4\n      swap3\n      pop\n      pop\n      pop\n      jump\t// out\n        /* \"#utility.yul\":12396:12677   */\n    tag_86:\n        /* \"#utility.yul\":12454:12459   */\n      0x00\n        /* \"#utility.yul\":12478:12501   */\n      tag_270\n        /* \"#utility.yul\":12496:12500   */\n      dup3\n        /* \"#utility.yul\":12478:12501   */\n      tag_95\n      jump\t// in\n    tag_270:\n        /* \"#utility.yul\":12470:12501   */\n      swap2\n      pop\n        /* \"#utility.yul\":12522:12547   */\n      tag_271\n        /* \"#utility.yul\":12538:12546   */\n      dup4\n        /* \"#utility.yul\":12522:12547   */\n      tag_124\n      jump\t// in\n    tag_271:\n        /* \"#utility.yul\":12510:12547   */\n      swap3\n      pop\n        /* \"#utility.yul\":12566:12670   */\n      tag_272\n        /* \"#utility.yul\":12603:12669   */\n      0xffffffffffffffffffffffffffffffffffffffffffffffffffffffffffffffff\n        /* \"#utility.yul\":12593:12601   */\n      dup5\n        /* \"#utility.yul\":12587:12591   */\n      dup5\n        /* \"#utility.yul\":12566:12670   */\n      tag_129\n      jump\t// in\n    tag_272:\n        /* \"#utility.yul\":12557:12670   */\n      swap1\n      pop\n        /* \"#utility.yul\":12396:12677   */\n      swap3\n      swap2\n      pop\n      pop\n      jump\t// out\n\n    auxdata: 0xa2646970667358221220a5663ba72cf95878f4e3001552bf55d3944c3f78fdbb3f932516ebfb67165aa364736f6c63430008080033\n}\n",
				"bytecode": {
					"linkReferences": {},
					"object": "60806040526802b5e3af16b188000060005534801561001d57600080fd5b50610e178061002d6000396000f3fe60806040526004361061004a5760003560e01c8063098de8201461004f5780633ccfd60b1461007a5780633e47d6f314610091578063b60d4288146100ce578063dc0d3dff146100d8575b600080fd5b34801561005b57600080fd5b50610064610115565b604051610071919061067e565b60405180910390f35b34801561008657600080fd5b5061008f61011b565b005b34801561009d57600080fd5b506100b860048036038101906100b391906106fc565b6102d7565b6040516100c5919061067e565b60405180910390f35b6100d66102ef565b005b3480156100e457600080fd5b506100ff60048036038101906100fa9190610755565b6103f7565b60405161010c9190610791565b60405180910390f35b60005481565b60005b6001805490508110156101c757600060018281548110610141576101406107ac565b5b9060005260206000200160009054906101000a900473ffffffffffffffffffffffffffffffffffffffff1690506000600260008373ffffffffffffffffffffffffffffffffffffffff1673ffffffffffffffffffffffffffffffffffffffff168152602001908152602001600020819055505080806101bf9061080a565b91505061011e565b50600067ffffffffffffffff8111156101e3576101e2610853565b5b6040519080825280602002602001820160405280156102115781602001602082028036833780820191505090505b50600190805190602001906102279291906105be565b5060003373ffffffffffffffffffffffffffffffffffffffff164760405161024e906108b3565b60006040518083038185875af1925050503d806000811461028b576040519150601f19603f3d011682016040523d82523d6000602084013e610290565b606091505b50509050806102d4576040517f08c379a00000000000000000000000000000000000000000000000000000000081526004016102cb90610925565b60405180910390fd5b50565b60026020528060005260406000206000915090505481565b6000546102fb34610436565b101561033c576040517f08c379a000000000000000000000000000000000000000000000000000000000815260040161033390610991565b60405180910390fd5b6001339080600181540180825580915050600190039060005260206000200160009091909190916101000a81548173ffffffffffffffffffffffffffffffffffffffff021916908373ffffffffffffffffffffffffffffffffffffffff16021790555034600260003373ffffffffffffffffffffffffffffffffffffffff1673ffffffffffffffffffffffffffffffffffffffff16815260200190815260200160002060008282546103ee91906109b1565b92505081905550565b6001818154811061040757600080fd5b906000526020600020016000915054906101000a900473ffffffffffffffffffffffffffffffffffffffff1681565b600080610441610470565b90506000670de0b6b3a7640000848361045a9190610a07565b6104649190610a90565b90508092505050919050565b60008073694aa1769357215de4fac081bf1f309adc325306905060008173ffffffffffffffffffffffffffffffffffffffff1663feaf968c6040518163ffffffff1660e01b815260040160a06040518083038186803b1580156104d257600080fd5b505afa1580156104e6573d6000803e3d6000fd5b505050506040513d601f19601f8201168201806040525081019061050a9190610b4e565b5050509150506000601290508273ffffffffffffffffffffffffffffffffffffffff1663313ce5676040518163ffffffff1660e01b815260040160206040518083038186803b15801561055c57600080fd5b505afa158015610570573d6000803e3d6000fd5b505050506040513d601f19601f820116820180604052508101906105949190610c02565b8161059f9190610c2f565b600a6105ab9190610d96565b826105b69190610a07565b935050505090565b828054828255906000526020600020908101928215610637579160200282015b828111156106365782518260006101000a81548173ffffffffffffffffffffffffffffffffffffffff021916908373ffffffffffffffffffffffffffffffffffffffff160217905550916020019190600101906105de565b5b5090506106449190610648565b5090565b5b80821115610661576000816000905550600101610649565b5090565b6000819050919050565b61067881610665565b82525050565b6000602082019050610693600083018461066f565b92915050565b600080fd5b600073ffffffffffffffffffffffffffffffffffffffff82169050919050565b60006106c98261069e565b9050919050565b6106d9816106be565b81146106e457600080fd5b50565b6000813590506106f6816106d0565b92915050565b60006020828403121561071257610711610699565b5b6000610720848285016106e7565b91505092915050565b61073281610665565b811461073d57600080fd5b50565b60008135905061074f81610729565b92915050565b60006020828403121561076b5761076a610699565b5b600061077984828501610740565b91505092915050565b61078b816106be565b82525050565b60006020820190506107a66000830184610782565b92915050565b7f4e487b7100000000000000000000000000000000000000000000000000000000600052603260045260246000fd5b7f4e487b7100000000000000000000000000000000000000000000000000000000600052601160045260246000fd5b600061081582610665565b91507fffffffffffffffffffffffffffffffffffffffffffffffffffffffffffffffff821415610848576108476107db565b5b600182019050919050565b7f4e487b7100000000000000000000000000000000000000000000000000000000600052604160045260246000fd5b600081905092915050565b50565b600061089d600083610882565b91506108a88261088d565b600082019050919050565b60006108be82610890565b9150819050919050565b600082825260208201905092915050565b7f7472616e73666572206661696c73000000000000000000000000000000000000600082015250565b600061090f600e836108c8565b915061091a826108d9565b602082019050919050565b6000602082019050818103600083015261093e81610902565b9050919050565b7f4469646e27742073656e6420656e6f7567680000000000000000000000000000600082015250565b600061097b6012836108c8565b915061098682610945565b602082019050919050565b600060208201905081810360008301526109aa8161096e565b9050919050565b60006109bc82610665565b91506109c783610665565b9250827fffffffffffffffffffffffffffffffffffffffffffffffffffffffffffffffff038211156109fc576109fb6107db565b5b828201905092915050565b6000610a1282610665565b9150610a1d83610665565b9250817fffffffffffffffffffffffffffffffffffffffffffffffffffffffffffffffff0483118215151615610a5657610a556107db565b5b828202905092915050565b7f4e487b7100000000000000000000000000000000000000000000000000000000600052601260045260246000fd5b6000610a9b82610665565b9150610aa683610665565b925082610ab657610ab5610a61565b5b828204905092915050565b600069ffffffffffffffffffff82169050919050565b610ae081610ac1565b8114610aeb57600080fd5b50565b600081519050610afd81610ad7565b92915050565b6000819050919050565b610b1681610b03565b8114610b2157600080fd5b50565b600081519050610b3381610b0d565b92915050565b600081519050610b4881610729565b92915050565b600080600080600060a08688031215610b6a57610b69610699565b5b6000610b7888828901610aee565b9550506020610b8988828901610b24565b9450506040610b9a88828901610b39565b9350506060610bab88828901610b39565b9250506080610bbc88828901610aee565b9150509295509295909350565b600060ff82169050919050565b610bdf81610bc9565b8114610bea57600080fd5b50565b600081519050610bfc81610bd6565b92915050565b600060208284031215610c1857610c17610699565b5b6000610c2684828501610bed565b91505092915050565b6000610c3a82610bc9565b9150610c4583610bc9565b925082821015610c5857610c576107db565b5b828203905092915050565b60008160011c9050919050565b6000808291508390505b6001851115610cba57808604811115610c9657610c956107db565b5b6001851615610ca55780820291505b8081029050610cb385610c63565b9450610c7a565b94509492505050565b600082610cd35760019050610d8f565b81610ce15760009050610d8f565b8160018114610cf75760028114610d0157610d30565b6001915050610d8f565b60ff841115610d1357610d126107db565b5b8360020a915084821115610d2a57610d296107db565b5b50610d8f565b5060208310610133831016604e8410600b8410161715610d655782820a905083811115610d6057610d5f6107db565b5b610d8f565b610d728484846001610c70565b92509050818404811115610d8957610d886107db565b5b81810290505b9392505050565b6000610da182610665565b9150610dac83610bc9565b9250610dd97fffffffffffffffffffffffffffffffffffffffffffffffffffffffffffffffff8484610cc3565b90509291505056fea2646970667358221220a5663ba72cf95878f4e3001552bf55d3944c3f78fdbb3f932516ebfb67165aa364736f6c63430008080033",
					"opcodes": "PUSH1 0x80 PUSH1 0x40 MSTORE PUSH9 0x2B5E3AF16B1880000 PUSH1 0x0 SSTORE CALLVALUE DUP1 ISZERO PUSH2 0x1D JUMPI PUSH1 0x0 DUP1 REVERT JUMPDEST POP PUSH2 0xE17 DUP1 PUSH2 0x2D PUSH1 0x0 CODECOPY PUSH1 0x0 RETURN INVALID PUSH1 0x80 PUSH1 0x40 MSTORE PUSH1 0x4 CALLDATASIZE LT PUSH2 0x4A JUMPI PUSH1 0x0 CALLDATALOAD PUSH1 0xE0 SHR DUP1 PUSH4 0x98DE820 EQ PUSH2 0x4F JUMPI DUP1 PUSH4 0x3CCFD60B EQ PUSH2 0x7A JUMPI DUP1 PUSH4 0x3E47D6F3 EQ PUSH2 0x91 JUMPI DUP1 PUSH4 0xB60D4288 EQ PUSH2 0xCE JUMPI DUP1 PUSH4 0xDC0D3DFF EQ PUSH2 0xD8 JUMPI JUMPDEST PUSH1 0x0 DUP1 REVERT JUMPDEST CALLVALUE DUP1 ISZERO PUSH2 0x5B JUMPI PUSH1 0x0 DUP1 REVERT JUMPDEST POP PUSH2 0x64 PUSH2 0x115 JUMP JUMPDEST PUSH1 0x40 MLOAD PUSH2 0x71 SWAP2 SWAP1 PUSH2 0x67E JUMP JUMPDEST PUSH1 0x40 MLOAD DUP1 SWAP2 SUB SWAP1 RETURN JUMPDEST CALLVALUE DUP1 ISZERO PUSH2 0x86 JUMPI PUSH1 0x0 DUP1 REVERT JUMPDEST POP PUSH2 0x8F PUSH2 0x11B JUMP JUMPDEST STOP JUMPDEST CALLVALUE DUP1 ISZERO PUSH2 0x9D JUMPI PUSH1 0x0 DUP1 REVERT JUMPDEST POP PUSH2 0xB8 PUSH1 0x4 DUP1 CALLDATASIZE SUB DUP2 ADD SWAP1 PUSH2 0xB3 SWAP2 SWAP1 PUSH2 0x6FC JUMP JUMPDEST PUSH2 0x2D7 JUMP JUMPDEST PUSH1 0x40 MLOAD PUSH2 0xC5 SWAP2 SWAP1 PUSH2 0x67E JUMP JUMPDEST PUSH1 0x40 MLOAD DUP1 SWAP2 SUB SWAP1 RETURN JUMPDEST PUSH2 0xD6 PUSH2 0x2EF JUMP JUMPDEST STOP JUMPDEST CALLVALUE DUP1 ISZERO PUSH2 0xE4 JUMPI PUSH1 0x0 DUP1 REVERT JUMPDEST POP PUSH2 0xFF PUSH1 0x4 DUP1 CALLDATASIZE SUB DUP2 ADD SWAP1 PUSH2 0xFA SWAP2 SWAP1 PUSH2 0x755 JUMP JUMPDEST PUSH2 0x3F7 JUMP JUMPDEST PUSH1 0x40 MLOAD PUSH2 0x10C SWAP2 SWAP1 PUSH2 0x791 JUMP JUMPDEST PUSH1 0x40 MLOAD DUP1 SWAP2 SUB SWAP1 RETURN JUMPDEST PUSH1 0x0 SLOAD DUP2 JUMP JUMPDEST PUSH1 0x0 JUMPDEST PUSH1 0x1 DUP1 SLOAD SWAP1 POP DUP2 LT ISZERO PUSH2 0x1C7 JUMPI PUSH1 0x0 PUSH1 0x1 DUP3 DUP2 SLOAD DUP2 LT PUSH2 0x141 JUMPI PUSH2 0x140 PUSH2 0x7AC JUMP JUMPDEST JUMPDEST SWAP1 PUSH1 0x0 MSTORE PUSH1 0x20 PUSH1 0x0 KECCAK256 ADD PUSH1 0x0 SWAP1 SLOAD SWAP1 PUSH2 0x100 EXP SWAP1 DIV PUSH20 0xFFFFFFFFFFFFFFFFFFFFFFFFFFFFFFFFFFFFFFFF AND SWAP1 POP PUSH1 0x0 PUSH1 0x2 PUSH1 0x0 DUP4 PUSH20 0xFFFFFFFFFFFFFFFFFFFFFFFFFFFFFFFFFFFFFFFF AND PUSH20 0xFFFFFFFFFFFFFFFFFFFFFFFFFFFFFFFFFFFFFFFF AND DUP2 MSTORE PUSH1 0x20 ADD SWAP1 DUP2 MSTORE PUSH1 0x20 ADD PUSH1 0x0 KECCAK256 DUP2 SWAP1 SSTORE POP POP DUP1 DUP1 PUSH2 0x1BF SWAP1 PUSH2 0x80A JUMP JUMPDEST SWAP2 POP POP PUSH2 0x11E JUMP JUMPDEST POP PUSH1 0x0 PUSH8 0xFFFFFFFFFFFFFFFF DUP2 GT ISZERO PUSH2 0x1E3 JUMPI PUSH2 0x1E2 PUSH2 0x853 JUMP JUMPDEST JUMPDEST PUSH1 0x40 MLOAD SWAP1 DUP1 DUP3 MSTORE DUP1 PUSH1 0x20 MUL PUSH1 0x20 ADD DUP3 ADD PUSH1 0x40 MSTORE DUP1 ISZERO PUSH2 0x211 JUMPI DUP2 PUSH1 0x20 ADD PUSH1 0x20 DUP3 MUL DUP1 CALLDATASIZE DUP4 CALLDATACOPY DUP1 DUP3 ADD SWAP2 POP POP SWAP1 POP JUMPDEST POP PUSH1 0x1 SWAP1 DUP1 MLOAD SWAP1 PUSH1 0x20 ADD SWAP1 PUSH2 0x227 SWAP3 SWAP2 SWAP1 PUSH2 0x5BE JUMP JUMPDEST POP PUSH1 0x0 CALLER PUSH20 0xFFFFFFFFFFFFFFFFFFFFFFFFFFFFFFFFFFFFFFFF AND SELFBALANCE PUSH1 0x40 MLOAD PUSH2 0x24E SWAP1 PUSH2 0x8B3 JUMP JUMPDEST PUSH1 0x0 PUSH1 0x40 MLOAD DUP1 DUP4 SUB DUP2 DUP6 DUP8 GAS CALL SWAP3 POP POP POP RETURNDATASIZE DUP1 PUSH1 0x0 DUP2 EQ PUSH2 0x28B JUMPI PUSH1 0x40 MLOAD SWAP2 POP PUSH1 0x1F NOT PUSH1 0x3F RETURNDATASIZE ADD AND DUP3 ADD PUSH1 0x40 MSTORE RETURNDATASIZE DUP3 MSTORE RETURNDATASIZE PUSH1 0x0 PUSH1 0x20 DUP5 ADD RETURNDATACOPY PUSH2 0x290 JUMP JUMPDEST PUSH1 0x60 SWAP2 POP JUMPDEST POP POP SWAP1 POP DUP1 PUSH2 0x2D4 JUMPI PUSH1 0x40 MLOAD PUSH32 0x8C379A000000000000000000000000000000000000000000000000000000000 DUP2 MSTORE PUSH1 0x4 ADD PUSH2 0x2CB SWAP1 PUSH2 0x925 JUMP JUMPDEST PUSH1 0x40 MLOAD DUP1 SWAP2 SUB SWAP1 REVERT JUMPDEST POP JUMP JUMPDEST PUSH1 0x2 PUSH1 0x20 MSTORE DUP1 PUSH1 0x0 MSTORE PUSH1 0x40 PUSH1 0x0 KECCAK256 PUSH1 0x0 SWAP2 POP SWAP1 POP SLOAD DUP2 JUMP JUMPDEST PUSH1 0x0 SLOAD PUSH2 0x2FB CALLVALUE PUSH2 0x436 JUMP JUMPDEST LT ISZERO PUSH2 0x33C JUMPI PUSH1 0x40 MLOAD PUSH32 0x8C379A000000000000000000000000000000000000000000000000000000000 DUP2 MSTORE PUSH1 0x4 ADD PUSH2 0x333 SWAP1 PUSH2 0x991 JUMP JUMPDEST PUSH1 0x40 MLOAD DUP1 SWAP2 SUB SWAP1 REVERT JUMPDEST PUSH1 0x1 CALLER SWAP1 DUP1 PUSH1 0x1 DUP2 SLOAD ADD DUP1 DUP3 SSTORE DUP1 SWAP2 POP POP PUSH1 0x1 SWAP1 SUB SWAP1 PUSH1 0x0 MSTORE PUSH1 0x20 PUSH1 0x0 KECCAK256 ADD PUSH1 0x0 SWAP1 SWAP2 SWAP1 SWAP2 SWAP1 SWAP2 PUSH2 0x100 EXP DUP2 SLOAD DUP2 PUSH20 0xFFFFFFFFFFFFFFFFFFFFFFFFFFFFFFFFFFFFFFFF MUL NOT AND SWAP1 DUP4 PUSH20 0xFFFFFFFFFFFFFFFFFFFFFFFFFFFFFFFFFFFFFFFF AND MUL OR SWAP1 SSTORE POP CALLVALUE PUSH1 0x2 PUSH1 0x0 CALLER PUSH20 0xFFFFFFFFFFFFFFFFFFFFFFFFFFFFFFFFFFFFFFFF AND PUSH20 0xFFFFFFFFFFFFFFFFFFFFFFFFFFFFFFFFFFFFFFFF AND DUP2 MSTORE PUSH1 0x20 ADD SWAP1 DUP2 MSTORE PUSH1 0x20 ADD PUSH1 0x0 KECCAK256 PUSH1 0x0 DUP3 DUP3 SLOAD PUSH2 0x3EE SWAP2 SWAP1 PUSH2 0x9B1 JUMP JUMPDEST SWAP3 POP POP DUP2 SWAP1 SSTORE POP JUMP JUMPDEST PUSH1 0x1 DUP2 DUP2 SLOAD DUP2 LT PUSH2 0x407 JUMPI PUSH1 0x0 DUP1 REVERT JUMPDEST SWAP1 PUSH1 0x0 MSTORE PUSH1 0x20 PUSH1 0x0 KECCAK256 ADD PUSH1 0x0 SWAP2 POP SLOAD SWAP1 PUSH2 0x100 EXP SWAP1 DIV PUSH20 0xFFFFFFFFFFFFFFFFFFFFFFFFFFFFFFFFFFFFFFFF AND DUP2 JUMP JUMPDEST PUSH1 0x0 DUP1 PUSH2 0x441 PUSH2 0x470 JUMP JUMPDEST SWAP1 POP PUSH1 0x0 PUSH8 0xDE0B6B3A7640000 DUP5 DUP4 PUSH2 0x45A SWAP2 SWAP1 PUSH2 0xA07 JUMP JUMPDEST PUSH2 0x464 SWAP2 SWAP1 PUSH2 0xA90 JUMP JUMPDEST SWAP1 POP DUP1 SWAP3 POP POP POP SWAP2 SWAP1 POP JUMP JUMPDEST PUSH1 0x0 DUP1 PUSH20 0x694AA1769357215DE4FAC081BF1F309ADC325306 SWAP1 POP PUSH1 0x0 DUP2 PUSH20 0xFFFFFFFFFFFFFFFFFFFFFFFFFFFFFFFFFFFFFFFF AND PUSH4 0xFEAF968C PUSH1 0x40 MLOAD DUP2 PUSH4 0xFFFFFFFF AND PUSH1 0xE0 SHL DUP2 MSTORE PUSH1 0x4 ADD PUSH1 0xA0 PUSH1 0x40 MLOAD DUP1 DUP4 SUB DUP2 DUP7 DUP1 EXTCODESIZE ISZERO DUP1 ISZERO PUSH2 0x4D2 JUMPI PUSH1 0x0 DUP1 REVERT JUMPDEST POP GAS STATICCALL ISZERO DUP1 ISZERO PUSH2 0x4E6 JUMPI RETURNDATASIZE PUSH1 0x0 DUP1 RETURNDATACOPY RETURNDATASIZE PUSH1 0x0 REVERT JUMPDEST POP POP POP POP PUSH1 0x40 MLOAD RETURNDATASIZE PUSH1 0x1F NOT PUSH1 0x1F DUP3 ADD AND DUP3 ADD DUP1 PUSH1 0x40 MSTORE POP DUP2 ADD SWAP1 PUSH2 0x50A SWAP2 SWAP1 PUSH2 0xB4E JUMP JUMPDEST POP POP POP SWAP2 POP POP PUSH1 0x0 PUSH1 0x12 SWAP1 POP DUP3 PUSH20 0xFFFFFFFFFFFFFFFFFFFFFFFFFFFFFFFFFFFFFFFF AND PUSH4 0x313CE567 PUSH1 0x40 MLOAD DUP2 PUSH4 0xFFFFFFFF AND PUSH1 0xE0 SHL DUP2 MSTORE PUSH1 0x4 ADD PUSH1 0x20 PUSH1 0x40 MLOAD DUP1 DUP4 SUB DUP2 DUP7 DUP1 EXTCODESIZE ISZERO DUP1 ISZERO PUSH2 0x55C JUMPI PUSH1 0x0 DUP1 REVERT JUMPDEST POP GAS STATICCALL ISZERO DUP1 ISZERO PUSH2 0x570 JUMPI RETURNDATASIZE PUSH1 0x0 DUP1 RETURNDATACOPY RETURNDATASIZE PUSH1 0x0 REVERT JUMPDEST POP POP POP POP PUSH1 0x40 MLOAD RETURNDATASIZE PUSH1 0x1F NOT PUSH1 0x1F DUP3 ADD AND DUP3 ADD DUP1 PUSH1 0x40 MSTORE POP DUP2 ADD SWAP1 PUSH2 0x594 SWAP2 SWAP1 PUSH2 0xC02 JUMP JUMPDEST DUP2 PUSH2 0x59F SWAP2 SWAP1 PUSH2 0xC2F JUMP JUMPDEST PUSH1 0xA PUSH2 0x5AB SWAP2 SWAP1 PUSH2 0xD96 JUMP JUMPDEST DUP3 PUSH2 0x5B6 SWAP2 SWAP1 PUSH2 0xA07 JUMP JUMPDEST SWAP4 POP POP POP POP SWAP1 JUMP JUMPDEST DUP3 DUP1 SLOAD DUP3 DUP3 SSTORE SWAP1 PUSH1 0x0 MSTORE PUSH1 0x20 PUSH1 0x0 KECCAK256 SWAP1 DUP2 ADD SWAP3 DUP3 ISZERO PUSH2 0x637 JUMPI SWAP2 PUSH1 0x20 MUL DUP3 ADD JUMPDEST DUP3 DUP2 GT ISZERO PUSH2 0x636 JUMPI DUP3 MLOAD DUP3 PUSH1 0x0 PUSH2 0x100 EXP DUP2 SLOAD DUP2 PUSH20 0xFFFFFFFFFFFFFFFFFFFFFFFFFFFFFFFFFFFFFFFF MUL NOT AND SWAP1 DUP4 PUSH20 0xFFFFFFFFFFFFFFFFFFFFFFFFFFFFFFFFFFFFFFFF AND MUL OR SWAP1 SSTORE POP SWAP2 PUSH1 0x20 ADD SWAP2 SWAP1 PUSH1 0x1 ADD SWAP1 PUSH2 0x5DE JUMP JUMPDEST JUMPDEST POP SWAP1 POP PUSH2 0x644 SWAP2 SWAP1 PUSH2 0x648 JUMP JUMPDEST POP SWAP1 JUMP JUMPDEST JUMPDEST DUP1 DUP3 GT ISZERO PUSH2 0x661 JUMPI PUSH1 0x0 DUP2 PUSH1 0x0 SWAP1 SSTORE POP PUSH1 0x1 ADD PUSH2 0x649 JUMP JUMPDEST POP SWAP1 JUMP JUMPDEST PUSH1 0x0 DUP2 SWAP1 POP SWAP2 SWAP1 POP JUMP JUMPDEST PUSH2 0x678 DUP2 PUSH2 0x665 JUMP JUMPDEST DUP3 MSTORE POP POP JUMP JUMPDEST PUSH1 0x0 PUSH1 0x20 DUP3 ADD SWAP1 POP PUSH2 0x693 PUSH1 0x0 DUP4 ADD DUP5 PUSH2 0x66F JUMP JUMPDEST SWAP3 SWAP2 POP POP JUMP JUMPDEST PUSH1 0x0 DUP1 REVERT JUMPDEST PUSH1 0x0 PUSH20 0xFFFFFFFFFFFFFFFFFFFFFFFFFFFFFFFFFFFFFFFF DUP3 AND SWAP1 POP SWAP2 SWAP1 POP JUMP JUMPDEST PUSH1 0x0 PUSH2 0x6C9 DUP3 PUSH2 0x69E JUMP JUMPDEST SWAP1 POP SWAP2 SWAP1 POP JUMP JUMPDEST PUSH2 0x6D9 DUP2 PUSH2 0x6BE JUMP JUMPDEST DUP2 EQ PUSH2 0x6E4 JUMPI PUSH1 0x0 DUP1 REVERT JUMPDEST POP JUMP JUMPDEST PUSH1 0x0 DUP2 CALLDATALOAD SWAP1 POP PUSH2 0x6F6 DUP2 PUSH2 0x6D0 JUMP JUMPDEST SWAP3 SWAP2 POP POP JUMP JUMPDEST PUSH1 0x0 PUSH1 0x20 DUP3 DUP5 SUB SLT ISZERO PUSH2 0x712 JUMPI PUSH2 0x711 PUSH2 0x699 JUMP JUMPDEST JUMPDEST PUSH1 0x0 PUSH2 0x720 DUP5 DUP3 DUP6 ADD PUSH2 0x6E7 JUMP JUMPDEST SWAP2 POP POP SWAP3 SWAP2 POP POP JUMP JUMPDEST PUSH2 0x732 DUP2 PUSH2 0x665 JUMP JUMPDEST DUP2 EQ PUSH2 0x73D JUMPI PUSH1 0x0 DUP1 REVERT JUMPDEST POP JUMP JUMPDEST PUSH1 0x0 DUP2 CALLDATALOAD SWAP1 POP PUSH2 0x74F DUP2 PUSH2 0x729 JUMP JUMPDEST SWAP3 SWAP2 POP POP JUMP JUMPDEST PUSH1 0x0 PUSH1 0x20 DUP3 DUP5 SUB SLT ISZERO PUSH2 0x76B JUMPI PUSH2 0x76A PUSH2 0x699 JUMP JUMPDEST JUMPDEST PUSH1 0x0 PUSH2 0x779 DUP5 DUP3 DUP6 ADD PUSH2 0x740 JUMP JUMPDEST SWAP2 POP POP SWAP3 SWAP2 POP POP JUMP JUMPDEST PUSH2 0x78B DUP2 PUSH2 0x6BE JUMP JUMPDEST DUP3 MSTORE POP POP JUMP JUMPDEST PUSH1 0x0 PUSH1 0x20 DUP3 ADD SWAP1 POP PUSH2 0x7A6 PUSH1 0x0 DUP4 ADD DUP5 PUSH2 0x782 JUMP JUMPDEST SWAP3 SWAP2 POP POP JUMP JUMPDEST PUSH32 0x4E487B7100000000000000000000000000000000000000000000000000000000 PUSH1 0x0 MSTORE PUSH1 0x32 PUSH1 0x4 MSTORE PUSH1 0x24 PUSH1 0x0 REVERT JUMPDEST PUSH32 0x4E487B7100000000000000000000000000000000000000000000000000000000 PUSH1 0x0 MSTORE PUSH1 0x11 PUSH1 0x4 MSTORE PUSH1 0x24 PUSH1 0x0 REVERT JUMPDEST PUSH1 0x0 PUSH2 0x815 DUP3 PUSH2 0x665 JUMP JUMPDEST SWAP2 POP PUSH32 0xFFFFFFFFFFFFFFFFFFFFFFFFFFFFFFFFFFFFFFFFFFFFFFFFFFFFFFFFFFFFFFFF DUP3 EQ ISZERO PUSH2 0x848 JUMPI PUSH2 0x847 PUSH2 0x7DB JUMP JUMPDEST JUMPDEST PUSH1 0x1 DUP3 ADD SWAP1 POP SWAP2 SWAP1 POP JUMP JUMPDEST PUSH32 0x4E487B7100000000000000000000000000000000000000000000000000000000 PUSH1 0x0 MSTORE PUSH1 0x41 PUSH1 0x4 MSTORE PUSH1 0x24 PUSH1 0x0 REVERT JUMPDEST PUSH1 0x0 DUP2 SWAP1 POP SWAP3 SWAP2 POP POP JUMP JUMPDEST POP JUMP JUMPDEST PUSH1 0x0 PUSH2 0x89D PUSH1 0x0 DUP4 PUSH2 0x882 JUMP JUMPDEST SWAP2 POP PUSH2 0x8A8 DUP3 PUSH2 0x88D JUMP JUMPDEST PUSH1 0x0 DUP3 ADD SWAP1 POP SWAP2 SWAP1 POP JUMP JUMPDEST PUSH1 0x0 PUSH2 0x8BE DUP3 PUSH2 0x890 JUMP JUMPDEST SWAP2 POP DUP2 SWAP1 POP SWAP2 SWAP1 POP JUMP JUMPDEST PUSH1 0x0 DUP3 DUP3 MSTORE PUSH1 0x20 DUP3 ADD SWAP1 POP SWAP3 SWAP2 POP POP JUMP JUMPDEST PUSH32 0x7472616E73666572206661696C73000000000000000000000000000000000000 PUSH1 0x0 DUP3 ADD MSTORE POP JUMP JUMPDEST PUSH1 0x0 PUSH2 0x90F PUSH1 0xE DUP4 PUSH2 0x8C8 JUMP JUMPDEST SWAP2 POP PUSH2 0x91A DUP3 PUSH2 0x8D9 JUMP JUMPDEST PUSH1 0x20 DUP3 ADD SWAP1 POP SWAP2 SWAP1 POP JUMP JUMPDEST PUSH1 0x0 PUSH1 0x20 DUP3 ADD SWAP1 POP DUP2 DUP2 SUB PUSH1 0x0 DUP4 ADD MSTORE PUSH2 0x93E DUP2 PUSH2 0x902 JUMP JUMPDEST SWAP1 POP SWAP2 SWAP1 POP JUMP JUMPDEST PUSH32 0x4469646E27742073656E6420656E6F7567680000000000000000000000000000 PUSH1 0x0 DUP3 ADD MSTORE POP JUMP JUMPDEST PUSH1 0x0 PUSH2 0x97B PUSH1 0x12 DUP4 PUSH2 0x8C8 JUMP JUMPDEST SWAP2 POP PUSH2 0x986 DUP3 PUSH2 0x945 JUMP JUMPDEST PUSH1 0x20 DUP3 ADD SWAP1 POP SWAP2 SWAP1 POP JUMP JUMPDEST PUSH1 0x0 PUSH1 0x20 DUP3 ADD SWAP1 POP DUP2 DUP2 SUB PUSH1 0x0 DUP4 ADD MSTORE PUSH2 0x9AA DUP2 PUSH2 0x96E JUMP JUMPDEST SWAP1 POP SWAP2 SWAP1 POP JUMP JUMPDEST PUSH1 0x0 PUSH2 0x9BC DUP3 PUSH2 0x665 JUMP JUMPDEST SWAP2 POP PUSH2 0x9C7 DUP4 PUSH2 0x665 JUMP JUMPDEST SWAP3 POP DUP3 PUSH32 0xFFFFFFFFFFFFFFFFFFFFFFFFFFFFFFFFFFFFFFFFFFFFFFFFFFFFFFFFFFFFFFFF SUB DUP3 GT ISZERO PUSH2 0x9FC JUMPI PUSH2 0x9FB PUSH2 0x7DB JUMP JUMPDEST JUMPDEST DUP3 DUP3 ADD SWAP1 POP SWAP3 SWAP2 POP POP JUMP JUMPDEST PUSH1 0x0 PUSH2 0xA12 DUP3 PUSH2 0x665 JUMP JUMPDEST SWAP2 POP PUSH2 0xA1D DUP4 PUSH2 0x665 JUMP JUMPDEST SWAP3 POP DUP2 PUSH32 0xFFFFFFFFFFFFFFFFFFFFFFFFFFFFFFFFFFFFFFFFFFFFFFFFFFFFFFFFFFFFFFFF DIV DUP4 GT DUP3 ISZERO ISZERO AND ISZERO PUSH2 0xA56 JUMPI PUSH2 0xA55 PUSH2 0x7DB JUMP JUMPDEST JUMPDEST DUP3 DUP3 MUL SWAP1 POP SWAP3 SWAP2 POP POP JUMP JUMPDEST PUSH32 0x4E487B7100000000000000000000000000000000000000000000000000000000 PUSH1 0x0 MSTORE PUSH1 0x12 PUSH1 0x4 MSTORE PUSH1 0x24 PUSH1 0x0 REVERT JUMPDEST PUSH1 0x0 PUSH2 0xA9B DUP3 PUSH2 0x665 JUMP JUMPDEST SWAP2 POP PUSH2 0xAA6 DUP4 PUSH2 0x665 JUMP JUMPDEST SWAP3 POP DUP3 PUSH2 0xAB6 JUMPI PUSH2 0xAB5 PUSH2 0xA61 JUMP JUMPDEST JUMPDEST DUP3 DUP3 DIV SWAP1 POP SWAP3 SWAP2 POP POP JUMP JUMPDEST PUSH1 0x0 PUSH10 0xFFFFFFFFFFFFFFFFFFFF DUP3 AND SWAP1 POP SWAP2 SWAP1 POP JUMP JUMPDEST PUSH2 0xAE0 DUP2 PUSH2 0xAC1 JUMP JUMPDEST DUP2 EQ PUSH2 0xAEB JUMPI PUSH1 0x0 DUP1 REVERT JUMPDEST POP JUMP JUMPDEST PUSH1 0x0 DUP2 MLOAD SWAP1 POP PUSH2 0xAFD DUP2 PUSH2 0xAD7 JUMP JUMPDEST SWAP3 SWAP2 POP POP JUMP JUMPDEST PUSH1 0x0 DUP2 SWAP1 POP SWAP2 SWAP1 POP JUMP JUMPDEST PUSH2 0xB16 DUP2 PUSH2 0xB03 JUMP JUMPDEST DUP2 EQ PUSH2 0xB21 JUMPI PUSH1 0x0 DUP1 REVERT JUMPDEST POP JUMP JUMPDEST PUSH1 0x0 DUP2 MLOAD SWAP1 POP PUSH2 0xB33 DUP2 PUSH2 0xB0D JUMP JUMPDEST SWAP3 SWAP2 POP POP JUMP JUMPDEST PUSH1 0x0 DUP2 MLOAD SWAP1 POP PUSH2 0xB48 DUP2 PUSH2 0x729 JUMP JUMPDEST SWAP3 SWAP2 POP POP JUMP JUMPDEST PUSH1 0x0 DUP1 PUSH1 0x0 DUP1 PUSH1 0x0 PUSH1 0xA0 DUP7 DUP9 SUB SLT ISZERO PUSH2 0xB6A JUMPI PUSH2 0xB69 PUSH2 0x699 JUMP JUMPDEST JUMPDEST PUSH1 0x0 PUSH2 0xB78 DUP9 DUP3 DUP10 ADD PUSH2 0xAEE JUMP JUMPDEST SWAP6 POP POP PUSH1 0x20 PUSH2 0xB89 DUP9 DUP3 DUP10 ADD PUSH2 0xB24 JUMP JUMPDEST SWAP5 POP POP PUSH1 0x40 PUSH2 0xB9A DUP9 DUP3 DUP10 ADD PUSH2 0xB39 JUMP JUMPDEST SWAP4 POP POP PUSH1 0x60 PUSH2 0xBAB DUP9 DUP3 DUP10 ADD PUSH2 0xB39 JUMP JUMPDEST SWAP3 POP POP PUSH1 0x80 PUSH2 0xBBC DUP9 DUP3 DUP10 ADD PUSH2 0xAEE JUMP JUMPDEST SWAP2 POP POP SWAP3 SWAP6 POP SWAP3 SWAP6 SWAP1 SWAP4 POP JUMP JUMPDEST PUSH1 0x0 PUSH1 0xFF DUP3 AND SWAP1 POP SWAP2 SWAP1 POP JUMP JUMPDEST PUSH2 0xBDF DUP2 PUSH2 0xBC9 JUMP JUMPDEST DUP2 EQ PUSH2 0xBEA JUMPI PUSH1 0x0 DUP1 REVERT JUMPDEST POP JUMP JUMPDEST PUSH1 0x0 DUP2 MLOAD SWAP1 POP PUSH2 0xBFC DUP2 PUSH2 0xBD6 JUMP JUMPDEST SWAP3 SWAP2 POP POP JUMP JUMPDEST PUSH1 0x0 PUSH1 0x20 DUP3 DUP5 SUB SLT ISZERO PUSH2 0xC18 JUMPI PUSH2 0xC17 PUSH2 0x699 JUMP JUMPDEST JUMPDEST PUSH1 0x0 PUSH2 0xC26 DUP5 DUP3 DUP6 ADD PUSH2 0xBED JUMP JUMPDEST SWAP2 POP POP SWAP3 SWAP2 POP POP JUMP JUMPDEST PUSH1 0x0 PUSH2 0xC3A DUP3 PUSH2 0xBC9 JUMP JUMPDEST SWAP2 POP PUSH2 0xC45 DUP4 PUSH2 0xBC9 JUMP JUMPDEST SWAP3 POP DUP3 DUP3 LT ISZERO PUSH2 0xC58 JUMPI PUSH2 0xC57 PUSH2 0x7DB JUMP JUMPDEST JUMPDEST DUP3 DUP3 SUB SWAP1 POP SWAP3 SWAP2 POP POP JUMP JUMPDEST PUSH1 0x0 DUP2 PUSH1 0x1 SHR SWAP1 POP SWAP2 SWAP1 POP JUMP JUMPDEST PUSH1 0x0 DUP1 DUP3 SWAP2 POP DUP4 SWAP1 POP JUMPDEST PUSH1 0x1 DUP6 GT ISZERO PUSH2 0xCBA JUMPI DUP1 DUP7 DIV DUP2 GT ISZERO PUSH2 0xC96 JUMPI PUSH2 0xC95 PUSH2 0x7DB JUMP JUMPDEST JUMPDEST PUSH1 0x1 DUP6 AND ISZERO PUSH2 0xCA5 JUMPI DUP1 DUP3 MUL SWAP2 POP JUMPDEST DUP1 DUP2 MUL SWAP1 POP PUSH2 0xCB3 DUP6 PUSH2 0xC63 JUMP JUMPDEST SWAP5 POP PUSH2 0xC7A JUMP JUMPDEST SWAP5 POP SWAP5 SWAP3 POP POP POP JUMP JUMPDEST PUSH1 0x0 DUP3 PUSH2 0xCD3 JUMPI PUSH1 0x1 SWAP1 POP PUSH2 0xD8F JUMP JUMPDEST DUP2 PUSH2 0xCE1 JUMPI PUSH1 0x0 SWAP1 POP PUSH2 0xD8F JUMP JUMPDEST DUP2 PUSH1 0x1 DUP2 EQ PUSH2 0xCF7 JUMPI PUSH1 0x2 DUP2 EQ PUSH2 0xD01 JUMPI PUSH2 0xD30 JUMP JUMPDEST PUSH1 0x1 SWAP2 POP POP PUSH2 0xD8F JUMP JUMPDEST PUSH1 0xFF DUP5 GT ISZERO PUSH2 0xD13 JUMPI PUSH2 0xD12 PUSH2 0x7DB JUMP JUMPDEST JUMPDEST DUP4 PUSH1 0x2 EXP SWAP2 POP DUP5 DUP3 GT ISZERO PUSH2 0xD2A JUMPI PUSH2 0xD29 PUSH2 0x7DB JUMP JUMPDEST JUMPDEST POP PUSH2 0xD8F JUMP JUMPDEST POP PUSH1 0x20 DUP4 LT PUSH2 0x133 DUP4 LT AND PUSH1 0x4E DUP5 LT PUSH1 0xB DUP5 LT AND OR ISZERO PUSH2 0xD65 JUMPI DUP3 DUP3 EXP SWAP1 POP DUP4 DUP2 GT ISZERO PUSH2 0xD60 JUMPI PUSH2 0xD5F PUSH2 0x7DB JUMP JUMPDEST JUMPDEST PUSH2 0xD8F JUMP JUMPDEST PUSH2 0xD72 DUP5 DUP5 DUP5 PUSH1 0x1 PUSH2 0xC70 JUMP JUMPDEST SWAP3 POP SWAP1 POP DUP2 DUP5 DIV DUP2 GT ISZERO PUSH2 0xD89 JUMPI PUSH2 0xD88 PUSH2 0x7DB JUMP JUMPDEST JUMPDEST DUP2 DUP2 MUL SWAP1 POP JUMPDEST SWAP4 SWAP3 POP POP POP JUMP JUMPDEST PUSH1 0x0 PUSH2 0xDA1 DUP3 PUSH2 0x665 JUMP JUMPDEST SWAP2 POP PUSH2 0xDAC DUP4 PUSH2 0xBC9 JUMP JUMPDEST SWAP3 POP PUSH2 0xDD9 PUSH32 0xFFFFFFFFFFFFFFFFFFFFFFFFFFFFFFFFFFFFFFFFFFFFFFFFFFFFFFFFFFFFFFFF DUP5 DUP5 PUSH2 0xCC3 JUMP JUMPDEST SWAP1 POP SWAP3 SWAP2 POP POP JUMP INVALID LOG2 PUSH5 0x6970667358 0x22 SLT KECCAK256 0xA5 PUSH7 0x3BA72CF95878F4 0xE3 STOP ISZERO MSTORE 0xBF SSTORE 0xD3 SWAP5 0x4C EXTCODEHASH PUSH25 0xFDBB3F932516EBFB67165AA364736F6C634300080800330000 "
				},
				"gasEstimates": {
					"creation": {
						"codeDepositCost": "721400",
						"executionCost": "22859",
						"totalCost": "744259"
					},
					"external": {
						"addressToAmountFunded(address)": "2836",
						"fund()": "infinite",
						"funders(uint256)": "5022",
						"minimumUsd()": "2407",
						"withdraw()": "infinite"
					}
				},
				"methodIdentifiers": {
					"addressToAmountFunded(address)": "3e47d6f3",
					"fund()": "b60d4288",
					"funders(uint256)": "dc0d3dff",
					"minimumUsd()": "098de820",
					"withdraw()": "3ccfd60b"
				}
			},
			"storageLayout": {
				"storage": [
					{
						"astId": 56,
						"contract": "FundMe/Lesson04/FundMe.sol:FUndMe",
						"label": "minimumUsd",
						"offset": 0,
						"slot": "0",
						"type": "t_uint256"
					},
					{
						"astId": 59,
						"contract": "FundMe/Lesson04/FundMe.sol:FUndMe",
						"label": "funders",
						"offset": 0,
						"slot": "1",
						"type": "t_array(t_address)dyn_storage"
					},
					{
						"astId": 63,
						"contract": "FundMe/Lesson04/FundMe.sol:FUndMe",
						"label": "addressToAmountFunded",
						"offset": 0,
						"slot": "2",
						"type": "t_mapping(t_address,t_uint256)"
					}
				],
				"types": {
					"t_address": {
						"encoding": "inplace",
						"label": "address",
						"numberOfBytes": "20"
					},
					"t_array(t_address)dyn_storage": {
						"base": "t_address",
						"encoding": "dynamic_array",
						"label": "address[]",
						"numberOfBytes": "32"
					},
					"t_mapping(t_address,t_uint256)": {
						"encoding": "mapping",
						"key": "t_address",
						"label": "mapping(address => uint256)",
						"numberOfBytes": "32",
						"value": "t_uint256"
					},
					"t_uint256": {
						"encoding": "inplace",
						"label": "uint256",
						"numberOfBytes": "32"
					}
				}
			},
			"userdoc": {
				"kind": "user",
				"methods": {},
				"version": 1
			}
		}
	}
}