{
	"FundMe/Lesson04/FundMe.sol": {
		"FUndMe": {
			"abi": [
				{
					"inputs": [],
					"name": "fund",
					"outputs": [],
					"stateMutability": "payable",
					"type": "function"
				},
				{
					"inputs": [
						{
							"internalType": "uint256",
							"name": "ethAmount",
							"type": "uint256"
						}
					],
					"name": "getConversionRate",
					"outputs": [
						{
							"internalType": "uint256",
							"name": "",
							"type": "uint256"
						}
					],
					"stateMutability": "view",
					"type": "function"
				},
				{
					"inputs": [],
					"name": "getPrice",
					"outputs": [
						{
							"internalType": "uint256",
							"name": "",
							"type": "uint256"
						}
					],
					"stateMutability": "view",
					"type": "function"
				},
				{
					"inputs": [],
					"name": "getVersion",
					"outputs": [
						{
							"internalType": "uint256",
							"name": "",
							"type": "uint256"
						}
					],
					"stateMutability": "view",
					"type": "function"
				},
				{
					"inputs": [],
					"name": "minimumUsd",
					"outputs": [
						{
							"internalType": "uint256",
							"name": "",
							"type": "uint256"
						}
					],
					"stateMutability": "view",
					"type": "function"
				}
			],
			"devdoc": {
				"kind": "dev",
				"methods": {},
				"version": 1
			},
			"evm": {
				"assembly": "    /* \"FundMe/Lesson04/FundMe.sol\":254:1758  contract FUndMe {... */\n  mstore(0x40, 0x80)\n    /* \"FundMe/Lesson04/FundMe.sol\":372:381  50 * 1e18 */\n  0x02b5e3af16b1880000\n    /* \"FundMe/Lesson04/FundMe.sol\":344:381  uint256 public minimumUsd = 50 * 1e18 */\n  0x00\n  sstore\n    /* \"FundMe/Lesson04/FundMe.sol\":254:1758  contract FUndMe {... */\n  callvalue\n  dup1\n  iszero\n  tag_1\n  jumpi\n  revert(0x00, 0x00)\ntag_1:\n  pop\n  dataSize(sub_0)\n  dup1\n  dataOffset(sub_0)\n  0x00\n  codecopy\n  0x00\n  return\nstop\n\nsub_0: assembly {\n        /* \"FundMe/Lesson04/FundMe.sol\":254:1758  contract FUndMe {... */\n      mstore(0x40, 0x80)\n      jumpi(tag_1, lt(calldatasize, 0x04))\n      shr(0xe0, calldataload(0x00))\n      dup1\n      0x098de820\n      eq\n      tag_2\n      jumpi\n      dup1\n      0x0d8e6e2c\n      eq\n      tag_3\n      jumpi\n      dup1\n      0x6e5b6b28\n      eq\n      tag_4\n      jumpi\n      dup1\n      0x98d5fdca\n      eq\n      tag_5\n      jumpi\n      dup1\n      0xb60d4288\n      eq\n      tag_6\n      jumpi\n    tag_1:\n      revert(0x00, 0x00)\n        /* \"FundMe/Lesson04/FundMe.sol\":344:381  uint256 public minimumUsd = 50 * 1e18 */\n    tag_2:\n      callvalue\n      dup1\n      iszero\n      tag_7\n      jumpi\n      revert(0x00, 0x00)\n    tag_7:\n      pop\n      tag_8\n      tag_9\n      jump\t// in\n    tag_8:\n      mload(0x40)\n      tag_10\n      swap2\n      swap1\n      tag_11\n      jump\t// in\n    tag_10:\n      mload(0x40)\n      dup1\n      swap2\n      sub\n      swap1\n      return\n        /* \"FundMe/Lesson04/FundMe.sol\":948:1174  function getVersion() public view returns (uint256) {... */\n    tag_3:\n      callvalue\n      dup1\n      iszero\n      tag_12\n      jumpi\n      revert(0x00, 0x00)\n    tag_12:\n      pop\n      tag_13\n      tag_14\n      jump\t// in\n    tag_13:\n      mload(0x40)\n      tag_15\n      swap2\n      swap1\n      tag_11\n      jump\t// in\n    tag_15:\n      mload(0x40)\n      dup1\n      swap2\n      sub\n      swap1\n      return\n        /* \"FundMe/Lesson04/FundMe.sol\":1228:1726  function getConversionRate(uint256 ethAmount)... */\n    tag_4:\n      callvalue\n      dup1\n      iszero\n      tag_16\n      jumpi\n      revert(0x00, 0x00)\n    tag_16:\n      pop\n      tag_17\n      0x04\n      dup1\n      calldatasize\n      sub\n      dup2\n      add\n      swap1\n      tag_18\n      swap2\n      swap1\n      tag_19\n      jump\t// in\n    tag_18:\n      tag_20\n      jump\t// in\n    tag_17:\n      mload(0x40)\n      tag_21\n      swap2\n      swap1\n      tag_11\n      jump\t// in\n    tag_21:\n      mload(0x40)\n      dup1\n      swap2\n      sub\n      swap1\n      return\n        /* \"FundMe/Lesson04/FundMe.sol\":560:942  function getPrice() public view returns (uint256) {... */\n    tag_5:\n      callvalue\n      dup1\n      iszero\n      tag_22\n      jumpi\n      revert(0x00, 0x00)\n    tag_22:\n      pop\n      tag_23\n      tag_24\n      jump\t// in\n    tag_23:\n      mload(0x40)\n      tag_25\n      swap2\n      swap1\n      tag_11\n      jump\t// in\n    tag_25:\n      mload(0x40)\n      dup1\n      swap2\n      sub\n      swap1\n      return\n        /* \"FundMe/Lesson04/FundMe.sol\":388:554  function fund() public payable {... */\n    tag_6:\n      tag_26\n      tag_27\n      jump\t// in\n    tag_26:\n      stop\n        /* \"FundMe/Lesson04/FundMe.sol\":344:381  uint256 public minimumUsd = 50 * 1e18 */\n    tag_9:\n      sload(0x00)\n      dup2\n      jump\t// out\n        /* \"FundMe/Lesson04/FundMe.sol\":948:1174  function getVersion() public view returns (uint256) {... */\n    tag_14:\n        /* \"FundMe/Lesson04/FundMe.sol\":991:998  uint256 */\n      0x00\n        /* \"FundMe/Lesson04/FundMe.sol\":1010:1041  AggregatorV3Interface priceFeed */\n      0x00\n        /* \"FundMe/Lesson04/FundMe.sol\":1079:1121  0x694AA1769357215DE4FAC081bf1f309aDC325306 */\n      0x694aa1769357215de4fac081bf1f309adc325306\n        /* \"FundMe/Lesson04/FundMe.sol\":1010:1131  AggregatorV3Interface priceFeed = AggregatorV3Interface(... */\n      swap1\n      pop\n        /* \"FundMe/Lesson04/FundMe.sol\":1148:1157  priceFeed */\n      dup1\n        /* \"FundMe/Lesson04/FundMe.sol\":1148:1165  priceFeed.version */\n      0xffffffffffffffffffffffffffffffffffffffff\n      and\n      0x54fd4d50\n        /* \"FundMe/Lesson04/FundMe.sol\":1148:1167  priceFeed.version() */\n      mload(0x40)\n      dup2\n      0xffffffff\n      and\n      0xe0\n      shl\n      dup2\n      mstore\n      0x04\n      add\n      0x20\n      mload(0x40)\n      dup1\n      dup4\n      sub\n      dup2\n      dup7\n      gas\n      staticcall\n      iszero\n      dup1\n      iszero\n      tag_30\n      jumpi\n      returndatacopy(0x00, 0x00, returndatasize)\n      revert(0x00, returndatasize)\n    tag_30:\n      pop\n      pop\n      pop\n      pop\n      mload(0x40)\n      returndatasize\n      not(0x1f)\n      0x1f\n      dup3\n      add\n      and\n      dup3\n      add\n      dup1\n      0x40\n      mstore\n      pop\n      dup2\n      add\n      swap1\n      tag_31\n      swap2\n      swap1\n      tag_32\n      jump\t// in\n    tag_31:\n        /* \"FundMe/Lesson04/FundMe.sol\":1141:1167  return priceFeed.version() */\n      swap2\n      pop\n      pop\n        /* \"FundMe/Lesson04/FundMe.sol\":948:1174  function getVersion() public view returns (uint256) {... */\n      swap1\n      jump\t// out\n        /* \"FundMe/Lesson04/FundMe.sol\":1228:1726  function getConversionRate(uint256 ethAmount)... */\n    tag_20:\n        /* \"FundMe/Lesson04/FundMe.sol\":1319:1326  uint256 */\n      0x00\n        /* \"FundMe/Lesson04/FundMe.sol\":1342:1358  uint256 ethPrice */\n      0x00\n        /* \"FundMe/Lesson04/FundMe.sol\":1361:1371  getPrice() */\n      tag_34\n        /* \"FundMe/Lesson04/FundMe.sol\":1361:1369  getPrice */\n      tag_24\n        /* \"FundMe/Lesson04/FundMe.sol\":1361:1371  getPrice() */\n      jump\t// in\n    tag_34:\n        /* \"FundMe/Lesson04/FundMe.sol\":1342:1371  uint256 ethPrice = getPrice() */\n      swap1\n      pop\n        /* \"FundMe/Lesson04/FundMe.sol\":1381:1403  uint256 ethAmountInUsd */\n      0x00\n        /* \"FundMe/Lesson04/FundMe.sol\":1431:1435  1e18 */\n      0x0de0b6b3a7640000\n        /* \"FundMe/Lesson04/FundMe.sol\":1418:1427  ethAmount */\n      dup5\n        /* \"FundMe/Lesson04/FundMe.sol\":1407:1415  ethPrice */\n      dup4\n        /* \"FundMe/Lesson04/FundMe.sol\":1407:1427  ethPrice * ethAmount */\n      tag_35\n      swap2\n      swap1\n      tag_36\n      jump\t// in\n    tag_35:\n        /* \"FundMe/Lesson04/FundMe.sol\":1406:1435  (ethPrice * ethAmount) / 1e18 */\n      tag_37\n      swap2\n      swap1\n      tag_38\n      jump\t// in\n    tag_37:\n        /* \"FundMe/Lesson04/FundMe.sol\":1381:1435  uint256 ethAmountInUsd = (ethPrice * ethAmount) / 1e18 */\n      swap1\n      pop\n        /* \"FundMe/Lesson04/FundMe.sol\":1484:1498  ethAmountInUsd */\n      dup1\n        /* \"FundMe/Lesson04/FundMe.sol\":1477:1498  return ethAmountInUsd */\n      swap3\n      pop\n      pop\n      pop\n        /* \"FundMe/Lesson04/FundMe.sol\":1228:1726  function getConversionRate(uint256 ethAmount)... */\n      swap2\n      swap1\n      pop\n      jump\t// out\n        /* \"FundMe/Lesson04/FundMe.sol\":560:942  function getPrice() public view returns (uint256) {... */\n    tag_24:\n        /* \"FundMe/Lesson04/FundMe.sol\":601:608  uint256 */\n      0x00\n        /* \"FundMe/Lesson04/FundMe.sol\":649:680  AggregatorV3Interface priceFeed */\n      0x00\n        /* \"FundMe/Lesson04/FundMe.sol\":718:760  0x694AA1769357215DE4FAC081bf1f309aDC325306 */\n      0x694aa1769357215de4fac081bf1f309adc325306\n        /* \"FundMe/Lesson04/FundMe.sol\":649:770  AggregatorV3Interface priceFeed = AggregatorV3Interface(... */\n      swap1\n      pop\n        /* \"FundMe/Lesson04/FundMe.sol\":783:796  int256 answer */\n      0x00\n        /* \"FundMe/Lesson04/FundMe.sol\":806:815  priceFeed */\n      dup2\n        /* \"FundMe/Lesson04/FundMe.sol\":806:831  priceFeed.latestRoundData */\n      0xffffffffffffffffffffffffffffffffffffffff\n      and\n      0xfeaf968c\n        /* \"FundMe/Lesson04/FundMe.sol\":806:833  priceFeed.latestRoundData() */\n      mload(0x40)\n      dup2\n      0xffffffff\n      and\n      0xe0\n      shl\n      dup2\n      mstore\n      0x04\n      add\n      0xa0\n      mload(0x40)\n      dup1\n      dup4\n      sub\n      dup2\n      dup7\n      gas\n      staticcall\n      iszero\n      dup1\n      iszero\n      tag_41\n      jumpi\n      returndatacopy(0x00, 0x00, returndatasize)\n      revert(0x00, returndatasize)\n    tag_41:\n      pop\n      pop\n      pop\n      pop\n      mload(0x40)\n      returndatasize\n      not(0x1f)\n      0x1f\n      dup3\n      add\n      and\n      dup3\n      add\n      dup1\n      0x40\n      mstore\n      pop\n      dup2\n      add\n      swap1\n      tag_42\n      swap2\n      swap1\n      tag_43\n      jump\t// in\n    tag_42:\n        /* \"FundMe/Lesson04/FundMe.sol\":780:833  (, int256 answer, , , ) = priceFeed.latestRoundData() */\n      pop\n      pop\n      pop\n      swap2\n      pop\n      pop\n        /* \"FundMe/Lesson04/FundMe.sol\":844:858  uint8 weiPower */\n      0x00\n        /* \"FundMe/Lesson04/FundMe.sol\":861:863  18 */\n      0x12\n        /* \"FundMe/Lesson04/FundMe.sol\":844:863  uint8 weiPower = 18 */\n      swap1\n      pop\n        /* \"FundMe/Lesson04/FundMe.sol\":914:923  priceFeed */\n      dup3\n        /* \"FundMe/Lesson04/FundMe.sol\":914:932  priceFeed.decimals */\n      0xffffffffffffffffffffffffffffffffffffffff\n      and\n      0x313ce567\n        /* \"FundMe/Lesson04/FundMe.sol\":914:934  priceFeed.decimals() */\n      mload(0x40)\n      dup2\n      0xffffffff\n      and\n      0xe0\n      shl\n      dup2\n      mstore\n      0x04\n      add\n      0x20\n      mload(0x40)\n      dup1\n      dup4\n      sub\n      dup2\n      dup7\n      gas\n      staticcall\n      iszero\n      dup1\n      iszero\n      tag_45\n      jumpi\n      returndatacopy(0x00, 0x00, returndatasize)\n      revert(0x00, returndatasize)\n    tag_45:\n      pop\n      pop\n      pop\n      pop\n      mload(0x40)\n      returndatasize\n      not(0x1f)\n      0x1f\n      dup3\n      add\n      and\n      dup3\n      add\n      dup1\n      0x40\n      mstore\n      pop\n      dup2\n      add\n      swap1\n      tag_46\n      swap2\n      swap1\n      tag_47\n      jump\t// in\n    tag_46:\n        /* \"FundMe/Lesson04/FundMe.sol\":903:911  weiPower */\n      dup2\n        /* \"FundMe/Lesson04/FundMe.sol\":903:934  weiPower - priceFeed.decimals() */\n      tag_48\n      swap2\n      swap1\n      tag_49\n      jump\t// in\n    tag_48:\n        /* \"FundMe/Lesson04/FundMe.sol\":898:900  10 */\n      0x0a\n        /* \"FundMe/Lesson04/FundMe.sol\":898:935  10**(weiPower - priceFeed.decimals()) */\n      tag_50\n      swap2\n      swap1\n      tag_51\n      jump\t// in\n    tag_50:\n        /* \"FundMe/Lesson04/FundMe.sol\":888:894  answer */\n      dup3\n        /* \"FundMe/Lesson04/FundMe.sol\":880:935  uint256(answer) * 10**(weiPower - priceFeed.decimals()) */\n      tag_52\n      swap2\n      swap1\n      tag_36\n      jump\t// in\n    tag_52:\n        /* \"FundMe/Lesson04/FundMe.sol\":873:935  return uint256(answer) * 10**(weiPower - priceFeed.decimals()) */\n      swap4\n      pop\n      pop\n      pop\n      pop\n        /* \"FundMe/Lesson04/FundMe.sol\":560:942  function getPrice() public view returns (uint256) {... */\n      swap1\n      jump\t// out\n        /* \"FundMe/Lesson04/FundMe.sol\":388:554  function fund() public payable {... */\n    tag_27:\n        /* \"FundMe/Lesson04/FundMe.sol\":493:503  minimumUsd */\n      sload(0x00)\n        /* \"FundMe/Lesson04/FundMe.sol\":450:489  getConversionRate(msg.value /*in wei*/) */\n      tag_54\n        /* \"FundMe/Lesson04/FundMe.sol\":468:477  msg.value */\n      callvalue\n        /* \"FundMe/Lesson04/FundMe.sol\":450:467  getConversionRate */\n      tag_20\n        /* \"FundMe/Lesson04/FundMe.sol\":450:489  getConversionRate(msg.value /*in wei*/) */\n      jump\t// in\n    tag_54:\n        /* \"FundMe/Lesson04/FundMe.sol\":450:503  getConversionRate(msg.value /*in wei*/) >= minimumUsd */\n      lt\n      iszero\n        /* \"FundMe/Lesson04/FundMe.sol\":429:547  require(... */\n      tag_55\n      jumpi\n      mload(0x40)\n      0x08c379a000000000000000000000000000000000000000000000000000000000\n      dup2\n      mstore\n      0x04\n      add\n      tag_56\n      swap1\n      tag_57\n      jump\t// in\n    tag_56:\n      mload(0x40)\n      dup1\n      swap2\n      sub\n      swap1\n      revert\n    tag_55:\n        /* \"FundMe/Lesson04/FundMe.sol\":388:554  function fund() public payable {... */\n      jump\t// out\n        /* \"#utility.yul\":7:84   */\n    tag_58:\n        /* \"#utility.yul\":44:51   */\n      0x00\n        /* \"#utility.yul\":73:78   */\n      dup2\n        /* \"#utility.yul\":62:78   */\n      swap1\n      pop\n        /* \"#utility.yul\":7:84   */\n      swap2\n      swap1\n      pop\n      jump\t// out\n        /* \"#utility.yul\":90:208   */\n    tag_59:\n        /* \"#utility.yul\":177:201   */\n      tag_86\n        /* \"#utility.yul\":195:200   */\n      dup2\n        /* \"#utility.yul\":177:201   */\n      tag_58\n      jump\t// in\n    tag_86:\n        /* \"#utility.yul\":172:175   */\n      dup3\n        /* \"#utility.yul\":165:202   */\n      mstore\n        /* \"#utility.yul\":90:208   */\n      pop\n      pop\n      jump\t// out\n        /* \"#utility.yul\":214:436   */\n    tag_11:\n        /* \"#utility.yul\":307:311   */\n      0x00\n        /* \"#utility.yul\":345:347   */\n      0x20\n        /* \"#utility.yul\":334:343   */\n      dup3\n        /* \"#utility.yul\":330:348   */\n      add\n        /* \"#utility.yul\":322:348   */\n      swap1\n      pop\n        /* \"#utility.yul\":358:429   */\n      tag_88\n        /* \"#utility.yul\":426:427   */\n      0x00\n        /* \"#utility.yul\":415:424   */\n      dup4\n        /* \"#utility.yul\":411:428   */\n      add\n        /* \"#utility.yul\":402:408   */\n      dup5\n        /* \"#utility.yul\":358:429   */\n      tag_59\n      jump\t// in\n    tag_88:\n        /* \"#utility.yul\":214:436   */\n      swap3\n      swap2\n      pop\n      pop\n      jump\t// out\n        /* \"#utility.yul\":523:640   */\n    tag_61:\n        /* \"#utility.yul\":632:633   */\n      0x00\n        /* \"#utility.yul\":629:630   */\n      0x00\n        /* \"#utility.yul\":622:634   */\n      revert\n        /* \"#utility.yul\":769:891   */\n    tag_63:\n        /* \"#utility.yul\":842:866   */\n      tag_93\n        /* \"#utility.yul\":860:865   */\n      dup2\n        /* \"#utility.yul\":842:866   */\n      tag_58\n      jump\t// in\n    tag_93:\n        /* \"#utility.yul\":835:840   */\n      dup2\n        /* \"#utility.yul\":832:867   */\n      eq\n        /* \"#utility.yul\":822:885   */\n      tag_94\n      jumpi\n        /* \"#utility.yul\":881:882   */\n      0x00\n        /* \"#utility.yul\":878:879   */\n      0x00\n        /* \"#utility.yul\":871:883   */\n      revert\n        /* \"#utility.yul\":822:885   */\n    tag_94:\n        /* \"#utility.yul\":769:891   */\n      pop\n      jump\t// out\n        /* \"#utility.yul\":897:1036   */\n    tag_64:\n        /* \"#utility.yul\":943:948   */\n      0x00\n        /* \"#utility.yul\":981:987   */\n      dup2\n        /* \"#utility.yul\":968:988   */\n      calldataload\n        /* \"#utility.yul\":959:988   */\n      swap1\n      pop\n        /* \"#utility.yul\":997:1030   */\n      tag_96\n        /* \"#utility.yul\":1024:1029   */\n      dup2\n        /* \"#utility.yul\":997:1030   */\n      tag_63\n      jump\t// in\n    tag_96:\n        /* \"#utility.yul\":897:1036   */\n      swap3\n      swap2\n      pop\n      pop\n      jump\t// out\n        /* \"#utility.yul\":1042:1371   */\n    tag_19:\n        /* \"#utility.yul\":1101:1107   */\n      0x00\n        /* \"#utility.yul\":1150:1152   */\n      0x20\n        /* \"#utility.yul\":1138:1147   */\n      dup3\n        /* \"#utility.yul\":1129:1136   */\n      dup5\n        /* \"#utility.yul\":1125:1148   */\n      sub\n        /* \"#utility.yul\":1121:1153   */\n      slt\n        /* \"#utility.yul\":1118:1237   */\n      iszero\n      tag_98\n      jumpi\n        /* \"#utility.yul\":1156:1235   */\n      tag_99\n      tag_61\n      jump\t// in\n    tag_99:\n        /* \"#utility.yul\":1118:1237   */\n    tag_98:\n        /* \"#utility.yul\":1276:1277   */\n      0x00\n        /* \"#utility.yul\":1301:1354   */\n      tag_100\n        /* \"#utility.yul\":1346:1353   */\n      dup5\n        /* \"#utility.yul\":1337:1343   */\n      dup3\n        /* \"#utility.yul\":1326:1335   */\n      dup6\n        /* \"#utility.yul\":1322:1344   */\n      add\n        /* \"#utility.yul\":1301:1354   */\n      tag_64\n      jump\t// in\n    tag_100:\n        /* \"#utility.yul\":1291:1354   */\n      swap2\n      pop\n        /* \"#utility.yul\":1247:1364   */\n      pop\n        /* \"#utility.yul\":1042:1371   */\n      swap3\n      swap2\n      pop\n      pop\n      jump\t// out\n        /* \"#utility.yul\":1377:1520   */\n    tag_65:\n        /* \"#utility.yul\":1434:1439   */\n      0x00\n        /* \"#utility.yul\":1465:1471   */\n      dup2\n        /* \"#utility.yul\":1459:1472   */\n      mload\n        /* \"#utility.yul\":1450:1472   */\n      swap1\n      pop\n        /* \"#utility.yul\":1481:1514   */\n      tag_102\n        /* \"#utility.yul\":1508:1513   */\n      dup2\n        /* \"#utility.yul\":1481:1514   */\n      tag_63\n      jump\t// in\n    tag_102:\n        /* \"#utility.yul\":1377:1520   */\n      swap3\n      swap2\n      pop\n      pop\n      jump\t// out\n        /* \"#utility.yul\":1526:1877   */\n    tag_32:\n        /* \"#utility.yul\":1596:1602   */\n      0x00\n        /* \"#utility.yul\":1645:1647   */\n      0x20\n        /* \"#utility.yul\":1633:1642   */\n      dup3\n        /* \"#utility.yul\":1624:1631   */\n      dup5\n        /* \"#utility.yul\":1620:1643   */\n      sub\n        /* \"#utility.yul\":1616:1648   */\n      slt\n        /* \"#utility.yul\":1613:1732   */\n      iszero\n      tag_104\n      jumpi\n        /* \"#utility.yul\":1651:1730   */\n      tag_105\n      tag_61\n      jump\t// in\n    tag_105:\n        /* \"#utility.yul\":1613:1732   */\n    tag_104:\n        /* \"#utility.yul\":1771:1772   */\n      0x00\n        /* \"#utility.yul\":1796:1860   */\n      tag_106\n        /* \"#utility.yul\":1852:1859   */\n      dup5\n        /* \"#utility.yul\":1843:1849   */\n      dup3\n        /* \"#utility.yul\":1832:1841   */\n      dup6\n        /* \"#utility.yul\":1828:1850   */\n      add\n        /* \"#utility.yul\":1796:1860   */\n      tag_65\n      jump\t// in\n    tag_106:\n        /* \"#utility.yul\":1786:1860   */\n      swap2\n      pop\n        /* \"#utility.yul\":1742:1870   */\n      pop\n        /* \"#utility.yul\":1526:1877   */\n      swap3\n      swap2\n      pop\n      pop\n      jump\t// out\n        /* \"#utility.yul\":1883:2063   */\n    tag_66:\n        /* \"#utility.yul\":1931:2008   */\n      0x4e487b7100000000000000000000000000000000000000000000000000000000\n        /* \"#utility.yul\":1928:1929   */\n      0x00\n        /* \"#utility.yul\":1921:2009   */\n      mstore\n        /* \"#utility.yul\":2028:2032   */\n      0x11\n        /* \"#utility.yul\":2025:2026   */\n      0x04\n        /* \"#utility.yul\":2018:2033   */\n      mstore\n        /* \"#utility.yul\":2052:2056   */\n      0x24\n        /* \"#utility.yul\":2049:2050   */\n      0x00\n        /* \"#utility.yul\":2042:2057   */\n      revert\n        /* \"#utility.yul\":2069:2479   */\n    tag_36:\n        /* \"#utility.yul\":2109:2116   */\n      0x00\n        /* \"#utility.yul\":2132:2152   */\n      tag_109\n        /* \"#utility.yul\":2150:2151   */\n      dup3\n        /* \"#utility.yul\":2132:2152   */\n      tag_58\n      jump\t// in\n    tag_109:\n        /* \"#utility.yul\":2127:2152   */\n      swap2\n      pop\n        /* \"#utility.yul\":2166:2186   */\n      tag_110\n        /* \"#utility.yul\":2184:2185   */\n      dup4\n        /* \"#utility.yul\":2166:2186   */\n      tag_58\n      jump\t// in\n    tag_110:\n        /* \"#utility.yul\":2161:2186   */\n      swap3\n      pop\n        /* \"#utility.yul\":2221:2222   */\n      dup3\n        /* \"#utility.yul\":2218:2219   */\n      dup3\n        /* \"#utility.yul\":2214:2223   */\n      mul\n        /* \"#utility.yul\":2243:2273   */\n      tag_111\n        /* \"#utility.yul\":2261:2272   */\n      dup2\n        /* \"#utility.yul\":2243:2273   */\n      tag_58\n      jump\t// in\n    tag_111:\n        /* \"#utility.yul\":2232:2273   */\n      swap2\n      pop\n        /* \"#utility.yul\":2422:2423   */\n      dup3\n        /* \"#utility.yul\":2413:2420   */\n      dup3\n        /* \"#utility.yul\":2409:2424   */\n      div\n        /* \"#utility.yul\":2406:2407   */\n      dup5\n        /* \"#utility.yul\":2403:2425   */\n      eq\n        /* \"#utility.yul\":2383:2384   */\n      dup4\n        /* \"#utility.yul\":2376:2385   */\n      iszero\n        /* \"#utility.yul\":2356:2439   */\n      or\n        /* \"#utility.yul\":2333:2472   */\n      tag_112\n      jumpi\n        /* \"#utility.yul\":2452:2470   */\n      tag_113\n      tag_66\n      jump\t// in\n    tag_113:\n        /* \"#utility.yul\":2333:2472   */\n    tag_112:\n        /* \"#utility.yul\":2117:2479   */\n      pop\n        /* \"#utility.yul\":2069:2479   */\n      swap3\n      swap2\n      pop\n      pop\n      jump\t// out\n        /* \"#utility.yul\":2485:2665   */\n    tag_67:\n        /* \"#utility.yul\":2533:2610   */\n      0x4e487b7100000000000000000000000000000000000000000000000000000000\n        /* \"#utility.yul\":2530:2531   */\n      0x00\n        /* \"#utility.yul\":2523:2611   */\n      mstore\n        /* \"#utility.yul\":2630:2634   */\n      0x12\n        /* \"#utility.yul\":2627:2628   */\n      0x04\n        /* \"#utility.yul\":2620:2635   */\n      mstore\n        /* \"#utility.yul\":2654:2658   */\n      0x24\n        /* \"#utility.yul\":2651:2652   */\n      0x00\n        /* \"#utility.yul\":2644:2659   */\n      revert\n        /* \"#utility.yul\":2671:2856   */\n    tag_38:\n        /* \"#utility.yul\":2711:2712   */\n      0x00\n        /* \"#utility.yul\":2728:2748   */\n      tag_116\n        /* \"#utility.yul\":2746:2747   */\n      dup3\n        /* \"#utility.yul\":2728:2748   */\n      tag_58\n      jump\t// in\n    tag_116:\n        /* \"#utility.yul\":2723:2748   */\n      swap2\n      pop\n        /* \"#utility.yul\":2762:2782   */\n      tag_117\n        /* \"#utility.yul\":2780:2781   */\n      dup4\n        /* \"#utility.yul\":2762:2782   */\n      tag_58\n      jump\t// in\n    tag_117:\n        /* \"#utility.yul\":2757:2782   */\n      swap3\n      pop\n        /* \"#utility.yul\":2801:2802   */\n      dup3\n        /* \"#utility.yul\":2791:2826   */\n      tag_118\n      jumpi\n        /* \"#utility.yul\":2806:2824   */\n      tag_119\n      tag_67\n      jump\t// in\n    tag_119:\n        /* \"#utility.yul\":2791:2826   */\n    tag_118:\n        /* \"#utility.yul\":2848:2849   */\n      dup3\n        /* \"#utility.yul\":2845:2846   */\n      dup3\n        /* \"#utility.yul\":2841:2850   */\n      div\n        /* \"#utility.yul\":2836:2850   */\n      swap1\n      pop\n        /* \"#utility.yul\":2671:2856   */\n      swap3\n      swap2\n      pop\n      pop\n      jump\t// out\n        /* \"#utility.yul\":2862:2967   */\n    tag_68:\n        /* \"#utility.yul\":2898:2905   */\n      0x00\n        /* \"#utility.yul\":2938:2960   */\n      0xffffffffffffffffffff\n        /* \"#utility.yul\":2931:2936   */\n      dup3\n        /* \"#utility.yul\":2927:2961   */\n      and\n        /* \"#utility.yul\":2916:2961   */\n      swap1\n      pop\n        /* \"#utility.yul\":2862:2967   */\n      swap2\n      swap1\n      pop\n      jump\t// out\n        /* \"#utility.yul\":2973:3093   */\n    tag_69:\n        /* \"#utility.yul\":3045:3068   */\n      tag_122\n        /* \"#utility.yul\":3062:3067   */\n      dup2\n        /* \"#utility.yul\":3045:3068   */\n      tag_68\n      jump\t// in\n    tag_122:\n        /* \"#utility.yul\":3038:3043   */\n      dup2\n        /* \"#utility.yul\":3035:3069   */\n      eq\n        /* \"#utility.yul\":3025:3087   */\n      tag_123\n      jumpi\n        /* \"#utility.yul\":3083:3084   */\n      0x00\n        /* \"#utility.yul\":3080:3081   */\n      0x00\n        /* \"#utility.yul\":3073:3085   */\n      revert\n        /* \"#utility.yul\":3025:3087   */\n    tag_123:\n        /* \"#utility.yul\":2973:3093   */\n      pop\n      jump\t// out\n        /* \"#utility.yul\":3099:3240   */\n    tag_70:\n        /* \"#utility.yul\":3155:3160   */\n      0x00\n        /* \"#utility.yul\":3186:3192   */\n      dup2\n        /* \"#utility.yul\":3180:3193   */\n      mload\n        /* \"#utility.yul\":3171:3193   */\n      swap1\n      pop\n        /* \"#utility.yul\":3202:3234   */\n      tag_125\n        /* \"#utility.yul\":3228:3233   */\n      dup2\n        /* \"#utility.yul\":3202:3234   */\n      tag_69\n      jump\t// in\n    tag_125:\n        /* \"#utility.yul\":3099:3240   */\n      swap3\n      swap2\n      pop\n      pop\n      jump\t// out\n        /* \"#utility.yul\":3246:3322   */\n    tag_71:\n        /* \"#utility.yul\":3282:3289   */\n      0x00\n        /* \"#utility.yul\":3311:3316   */\n      dup2\n        /* \"#utility.yul\":3300:3316   */\n      swap1\n      pop\n        /* \"#utility.yul\":3246:3322   */\n      swap2\n      swap1\n      pop\n      jump\t// out\n        /* \"#utility.yul\":3328:3448   */\n    tag_72:\n        /* \"#utility.yul\":3400:3423   */\n      tag_128\n        /* \"#utility.yul\":3417:3422   */\n      dup2\n        /* \"#utility.yul\":3400:3423   */\n      tag_71\n      jump\t// in\n    tag_128:\n        /* \"#utility.yul\":3393:3398   */\n      dup2\n        /* \"#utility.yul\":3390:3424   */\n      eq\n        /* \"#utility.yul\":3380:3442   */\n      tag_129\n      jumpi\n        /* \"#utility.yul\":3438:3439   */\n      0x00\n        /* \"#utility.yul\":3435:3436   */\n      0x00\n        /* \"#utility.yul\":3428:3440   */\n      revert\n        /* \"#utility.yul\":3380:3442   */\n    tag_129:\n        /* \"#utility.yul\":3328:3448   */\n      pop\n      jump\t// out\n        /* \"#utility.yul\":3454:3595   */\n    tag_73:\n        /* \"#utility.yul\":3510:3515   */\n      0x00\n        /* \"#utility.yul\":3541:3547   */\n      dup2\n        /* \"#utility.yul\":3535:3548   */\n      mload\n        /* \"#utility.yul\":3526:3548   */\n      swap1\n      pop\n        /* \"#utility.yul\":3557:3589   */\n      tag_131\n        /* \"#utility.yul\":3583:3588   */\n      dup2\n        /* \"#utility.yul\":3557:3589   */\n      tag_72\n      jump\t// in\n    tag_131:\n        /* \"#utility.yul\":3454:3595   */\n      swap3\n      swap2\n      pop\n      pop\n      jump\t// out\n        /* \"#utility.yul\":3601:4572   */\n    tag_43:\n        /* \"#utility.yul\":3704:3710   */\n      0x00\n        /* \"#utility.yul\":3712:3718   */\n      0x00\n        /* \"#utility.yul\":3720:3726   */\n      0x00\n        /* \"#utility.yul\":3728:3734   */\n      0x00\n        /* \"#utility.yul\":3736:3742   */\n      0x00\n        /* \"#utility.yul\":3785:3788   */\n      0xa0\n        /* \"#utility.yul\":3773:3782   */\n      dup7\n        /* \"#utility.yul\":3764:3771   */\n      dup9\n        /* \"#utility.yul\":3760:3783   */\n      sub\n        /* \"#utility.yul\":3756:3789   */\n      slt\n        /* \"#utility.yul\":3753:3873   */\n      iszero\n      tag_133\n      jumpi\n        /* \"#utility.yul\":3792:3871   */\n      tag_134\n      tag_61\n      jump\t// in\n    tag_134:\n        /* \"#utility.yul\":3753:3873   */\n    tag_133:\n        /* \"#utility.yul\":3912:3913   */\n      0x00\n        /* \"#utility.yul\":3937:4000   */\n      tag_135\n        /* \"#utility.yul\":3992:3999   */\n      dup9\n        /* \"#utility.yul\":3983:3989   */\n      dup3\n        /* \"#utility.yul\":3972:3981   */\n      dup10\n        /* \"#utility.yul\":3968:3990   */\n      add\n        /* \"#utility.yul\":3937:4000   */\n      tag_70\n      jump\t// in\n    tag_135:\n        /* \"#utility.yul\":3927:4000   */\n      swap6\n      pop\n        /* \"#utility.yul\":3883:4010   */\n      pop\n        /* \"#utility.yul\":4049:4051   */\n      0x20\n        /* \"#utility.yul\":4075:4138   */\n      tag_136\n        /* \"#utility.yul\":4130:4137   */\n      dup9\n        /* \"#utility.yul\":4121:4127   */\n      dup3\n        /* \"#utility.yul\":4110:4119   */\n      dup10\n        /* \"#utility.yul\":4106:4128   */\n      add\n        /* \"#utility.yul\":4075:4138   */\n      tag_73\n      jump\t// in\n    tag_136:\n        /* \"#utility.yul\":4065:4138   */\n      swap5\n      pop\n        /* \"#utility.yul\":4020:4148   */\n      pop\n        /* \"#utility.yul\":4187:4189   */\n      0x40\n        /* \"#utility.yul\":4213:4277   */\n      tag_137\n        /* \"#utility.yul\":4269:4276   */\n      dup9\n        /* \"#utility.yul\":4260:4266   */\n      dup3\n        /* \"#utility.yul\":4249:4258   */\n      dup10\n        /* \"#utility.yul\":4245:4267   */\n      add\n        /* \"#utility.yul\":4213:4277   */\n      tag_65\n      jump\t// in\n    tag_137:\n        /* \"#utility.yul\":4203:4277   */\n      swap4\n      pop\n        /* \"#utility.yul\":4158:4287   */\n      pop\n        /* \"#utility.yul\":4326:4328   */\n      0x60\n        /* \"#utility.yul\":4352:4416   */\n      tag_138\n        /* \"#utility.yul\":4408:4415   */\n      dup9\n        /* \"#utility.yul\":4399:4405   */\n      dup3\n        /* \"#utility.yul\":4388:4397   */\n      dup10\n        /* \"#utility.yul\":4384:4406   */\n      add\n        /* \"#utility.yul\":4352:4416   */\n      tag_65\n      jump\t// in\n    tag_138:\n        /* \"#utility.yul\":4342:4416   */\n      swap3\n      pop\n        /* \"#utility.yul\":4297:4426   */\n      pop\n        /* \"#utility.yul\":4465:4468   */\n      0x80\n        /* \"#utility.yul\":4492:4555   */\n      tag_139\n        /* \"#utility.yul\":4547:4554   */\n      dup9\n        /* \"#utility.yul\":4538:4544   */\n      dup3\n        /* \"#utility.yul\":4527:4536   */\n      dup10\n        /* \"#utility.yul\":4523:4545   */\n      add\n        /* \"#utility.yul\":4492:4555   */\n      tag_70\n      jump\t// in\n    tag_139:\n        /* \"#utility.yul\":4482:4555   */\n      swap2\n      pop\n        /* \"#utility.yul\":4436:4565   */\n      pop\n        /* \"#utility.yul\":3601:4572   */\n      swap3\n      swap6\n      pop\n      swap3\n      swap6\n      swap1\n      swap4\n      pop\n      jump\t// out\n        /* \"#utility.yul\":4578:4664   */\n    tag_74:\n        /* \"#utility.yul\":4613:4620   */\n      0x00\n        /* \"#utility.yul\":4653:4657   */\n      0xff\n        /* \"#utility.yul\":4646:4651   */\n      dup3\n        /* \"#utility.yul\":4642:4658   */\n      and\n        /* \"#utility.yul\":4631:4658   */\n      swap1\n      pop\n        /* \"#utility.yul\":4578:4664   */\n      swap2\n      swap1\n      pop\n      jump\t// out\n        /* \"#utility.yul\":4670:4788   */\n    tag_75:\n        /* \"#utility.yul\":4741:4763   */\n      tag_142\n        /* \"#utility.yul\":4757:4762   */\n      dup2\n        /* \"#utility.yul\":4741:4763   */\n      tag_74\n      jump\t// in\n    tag_142:\n        /* \"#utility.yul\":4734:4739   */\n      dup2\n        /* \"#utility.yul\":4731:4764   */\n      eq\n        /* \"#utility.yul\":4721:4782   */\n      tag_143\n      jumpi\n        /* \"#utility.yul\":4778:4779   */\n      0x00\n        /* \"#utility.yul\":4775:4776   */\n      0x00\n        /* \"#utility.yul\":4768:4780   */\n      revert\n        /* \"#utility.yul\":4721:4782   */\n    tag_143:\n        /* \"#utility.yul\":4670:4788   */\n      pop\n      jump\t// out\n        /* \"#utility.yul\":4794:4933   */\n    tag_76:\n        /* \"#utility.yul\":4849:4854   */\n      0x00\n        /* \"#utility.yul\":4880:4886   */\n      dup2\n        /* \"#utility.yul\":4874:4887   */\n      mload\n        /* \"#utility.yul\":4865:4887   */\n      swap1\n      pop\n        /* \"#utility.yul\":4896:4927   */\n      tag_145\n        /* \"#utility.yul\":4921:4926   */\n      dup2\n        /* \"#utility.yul\":4896:4927   */\n      tag_75\n      jump\t// in\n    tag_145:\n        /* \"#utility.yul\":4794:4933   */\n      swap3\n      swap2\n      pop\n      pop\n      jump\t// out\n        /* \"#utility.yul\":4939:5286   */\n    tag_47:\n        /* \"#utility.yul\":5007:5013   */\n      0x00\n        /* \"#utility.yul\":5056:5058   */\n      0x20\n        /* \"#utility.yul\":5044:5053   */\n      dup3\n        /* \"#utility.yul\":5035:5042   */\n      dup5\n        /* \"#utility.yul\":5031:5054   */\n      sub\n        /* \"#utility.yul\":5027:5059   */\n      slt\n        /* \"#utility.yul\":5024:5143   */\n      iszero\n      tag_147\n      jumpi\n        /* \"#utility.yul\":5062:5141   */\n      tag_148\n      tag_61\n      jump\t// in\n    tag_148:\n        /* \"#utility.yul\":5024:5143   */\n    tag_147:\n        /* \"#utility.yul\":5182:5183   */\n      0x00\n        /* \"#utility.yul\":5207:5269   */\n      tag_149\n        /* \"#utility.yul\":5261:5268   */\n      dup5\n        /* \"#utility.yul\":5252:5258   */\n      dup3\n        /* \"#utility.yul\":5241:5250   */\n      dup6\n        /* \"#utility.yul\":5237:5259   */\n      add\n        /* \"#utility.yul\":5207:5269   */\n      tag_76\n      jump\t// in\n    tag_149:\n        /* \"#utility.yul\":5197:5269   */\n      swap2\n      pop\n        /* \"#utility.yul\":5153:5279   */\n      pop\n        /* \"#utility.yul\":4939:5286   */\n      swap3\n      swap2\n      pop\n      pop\n      jump\t// out\n        /* \"#utility.yul\":5292:5483   */\n    tag_49:\n        /* \"#utility.yul\":5330:5334   */\n      0x00\n        /* \"#utility.yul\":5350:5368   */\n      tag_151\n        /* \"#utility.yul\":5366:5367   */\n      dup3\n        /* \"#utility.yul\":5350:5368   */\n      tag_74\n      jump\t// in\n    tag_151:\n        /* \"#utility.yul\":5345:5368   */\n      swap2\n      pop\n        /* \"#utility.yul\":5382:5400   */\n      tag_152\n        /* \"#utility.yul\":5398:5399   */\n      dup4\n        /* \"#utility.yul\":5382:5400   */\n      tag_74\n      jump\t// in\n    tag_152:\n        /* \"#utility.yul\":5377:5400   */\n      swap3\n      pop\n        /* \"#utility.yul\":5424:5425   */\n      dup3\n        /* \"#utility.yul\":5421:5422   */\n      dup3\n        /* \"#utility.yul\":5417:5426   */\n      sub\n        /* \"#utility.yul\":5409:5426   */\n      swap1\n      pop\n        /* \"#utility.yul\":5448:5452   */\n      0xff\n        /* \"#utility.yul\":5442:5446   */\n      dup2\n        /* \"#utility.yul\":5439:5453   */\n      gt\n        /* \"#utility.yul\":5436:5476   */\n      iszero\n      tag_153\n      jumpi\n        /* \"#utility.yul\":5456:5474   */\n      tag_154\n      tag_66\n      jump\t// in\n    tag_154:\n        /* \"#utility.yul\":5436:5476   */\n    tag_153:\n        /* \"#utility.yul\":5292:5483   */\n      swap3\n      swap2\n      pop\n      pop\n      jump\t// out\n        /* \"#utility.yul\":5489:5591   */\n    tag_77:\n        /* \"#utility.yul\":5531:5539   */\n      0x00\n        /* \"#utility.yul\":5578:5583   */\n      dup2\n        /* \"#utility.yul\":5575:5576   */\n      0x01\n        /* \"#utility.yul\":5571:5584   */\n      shr\n        /* \"#utility.yul\":5550:5584   */\n      swap1\n      pop\n        /* \"#utility.yul\":5489:5591   */\n      swap2\n      swap1\n      pop\n      jump\t// out\n        /* \"#utility.yul\":5597:6445   */\n    tag_78:\n        /* \"#utility.yul\":5658:5663   */\n      0x00\n        /* \"#utility.yul\":5665:5669   */\n      0x00\n        /* \"#utility.yul\":5689:5695   */\n      dup3\n        /* \"#utility.yul\":5680:5695   */\n      swap2\n      pop\n        /* \"#utility.yul\":5713:5718   */\n      dup4\n        /* \"#utility.yul\":5704:5718   */\n      swap1\n      pop\n        /* \"#utility.yul\":5727:6439   */\n    tag_157:\n        /* \"#utility.yul\":5748:5749   */\n      0x01\n        /* \"#utility.yul\":5738:5746   */\n      dup6\n        /* \"#utility.yul\":5735:5750   */\n      gt\n        /* \"#utility.yul\":5727:6439   */\n      iszero\n      tag_159\n      jumpi\n        /* \"#utility.yul\":5843:5847   */\n      dup1\n        /* \"#utility.yul\":5838:5841   */\n      dup7\n        /* \"#utility.yul\":5834:5848   */\n      div\n        /* \"#utility.yul\":5828:5832   */\n      dup2\n        /* \"#utility.yul\":5825:5849   */\n      gt\n        /* \"#utility.yul\":5822:5872   */\n      iszero\n      tag_160\n      jumpi\n        /* \"#utility.yul\":5852:5870   */\n      tag_161\n      tag_66\n      jump\t// in\n    tag_161:\n        /* \"#utility.yul\":5822:5872   */\n    tag_160:\n        /* \"#utility.yul\":5902:5903   */\n      0x01\n        /* \"#utility.yul\":5892:5900   */\n      dup6\n        /* \"#utility.yul\":5888:5904   */\n      and\n        /* \"#utility.yul\":5885:6336   */\n      iszero\n      tag_162\n      jumpi\n        /* \"#utility.yul\":6317:6321   */\n      dup1\n        /* \"#utility.yul\":6310:6315   */\n      dup3\n        /* \"#utility.yul\":6306:6322   */\n      mul\n        /* \"#utility.yul\":6297:6322   */\n      swap2\n      pop\n        /* \"#utility.yul\":5885:6336   */\n    tag_162:\n        /* \"#utility.yul\":6367:6371   */\n      dup1\n        /* \"#utility.yul\":6361:6365   */\n      dup2\n        /* \"#utility.yul\":6357:6372   */\n      mul\n        /* \"#utility.yul\":6349:6372   */\n      swap1\n      pop\n        /* \"#utility.yul\":6397:6429   */\n      tag_163\n        /* \"#utility.yul\":6420:6428   */\n      dup6\n        /* \"#utility.yul\":6397:6429   */\n      tag_77\n      jump\t// in\n    tag_163:\n        /* \"#utility.yul\":6385:6429   */\n      swap5\n      pop\n        /* \"#utility.yul\":5727:6439   */\n      jump(tag_157)\n    tag_159:\n        /* \"#utility.yul\":5597:6445   */\n      swap5\n      pop\n      swap5\n      swap3\n      pop\n      pop\n      pop\n      jump\t// out\n        /* \"#utility.yul\":6451:7524   */\n    tag_79:\n        /* \"#utility.yul\":6505:6510   */\n      0x00\n        /* \"#utility.yul\":6696:6704   */\n      dup3\n        /* \"#utility.yul\":6686:6726   */\n      tag_165\n      jumpi\n        /* \"#utility.yul\":6717:6718   */\n      0x01\n        /* \"#utility.yul\":6708:6718   */\n      swap1\n      pop\n        /* \"#utility.yul\":6719:6724   */\n      jump(tag_164)\n        /* \"#utility.yul\":6686:6726   */\n    tag_165:\n        /* \"#utility.yul\":6745:6749   */\n      dup2\n        /* \"#utility.yul\":6735:6771   */\n      tag_166\n      jumpi\n        /* \"#utility.yul\":6762:6763   */\n      0x00\n        /* \"#utility.yul\":6753:6763   */\n      swap1\n      pop\n        /* \"#utility.yul\":6764:6769   */\n      jump(tag_164)\n        /* \"#utility.yul\":6735:6771   */\n    tag_166:\n        /* \"#utility.yul\":6831:6835   */\n      dup2\n        /* \"#utility.yul\":6879:6880   */\n      0x01\n        /* \"#utility.yul\":6874:6901   */\n      dup2\n      eq\n      tag_168\n      jumpi\n        /* \"#utility.yul\":6915:6916   */\n      0x02\n        /* \"#utility.yul\":6910:7101   */\n      dup2\n      eq\n      tag_169\n      jumpi\n        /* \"#utility.yul\":6824:7101   */\n      jump(tag_167)\n        /* \"#utility.yul\":6874:6901   */\n    tag_168:\n        /* \"#utility.yul\":6892:6893   */\n      0x01\n        /* \"#utility.yul\":6883:6893   */\n      swap2\n      pop\n        /* \"#utility.yul\":6894:6899   */\n      pop\n      jump(tag_164)\n        /* \"#utility.yul\":6910:7101   */\n    tag_169:\n        /* \"#utility.yul\":6955:6958   */\n      0xff\n        /* \"#utility.yul\":6945:6953   */\n      dup5\n        /* \"#utility.yul\":6942:6959   */\n      gt\n        /* \"#utility.yul\":6939:6982   */\n      iszero\n      tag_170\n      jumpi\n        /* \"#utility.yul\":6962:6980   */\n      tag_171\n      tag_66\n      jump\t// in\n    tag_171:\n        /* \"#utility.yul\":6939:6982   */\n    tag_170:\n        /* \"#utility.yul\":7011:7019   */\n      dup4\n        /* \"#utility.yul\":7008:7009   */\n      0x02\n        /* \"#utility.yul\":7004:7020   */\n      exp\n        /* \"#utility.yul\":6995:7020   */\n      swap2\n      pop\n        /* \"#utility.yul\":7046:7049   */\n      dup5\n        /* \"#utility.yul\":7039:7044   */\n      dup3\n        /* \"#utility.yul\":7036:7050   */\n      gt\n        /* \"#utility.yul\":7033:7073   */\n      iszero\n      tag_172\n      jumpi\n        /* \"#utility.yul\":7053:7071   */\n      tag_173\n      tag_66\n      jump\t// in\n    tag_173:\n        /* \"#utility.yul\":7033:7073   */\n    tag_172:\n        /* \"#utility.yul\":7086:7091   */\n      pop\n      jump(tag_164)\n        /* \"#utility.yul\":6824:7101   */\n    tag_167:\n      pop\n        /* \"#utility.yul\":7210:7212   */\n      0x20\n        /* \"#utility.yul\":7200:7208   */\n      dup4\n        /* \"#utility.yul\":7197:7213   */\n      lt\n        /* \"#utility.yul\":7191:7194   */\n      0x0133\n        /* \"#utility.yul\":7185:7189   */\n      dup4\n        /* \"#utility.yul\":7182:7195   */\n      lt\n        /* \"#utility.yul\":7178:7214   */\n      and\n        /* \"#utility.yul\":7160:7162   */\n      0x4e\n        /* \"#utility.yul\":7150:7158   */\n      dup5\n        /* \"#utility.yul\":7147:7163   */\n      lt\n        /* \"#utility.yul\":7142:7144   */\n      0x0b\n        /* \"#utility.yul\":7136:7140   */\n      dup5\n        /* \"#utility.yul\":7133:7145   */\n      lt\n        /* \"#utility.yul\":7129:7164   */\n      and\n        /* \"#utility.yul\":7113:7224   */\n      or\n        /* \"#utility.yul\":7110:7356   */\n      iszero\n      tag_174\n      jumpi\n        /* \"#utility.yul\":7266:7274   */\n      dup3\n        /* \"#utility.yul\":7260:7264   */\n      dup3\n        /* \"#utility.yul\":7256:7275   */\n      exp\n        /* \"#utility.yul\":7247:7275   */\n      swap1\n      pop\n        /* \"#utility.yul\":7301:7304   */\n      dup4\n        /* \"#utility.yul\":7294:7299   */\n      dup2\n        /* \"#utility.yul\":7291:7305   */\n      gt\n        /* \"#utility.yul\":7288:7328   */\n      iszero\n      tag_175\n      jumpi\n        /* \"#utility.yul\":7308:7326   */\n      tag_176\n      tag_66\n      jump\t// in\n    tag_176:\n        /* \"#utility.yul\":7288:7328   */\n    tag_175:\n        /* \"#utility.yul\":7341:7346   */\n      jump(tag_164)\n        /* \"#utility.yul\":7110:7356   */\n    tag_174:\n        /* \"#utility.yul\":7381:7423   */\n      tag_177\n        /* \"#utility.yul\":7419:7422   */\n      dup5\n        /* \"#utility.yul\":7409:7417   */\n      dup5\n        /* \"#utility.yul\":7403:7407   */\n      dup5\n        /* \"#utility.yul\":7400:7401   */\n      0x01\n        /* \"#utility.yul\":7381:7423   */\n      tag_78\n      jump\t// in\n    tag_177:\n        /* \"#utility.yul\":7366:7423   */\n      swap3\n      pop\n      swap1\n      pop\n        /* \"#utility.yul\":7455:7459   */\n      dup2\n        /* \"#utility.yul\":7450:7453   */\n      dup5\n        /* \"#utility.yul\":7446:7460   */\n      div\n        /* \"#utility.yul\":7439:7444   */\n      dup2\n        /* \"#utility.yul\":7436:7461   */\n      gt\n        /* \"#utility.yul\":7433:7484   */\n      iszero\n      tag_178\n      jumpi\n        /* \"#utility.yul\":7464:7482   */\n      tag_179\n      tag_66\n      jump\t// in\n    tag_179:\n        /* \"#utility.yul\":7433:7484   */\n    tag_178:\n        /* \"#utility.yul\":7513:7517   */\n      dup2\n        /* \"#utility.yul\":7506:7511   */\n      dup2\n        /* \"#utility.yul\":7502:7518   */\n      mul\n        /* \"#utility.yul\":7493:7518   */\n      swap1\n      pop\n        /* \"#utility.yul\":6451:7524   */\n    tag_164:\n      swap4\n      swap3\n      pop\n      pop\n      pop\n      jump\t// out\n        /* \"#utility.yul\":7530:7811   */\n    tag_51:\n        /* \"#utility.yul\":7588:7593   */\n      0x00\n        /* \"#utility.yul\":7612:7635   */\n      tag_181\n        /* \"#utility.yul\":7630:7634   */\n      dup3\n        /* \"#utility.yul\":7612:7635   */\n      tag_58\n      jump\t// in\n    tag_181:\n        /* \"#utility.yul\":7604:7635   */\n      swap2\n      pop\n        /* \"#utility.yul\":7656:7681   */\n      tag_182\n        /* \"#utility.yul\":7672:7680   */\n      dup4\n        /* \"#utility.yul\":7656:7681   */\n      tag_74\n      jump\t// in\n    tag_182:\n        /* \"#utility.yul\":7644:7681   */\n      swap3\n      pop\n        /* \"#utility.yul\":7700:7804   */\n      tag_183\n        /* \"#utility.yul\":7737:7803   */\n      0xffffffffffffffffffffffffffffffffffffffffffffffffffffffffffffffff\n        /* \"#utility.yul\":7727:7735   */\n      dup5\n        /* \"#utility.yul\":7721:7725   */\n      dup5\n        /* \"#utility.yul\":7700:7804   */\n      tag_79\n      jump\t// in\n    tag_183:\n        /* \"#utility.yul\":7691:7804   */\n      swap1\n      pop\n        /* \"#utility.yul\":7530:7811   */\n      swap3\n      swap2\n      pop\n      pop\n      jump\t// out\n        /* \"#utility.yul\":7817:7986   */\n    tag_80:\n        /* \"#utility.yul\":7901:7912   */\n      0x00\n        /* \"#utility.yul\":7935:7941   */\n      dup3\n        /* \"#utility.yul\":7930:7933   */\n      dup3\n        /* \"#utility.yul\":7923:7942   */\n      mstore\n        /* \"#utility.yul\":7975:7979   */\n      0x20\n        /* \"#utility.yul\":7970:7973   */\n      dup3\n        /* \"#utility.yul\":7966:7980   */\n      add\n        /* \"#utility.yul\":7951:7980   */\n      swap1\n      pop\n        /* \"#utility.yul\":7817:7986   */\n      swap3\n      swap2\n      pop\n      pop\n      jump\t// out\n        /* \"#utility.yul\":7992:8160   */\n    tag_81:\n        /* \"#utility.yul\":8132:8152   */\n      0x4469646e27742073656e6420656e6f7567680000000000000000000000000000\n        /* \"#utility.yul\":8128:8129   */\n      0x00\n        /* \"#utility.yul\":8120:8126   */\n      dup3\n        /* \"#utility.yul\":8116:8130   */\n      add\n        /* \"#utility.yul\":8109:8153   */\n      mstore\n        /* \"#utility.yul\":7992:8160   */\n      pop\n      jump\t// out\n        /* \"#utility.yul\":8166:8532   */\n    tag_82:\n        /* \"#utility.yul\":8308:8311   */\n      0x00\n        /* \"#utility.yul\":8329:8396   */\n      tag_187\n        /* \"#utility.yul\":8393:8395   */\n      0x12\n        /* \"#utility.yul\":8388:8391   */\n      dup4\n        /* \"#utility.yul\":8329:8396   */\n      tag_80\n      jump\t// in\n    tag_187:\n        /* \"#utility.yul\":8322:8396   */\n      swap2\n      pop\n        /* \"#utility.yul\":8405:8498   */\n      tag_188\n        /* \"#utility.yul\":8494:8497   */\n      dup3\n        /* \"#utility.yul\":8405:8498   */\n      tag_81\n      jump\t// in\n    tag_188:\n        /* \"#utility.yul\":8523:8525   */\n      0x20\n        /* \"#utility.yul\":8518:8521   */\n      dup3\n        /* \"#utility.yul\":8514:8526   */\n      add\n        /* \"#utility.yul\":8507:8526   */\n      swap1\n      pop\n        /* \"#utility.yul\":8166:8532   */\n      swap2\n      swap1\n      pop\n      jump\t// out\n        /* \"#utility.yul\":8538:8957   */\n    tag_57:\n        /* \"#utility.yul\":8704:8708   */\n      0x00\n        /* \"#utility.yul\":8742:8744   */\n      0x20\n        /* \"#utility.yul\":8731:8740   */\n      dup3\n        /* \"#utility.yul\":8727:8745   */\n      add\n        /* \"#utility.yul\":8719:8745   */\n      swap1\n      pop\n        /* \"#utility.yul\":8791:8800   */\n      dup2\n        /* \"#utility.yul\":8785:8789   */\n      dup2\n        /* \"#utility.yul\":8781:8801   */\n      sub\n        /* \"#utility.yul\":8777:8778   */\n      0x00\n        /* \"#utility.yul\":8766:8775   */\n      dup4\n        /* \"#utility.yul\":8762:8779   */\n      add\n        /* \"#utility.yul\":8755:8802   */\n      mstore\n        /* \"#utility.yul\":8819:8950   */\n      tag_190\n        /* \"#utility.yul\":8945:8949   */\n      dup2\n        /* \"#utility.yul\":8819:8950   */\n      tag_82\n      jump\t// in\n    tag_190:\n        /* \"#utility.yul\":8811:8950   */\n      swap1\n      pop\n        /* \"#utility.yul\":8538:8957   */\n      swap2\n      swap1\n      pop\n      jump\t// out\n\n    auxdata: 0xa2646970667358221220244e6550c47cca6cc1e7b618ee035efd41cdaf55f64b797565361a3642c3911264736f6c634300081e0033\n}\n",
				"bytecode": {
					"linkReferences": {},
					"object": "60806040526802b5e3af16b18800005f55348015601a575f5ffd5b5061088a806100285f395ff3fe608060405260043610610049575f3560e01c8063098de8201461004d5780630d8e6e2c146100775780636e5b6b28146100a157806398d5fdca146100dd578063b60d428814610107575b5f5ffd5b348015610058575f5ffd5b50610061610111565b60405161006e9190610369565b60405180910390f35b348015610082575f5ffd5b5061008b610116565b6040516100989190610369565b60405180910390f35b3480156100ac575f5ffd5b506100c760048036038101906100c291906103b0565b6101a2565b6040516100d49190610369565b60405180910390f35b3480156100e8575f5ffd5b506100f16101da565b6040516100fe9190610369565b60405180910390f35b61010f610303565b005b5f5481565b5f5f73694aa1769357215de4fac081bf1f309adc32530690508073ffffffffffffffffffffffffffffffffffffffff166354fd4d506040518163ffffffff1660e01b8152600401602060405180830381865afa158015610178573d5f5f3e3d5ffd5b505050506040513d601f19601f8201168201806040525081019061019c91906103ef565b91505090565b5f5f6101ac6101da565b90505f670de0b6b3a764000084836101c49190610447565b6101ce91906104b5565b90508092505050919050565b5f5f73694aa1769357215de4fac081bf1f309adc32530690505f8173ffffffffffffffffffffffffffffffffffffffff1663feaf968c6040518163ffffffff1660e01b815260040160a060405180830381865afa15801561023d573d5f5f3e3d5ffd5b505050506040513d601f19601f820116820180604052508101906102619190610557565b5050509150505f601290508273ffffffffffffffffffffffffffffffffffffffff1663313ce5676040518163ffffffff1660e01b8152600401602060405180830381865afa1580156102b5573d5f5f3e3d5ffd5b505050506040513d601f19601f820116820180604052508101906102d99190610604565b816102e4919061062f565b600a6102f09190610792565b826102fb9190610447565b935050505090565b5f5461030e346101a2565b101561034f576040517f08c379a000000000000000000000000000000000000000000000000000000000815260040161034690610836565b60405180910390fd5b565b5f819050919050565b61036381610351565b82525050565b5f60208201905061037c5f83018461035a565b92915050565b5f5ffd5b61038f81610351565b8114610399575f5ffd5b50565b5f813590506103aa81610386565b92915050565b5f602082840312156103c5576103c4610382565b5b5f6103d28482850161039c565b91505092915050565b5f815190506103e981610386565b92915050565b5f6020828403121561040457610403610382565b5b5f610411848285016103db565b91505092915050565b7f4e487b71000000000000000000000000000000000000000000000000000000005f52601160045260245ffd5b5f61045182610351565b915061045c83610351565b925082820261046a81610351565b915082820484148315176104815761048061041a565b5b5092915050565b7f4e487b71000000000000000000000000000000000000000000000000000000005f52601260045260245ffd5b5f6104bf82610351565b91506104ca83610351565b9250826104da576104d9610488565b5b828204905092915050565b5f69ffffffffffffffffffff82169050919050565b610503816104e5565b811461050d575f5ffd5b50565b5f8151905061051e816104fa565b92915050565b5f819050919050565b61053681610524565b8114610540575f5ffd5b50565b5f815190506105518161052d565b92915050565b5f5f5f5f5f60a086880312156105705761056f610382565b5b5f61057d88828901610510565b955050602061058e88828901610543565b945050604061059f888289016103db565b93505060606105b0888289016103db565b92505060806105c188828901610510565b9150509295509295909350565b5f60ff82169050919050565b6105e3816105ce565b81146105ed575f5ffd5b50565b5f815190506105fe816105da565b92915050565b5f6020828403121561061957610618610382565b5b5f610626848285016105f0565b91505092915050565b5f610639826105ce565b9150610644836105ce565b9250828203905060ff81111561065d5761065c61041a565b5b92915050565b5f8160011c9050919050565b5f5f8291508390505b60018511156106b8578086048111156106945761069361041a565b5b60018516156106a35780820291505b80810290506106b185610663565b9450610678565b94509492505050565b5f826106d0576001905061078b565b816106dd575f905061078b565b81600181146106f357600281146106fd5761072c565b600191505061078b565b60ff84111561070f5761070e61041a565b5b8360020a9150848211156107265761072561041a565b5b5061078b565b5060208310610133831016604e8410600b84101617156107615782820a90508381111561075c5761075b61041a565b5b61078b565b61076e848484600161066f565b925090508184048111156107855761078461041a565b5b81810290505b9392505050565b5f61079c82610351565b91506107a7836105ce565b92506107d47fffffffffffffffffffffffffffffffffffffffffffffffffffffffffffffffff84846106c1565b905092915050565b5f82825260208201905092915050565b7f4469646e27742073656e6420656e6f75676800000000000000000000000000005f82015250565b5f6108206012836107dc565b915061082b826107ec565b602082019050919050565b5f6020820190508181035f83015261084d81610814565b905091905056fea2646970667358221220244e6550c47cca6cc1e7b618ee035efd41cdaf55f64b797565361a3642c3911264736f6c634300081e0033",
					"opcodes": "PUSH1 0x80 PUSH1 0x40 MSTORE PUSH9 0x2B5E3AF16B1880000 PUSH0 SSTORE CALLVALUE DUP1 ISZERO PUSH1 0x1A JUMPI PUSH0 PUSH0 REVERT JUMPDEST POP PUSH2 0x88A DUP1 PUSH2 0x28 PUSH0 CODECOPY PUSH0 RETURN INVALID PUSH1 0x80 PUSH1 0x40 MSTORE PUSH1 0x4 CALLDATASIZE LT PUSH2 0x49 JUMPI PUSH0 CALLDATALOAD PUSH1 0xE0 SHR DUP1 PUSH4 0x98DE820 EQ PUSH2 0x4D JUMPI DUP1 PUSH4 0xD8E6E2C EQ PUSH2 0x77 JUMPI DUP1 PUSH4 0x6E5B6B28 EQ PUSH2 0xA1 JUMPI DUP1 PUSH4 0x98D5FDCA EQ PUSH2 0xDD JUMPI DUP1 PUSH4 0xB60D4288 EQ PUSH2 0x107 JUMPI JUMPDEST PUSH0 PUSH0 REVERT JUMPDEST CALLVALUE DUP1 ISZERO PUSH2 0x58 JUMPI PUSH0 PUSH0 REVERT JUMPDEST POP PUSH2 0x61 PUSH2 0x111 JUMP JUMPDEST PUSH1 0x40 MLOAD PUSH2 0x6E SWAP2 SWAP1 PUSH2 0x369 JUMP JUMPDEST PUSH1 0x40 MLOAD DUP1 SWAP2 SUB SWAP1 RETURN JUMPDEST CALLVALUE DUP1 ISZERO PUSH2 0x82 JUMPI PUSH0 PUSH0 REVERT JUMPDEST POP PUSH2 0x8B PUSH2 0x116 JUMP JUMPDEST PUSH1 0x40 MLOAD PUSH2 0x98 SWAP2 SWAP1 PUSH2 0x369 JUMP JUMPDEST PUSH1 0x40 MLOAD DUP1 SWAP2 SUB SWAP1 RETURN JUMPDEST CALLVALUE DUP1 ISZERO PUSH2 0xAC JUMPI PUSH0 PUSH0 REVERT JUMPDEST POP PUSH2 0xC7 PUSH1 0x4 DUP1 CALLDATASIZE SUB DUP2 ADD SWAP1 PUSH2 0xC2 SWAP2 SWAP1 PUSH2 0x3B0 JUMP JUMPDEST PUSH2 0x1A2 JUMP JUMPDEST PUSH1 0x40 MLOAD PUSH2 0xD4 SWAP2 SWAP1 PUSH2 0x369 JUMP JUMPDEST PUSH1 0x40 MLOAD DUP1 SWAP2 SUB SWAP1 RETURN JUMPDEST CALLVALUE DUP1 ISZERO PUSH2 0xE8 JUMPI PUSH0 PUSH0 REVERT JUMPDEST POP PUSH2 0xF1 PUSH2 0x1DA JUMP JUMPDEST PUSH1 0x40 MLOAD PUSH2 0xFE SWAP2 SWAP1 PUSH2 0x369 JUMP JUMPDEST PUSH1 0x40 MLOAD DUP1 SWAP2 SUB SWAP1 RETURN JUMPDEST PUSH2 0x10F PUSH2 0x303 JUMP JUMPDEST STOP JUMPDEST PUSH0 SLOAD DUP2 JUMP JUMPDEST PUSH0 PUSH0 PUSH20 0x694AA1769357215DE4FAC081BF1F309ADC325306 SWAP1 POP DUP1 PUSH20 0xFFFFFFFFFFFFFFFFFFFFFFFFFFFFFFFFFFFFFFFF AND PUSH4 0x54FD4D50 PUSH1 0x40 MLOAD DUP2 PUSH4 0xFFFFFFFF AND PUSH1 0xE0 SHL DUP2 MSTORE PUSH1 0x4 ADD PUSH1 0x20 PUSH1 0x40 MLOAD DUP1 DUP4 SUB DUP2 DUP7 GAS STATICCALL ISZERO DUP1 ISZERO PUSH2 0x178 JUMPI RETURNDATASIZE PUSH0 PUSH0 RETURNDATACOPY RETURNDATASIZE PUSH0 REVERT JUMPDEST POP POP POP POP PUSH1 0x40 MLOAD RETURNDATASIZE PUSH1 0x1F NOT PUSH1 0x1F DUP3 ADD AND DUP3 ADD DUP1 PUSH1 0x40 MSTORE POP DUP2 ADD SWAP1 PUSH2 0x19C SWAP2 SWAP1 PUSH2 0x3EF JUMP JUMPDEST SWAP2 POP POP SWAP1 JUMP JUMPDEST PUSH0 PUSH0 PUSH2 0x1AC PUSH2 0x1DA JUMP JUMPDEST SWAP1 POP PUSH0 PUSH8 0xDE0B6B3A7640000 DUP5 DUP4 PUSH2 0x1C4 SWAP2 SWAP1 PUSH2 0x447 JUMP JUMPDEST PUSH2 0x1CE SWAP2 SWAP1 PUSH2 0x4B5 JUMP JUMPDEST SWAP1 POP DUP1 SWAP3 POP POP POP SWAP2 SWAP1 POP JUMP JUMPDEST PUSH0 PUSH0 PUSH20 0x694AA1769357215DE4FAC081BF1F309ADC325306 SWAP1 POP PUSH0 DUP2 PUSH20 0xFFFFFFFFFFFFFFFFFFFFFFFFFFFFFFFFFFFFFFFF AND PUSH4 0xFEAF968C PUSH1 0x40 MLOAD DUP2 PUSH4 0xFFFFFFFF AND PUSH1 0xE0 SHL DUP2 MSTORE PUSH1 0x4 ADD PUSH1 0xA0 PUSH1 0x40 MLOAD DUP1 DUP4 SUB DUP2 DUP7 GAS STATICCALL ISZERO DUP1 ISZERO PUSH2 0x23D JUMPI RETURNDATASIZE PUSH0 PUSH0 RETURNDATACOPY RETURNDATASIZE PUSH0 REVERT JUMPDEST POP POP POP POP PUSH1 0x40 MLOAD RETURNDATASIZE PUSH1 0x1F NOT PUSH1 0x1F DUP3 ADD AND DUP3 ADD DUP1 PUSH1 0x40 MSTORE POP DUP2 ADD SWAP1 PUSH2 0x261 SWAP2 SWAP1 PUSH2 0x557 JUMP JUMPDEST POP POP POP SWAP2 POP POP PUSH0 PUSH1 0x12 SWAP1 POP DUP3 PUSH20 0xFFFFFFFFFFFFFFFFFFFFFFFFFFFFFFFFFFFFFFFF AND PUSH4 0x313CE567 PUSH1 0x40 MLOAD DUP2 PUSH4 0xFFFFFFFF AND PUSH1 0xE0 SHL DUP2 MSTORE PUSH1 0x4 ADD PUSH1 0x20 PUSH1 0x40 MLOAD DUP1 DUP4 SUB DUP2 DUP7 GAS STATICCALL ISZERO DUP1 ISZERO PUSH2 0x2B5 JUMPI RETURNDATASIZE PUSH0 PUSH0 RETURNDATACOPY RETURNDATASIZE PUSH0 REVERT JUMPDEST POP POP POP POP PUSH1 0x40 MLOAD RETURNDATASIZE PUSH1 0x1F NOT PUSH1 0x1F DUP3 ADD AND DUP3 ADD DUP1 PUSH1 0x40 MSTORE POP DUP2 ADD SWAP1 PUSH2 0x2D9 SWAP2 SWAP1 PUSH2 0x604 JUMP JUMPDEST DUP2 PUSH2 0x2E4 SWAP2 SWAP1 PUSH2 0x62F JUMP JUMPDEST PUSH1 0xA PUSH2 0x2F0 SWAP2 SWAP1 PUSH2 0x792 JUMP JUMPDEST DUP3 PUSH2 0x2FB SWAP2 SWAP1 PUSH2 0x447 JUMP JUMPDEST SWAP4 POP POP POP POP SWAP1 JUMP JUMPDEST PUSH0 SLOAD PUSH2 0x30E CALLVALUE PUSH2 0x1A2 JUMP JUMPDEST LT ISZERO PUSH2 0x34F JUMPI PUSH1 0x40 MLOAD PUSH32 0x8C379A000000000000000000000000000000000000000000000000000000000 DUP2 MSTORE PUSH1 0x4 ADD PUSH2 0x346 SWAP1 PUSH2 0x836 JUMP JUMPDEST PUSH1 0x40 MLOAD DUP1 SWAP2 SUB SWAP1 REVERT JUMPDEST JUMP JUMPDEST PUSH0 DUP2 SWAP1 POP SWAP2 SWAP1 POP JUMP JUMPDEST PUSH2 0x363 DUP2 PUSH2 0x351 JUMP JUMPDEST DUP3 MSTORE POP POP JUMP JUMPDEST PUSH0 PUSH1 0x20 DUP3 ADD SWAP1 POP PUSH2 0x37C PUSH0 DUP4 ADD DUP5 PUSH2 0x35A JUMP JUMPDEST SWAP3 SWAP2 POP POP JUMP JUMPDEST PUSH0 PUSH0 REVERT JUMPDEST PUSH2 0x38F DUP2 PUSH2 0x351 JUMP JUMPDEST DUP2 EQ PUSH2 0x399 JUMPI PUSH0 PUSH0 REVERT JUMPDEST POP JUMP JUMPDEST PUSH0 DUP2 CALLDATALOAD SWAP1 POP PUSH2 0x3AA DUP2 PUSH2 0x386 JUMP JUMPDEST SWAP3 SWAP2 POP POP JUMP JUMPDEST PUSH0 PUSH1 0x20 DUP3 DUP5 SUB SLT ISZERO PUSH2 0x3C5 JUMPI PUSH2 0x3C4 PUSH2 0x382 JUMP JUMPDEST JUMPDEST PUSH0 PUSH2 0x3D2 DUP5 DUP3 DUP6 ADD PUSH2 0x39C JUMP JUMPDEST SWAP2 POP POP SWAP3 SWAP2 POP POP JUMP JUMPDEST PUSH0 DUP2 MLOAD SWAP1 POP PUSH2 0x3E9 DUP2 PUSH2 0x386 JUMP JUMPDEST SWAP3 SWAP2 POP POP JUMP JUMPDEST PUSH0 PUSH1 0x20 DUP3 DUP5 SUB SLT ISZERO PUSH2 0x404 JUMPI PUSH2 0x403 PUSH2 0x382 JUMP JUMPDEST JUMPDEST PUSH0 PUSH2 0x411 DUP5 DUP3 DUP6 ADD PUSH2 0x3DB JUMP JUMPDEST SWAP2 POP POP SWAP3 SWAP2 POP POP JUMP JUMPDEST PUSH32 0x4E487B7100000000000000000000000000000000000000000000000000000000 PUSH0 MSTORE PUSH1 0x11 PUSH1 0x4 MSTORE PUSH1 0x24 PUSH0 REVERT JUMPDEST PUSH0 PUSH2 0x451 DUP3 PUSH2 0x351 JUMP JUMPDEST SWAP2 POP PUSH2 0x45C DUP4 PUSH2 0x351 JUMP JUMPDEST SWAP3 POP DUP3 DUP3 MUL PUSH2 0x46A DUP2 PUSH2 0x351 JUMP JUMPDEST SWAP2 POP DUP3 DUP3 DIV DUP5 EQ DUP4 ISZERO OR PUSH2 0x481 JUMPI PUSH2 0x480 PUSH2 0x41A JUMP JUMPDEST JUMPDEST POP SWAP3 SWAP2 POP POP JUMP JUMPDEST PUSH32 0x4E487B7100000000000000000000000000000000000000000000000000000000 PUSH0 MSTORE PUSH1 0x12 PUSH1 0x4 MSTORE PUSH1 0x24 PUSH0 REVERT JUMPDEST PUSH0 PUSH2 0x4BF DUP3 PUSH2 0x351 JUMP JUMPDEST SWAP2 POP PUSH2 0x4CA DUP4 PUSH2 0x351 JUMP JUMPDEST SWAP3 POP DUP3 PUSH2 0x4DA JUMPI PUSH2 0x4D9 PUSH2 0x488 JUMP JUMPDEST JUMPDEST DUP3 DUP3 DIV SWAP1 POP SWAP3 SWAP2 POP POP JUMP JUMPDEST PUSH0 PUSH10 0xFFFFFFFFFFFFFFFFFFFF DUP3 AND SWAP1 POP SWAP2 SWAP1 POP JUMP JUMPDEST PUSH2 0x503 DUP2 PUSH2 0x4E5 JUMP JUMPDEST DUP2 EQ PUSH2 0x50D JUMPI PUSH0 PUSH0 REVERT JUMPDEST POP JUMP JUMPDEST PUSH0 DUP2 MLOAD SWAP1 POP PUSH2 0x51E DUP2 PUSH2 0x4FA JUMP JUMPDEST SWAP3 SWAP2 POP POP JUMP JUMPDEST PUSH0 DUP2 SWAP1 POP SWAP2 SWAP1 POP JUMP JUMPDEST PUSH2 0x536 DUP2 PUSH2 0x524 JUMP JUMPDEST DUP2 EQ PUSH2 0x540 JUMPI PUSH0 PUSH0 REVERT JUMPDEST POP JUMP JUMPDEST PUSH0 DUP2 MLOAD SWAP1 POP PUSH2 0x551 DUP2 PUSH2 0x52D JUMP JUMPDEST SWAP3 SWAP2 POP POP JUMP JUMPDEST PUSH0 PUSH0 PUSH0 PUSH0 PUSH0 PUSH1 0xA0 DUP7 DUP9 SUB SLT ISZERO PUSH2 0x570 JUMPI PUSH2 0x56F PUSH2 0x382 JUMP JUMPDEST JUMPDEST PUSH0 PUSH2 0x57D DUP9 DUP3 DUP10 ADD PUSH2 0x510 JUMP JUMPDEST SWAP6 POP POP PUSH1 0x20 PUSH2 0x58E DUP9 DUP3 DUP10 ADD PUSH2 0x543 JUMP JUMPDEST SWAP5 POP POP PUSH1 0x40 PUSH2 0x59F DUP9 DUP3 DUP10 ADD PUSH2 0x3DB JUMP JUMPDEST SWAP4 POP POP PUSH1 0x60 PUSH2 0x5B0 DUP9 DUP3 DUP10 ADD PUSH2 0x3DB JUMP JUMPDEST SWAP3 POP POP PUSH1 0x80 PUSH2 0x5C1 DUP9 DUP3 DUP10 ADD PUSH2 0x510 JUMP JUMPDEST SWAP2 POP POP SWAP3 SWAP6 POP SWAP3 SWAP6 SWAP1 SWAP4 POP JUMP JUMPDEST PUSH0 PUSH1 0xFF DUP3 AND SWAP1 POP SWAP2 SWAP1 POP JUMP JUMPDEST PUSH2 0x5E3 DUP2 PUSH2 0x5CE JUMP JUMPDEST DUP2 EQ PUSH2 0x5ED JUMPI PUSH0 PUSH0 REVERT JUMPDEST POP JUMP JUMPDEST PUSH0 DUP2 MLOAD SWAP1 POP PUSH2 0x5FE DUP2 PUSH2 0x5DA JUMP JUMPDEST SWAP3 SWAP2 POP POP JUMP JUMPDEST PUSH0 PUSH1 0x20 DUP3 DUP5 SUB SLT ISZERO PUSH2 0x619 JUMPI PUSH2 0x618 PUSH2 0x382 JUMP JUMPDEST JUMPDEST PUSH0 PUSH2 0x626 DUP5 DUP3 DUP6 ADD PUSH2 0x5F0 JUMP JUMPDEST SWAP2 POP POP SWAP3 SWAP2 POP POP JUMP JUMPDEST PUSH0 PUSH2 0x639 DUP3 PUSH2 0x5CE JUMP JUMPDEST SWAP2 POP PUSH2 0x644 DUP4 PUSH2 0x5CE JUMP JUMPDEST SWAP3 POP DUP3 DUP3 SUB SWAP1 POP PUSH1 0xFF DUP2 GT ISZERO PUSH2 0x65D JUMPI PUSH2 0x65C PUSH2 0x41A JUMP JUMPDEST JUMPDEST SWAP3 SWAP2 POP POP JUMP JUMPDEST PUSH0 DUP2 PUSH1 0x1 SHR SWAP1 POP SWAP2 SWAP1 POP JUMP JUMPDEST PUSH0 PUSH0 DUP3 SWAP2 POP DUP4 SWAP1 POP JUMPDEST PUSH1 0x1 DUP6 GT ISZERO PUSH2 0x6B8 JUMPI DUP1 DUP7 DIV DUP2 GT ISZERO PUSH2 0x694 JUMPI PUSH2 0x693 PUSH2 0x41A JUMP JUMPDEST JUMPDEST PUSH1 0x1 DUP6 AND ISZERO PUSH2 0x6A3 JUMPI DUP1 DUP3 MUL SWAP2 POP JUMPDEST DUP1 DUP2 MUL SWAP1 POP PUSH2 0x6B1 DUP6 PUSH2 0x663 JUMP JUMPDEST SWAP5 POP PUSH2 0x678 JUMP JUMPDEST SWAP5 POP SWAP5 SWAP3 POP POP POP JUMP JUMPDEST PUSH0 DUP3 PUSH2 0x6D0 JUMPI PUSH1 0x1 SWAP1 POP PUSH2 0x78B JUMP JUMPDEST DUP2 PUSH2 0x6DD JUMPI PUSH0 SWAP1 POP PUSH2 0x78B JUMP JUMPDEST DUP2 PUSH1 0x1 DUP2 EQ PUSH2 0x6F3 JUMPI PUSH1 0x2 DUP2 EQ PUSH2 0x6FD JUMPI PUSH2 0x72C JUMP JUMPDEST PUSH1 0x1 SWAP2 POP POP PUSH2 0x78B JUMP JUMPDEST PUSH1 0xFF DUP5 GT ISZERO PUSH2 0x70F JUMPI PUSH2 0x70E PUSH2 0x41A JUMP JUMPDEST JUMPDEST DUP4 PUSH1 0x2 EXP SWAP2 POP DUP5 DUP3 GT ISZERO PUSH2 0x726 JUMPI PUSH2 0x725 PUSH2 0x41A JUMP JUMPDEST JUMPDEST POP PUSH2 0x78B JUMP JUMPDEST POP PUSH1 0x20 DUP4 LT PUSH2 0x133 DUP4 LT AND PUSH1 0x4E DUP5 LT PUSH1 0xB DUP5 LT AND OR ISZERO PUSH2 0x761 JUMPI DUP3 DUP3 EXP SWAP1 POP DUP4 DUP2 GT ISZERO PUSH2 0x75C JUMPI PUSH2 0x75B PUSH2 0x41A JUMP JUMPDEST JUMPDEST PUSH2 0x78B JUMP JUMPDEST PUSH2 0x76E DUP5 DUP5 DUP5 PUSH1 0x1 PUSH2 0x66F JUMP JUMPDEST SWAP3 POP SWAP1 POP DUP2 DUP5 DIV DUP2 GT ISZERO PUSH2 0x785 JUMPI PUSH2 0x784 PUSH2 0x41A JUMP JUMPDEST JUMPDEST DUP2 DUP2 MUL SWAP1 POP JUMPDEST SWAP4 SWAP3 POP POP POP JUMP JUMPDEST PUSH0 PUSH2 0x79C DUP3 PUSH2 0x351 JUMP JUMPDEST SWAP2 POP PUSH2 0x7A7 DUP4 PUSH2 0x5CE JUMP JUMPDEST SWAP3 POP PUSH2 0x7D4 PUSH32 0xFFFFFFFFFFFFFFFFFFFFFFFFFFFFFFFFFFFFFFFFFFFFFFFFFFFFFFFFFFFFFFFF DUP5 DUP5 PUSH2 0x6C1 JUMP JUMPDEST SWAP1 POP SWAP3 SWAP2 POP POP JUMP JUMPDEST PUSH0 DUP3 DUP3 MSTORE PUSH1 0x20 DUP3 ADD SWAP1 POP SWAP3 SWAP2 POP POP JUMP JUMPDEST PUSH32 0x4469646E27742073656E6420656E6F7567680000000000000000000000000000 PUSH0 DUP3 ADD MSTORE POP JUMP JUMPDEST PUSH0 PUSH2 0x820 PUSH1 0x12 DUP4 PUSH2 0x7DC JUMP JUMPDEST SWAP2 POP PUSH2 0x82B DUP3 PUSH2 0x7EC JUMP JUMPDEST PUSH1 0x20 DUP3 ADD SWAP1 POP SWAP2 SWAP1 POP JUMP JUMPDEST PUSH0 PUSH1 0x20 DUP3 ADD SWAP1 POP DUP2 DUP2 SUB PUSH0 DUP4 ADD MSTORE PUSH2 0x84D DUP2 PUSH2 0x814 JUMP JUMPDEST SWAP1 POP SWAP2 SWAP1 POP JUMP INVALID LOG2 PUSH5 0x6970667358 0x22 SLT KECCAK256 0x24 0x4E PUSH6 0x50C47CCA6CC1 SWAPN 0xB6 XOR RETURNCONTRACT 0x3 MCOPY REVERT COINBASE 0xCD 0xAF SSTORE 0xF6 0x4B PUSH26 0x7565361A3642C3911264736F6C634300081E0033000000000000 "
				},
				"gasEstimates": {
					"creation": {
						"codeDepositCost": "437200",
						"executionCost": "22577",
						"totalCost": "459777"
					},
					"external": {
						"fund()": "infinite",
						"getConversionRate(uint256)": "infinite",
						"getPrice()": "infinite",
						"getVersion()": "infinite",
						"minimumUsd()": "2402"
					}
				},
				"methodIdentifiers": {
					"fund()": "b60d4288",
					"getConversionRate(uint256)": "6e5b6b28",
					"getPrice()": "98d5fdca",
					"getVersion()": "0d8e6e2c",
					"minimumUsd()": "098de820"
				}
			},
			"storageLayout": {
				"storage": [
					{
						"astId": 54,
						"contract": "FundMe/Lesson04/FundMe.sol:FUndMe",
						"label": "minimumUsd",
						"offset": 0,
						"slot": "0",
						"type": "t_uint256"
					}
				],
				"types": {
					"t_uint256": {
						"encoding": "inplace",
						"label": "uint256",
						"numberOfBytes": "32"
					}
				}
			},
			"userdoc": {
				"kind": "user",
				"methods": {},
				"version": 1
			}
		}
	}
}