{
	"FundMe/Lesson04/FundMe.sol": {
		"FUndMe": {
			"abi": [
				{
					"inputs": [
						{
							"internalType": "address",
							"name": "",
							"type": "address"
						}
					],
					"name": "addressToAmountFunded",
					"outputs": [
						{
							"internalType": "uint256",
							"name": "",
							"type": "uint256"
						}
					],
					"stateMutability": "view",
					"type": "function"
				},
				{
					"inputs": [],
					"name": "fund",
					"outputs": [],
					"stateMutability": "payable",
					"type": "function"
				},
				{
					"inputs": [
						{
							"internalType": "uint256",
							"name": "",
							"type": "uint256"
						}
					],
					"name": "funders",
					"outputs": [
						{
							"internalType": "address",
							"name": "",
							"type": "address"
						}
					],
					"stateMutability": "view",
					"type": "function"
				},
				{
					"inputs": [
						{
							"internalType": "uint256",
							"name": "ethAmount",
							"type": "uint256"
						}
					],
					"name": "getConversionRate",
					"outputs": [
						{
							"internalType": "uint256",
							"name": "",
							"type": "uint256"
						}
					],
					"stateMutability": "view",
					"type": "function"
				},
				{
					"inputs": [],
					"name": "getPrice",
					"outputs": [
						{
							"internalType": "uint256",
							"name": "",
							"type": "uint256"
						}
					],
					"stateMutability": "view",
					"type": "function"
				},
				{
					"inputs": [],
					"name": "getVersion",
					"outputs": [
						{
							"internalType": "uint256",
							"name": "",
							"type": "uint256"
						}
					],
					"stateMutability": "view",
					"type": "function"
				},
				{
					"inputs": [],
					"name": "minimumUsd",
					"outputs": [
						{
							"internalType": "uint256",
							"name": "",
							"type": "uint256"
						}
					],
					"stateMutability": "view",
					"type": "function"
				}
			],
			"devdoc": {
				"kind": "dev",
				"methods": {},
				"version": 1
			},
			"evm": {
				"assembly": "    /* \"FundMe/Lesson04/FundMe.sol\":254:1970  contract FUndMe {... */\n  mstore(0x40, 0x80)\n    /* \"FundMe/Lesson04/FundMe.sol\":372:381  50 * 1e18 */\n  0x02b5e3af16b1880000\n    /* \"FundMe/Lesson04/FundMe.sol\":344:381  uint256 public minimumUsd = 50 * 1e18 */\n  0x00\n  sstore\n    /* \"FundMe/Lesson04/FundMe.sol\":254:1970  contract FUndMe {... */\n  callvalue\n  dup1\n  iszero\n  tag_1\n  jumpi\n  revert(0x00, 0x00)\ntag_1:\n  pop\n  dataSize(sub_0)\n  dup1\n  dataOffset(sub_0)\n  0x00\n  codecopy\n  0x00\n  return\nstop\n\nsub_0: assembly {\n        /* \"FundMe/Lesson04/FundMe.sol\":254:1970  contract FUndMe {... */\n      mstore(0x40, 0x80)\n      jumpi(tag_1, lt(calldatasize, 0x04))\n      shr(0xe0, calldataload(0x00))\n      dup1\n      0x6e5b6b28\n      gt\n      tag_9\n      jumpi\n      dup1\n      0x6e5b6b28\n      eq\n      tag_5\n      jumpi\n      dup1\n      0x98d5fdca\n      eq\n      tag_6\n      jumpi\n      dup1\n      0xb60d4288\n      eq\n      tag_7\n      jumpi\n      dup1\n      0xdc0d3dff\n      eq\n      tag_8\n      jumpi\n      jump(tag_1)\n    tag_9:\n      dup1\n      0x098de820\n      eq\n      tag_2\n      jumpi\n      dup1\n      0x0d8e6e2c\n      eq\n      tag_3\n      jumpi\n      dup1\n      0x3e47d6f3\n      eq\n      tag_4\n      jumpi\n    tag_1:\n      revert(0x00, 0x00)\n        /* \"FundMe/Lesson04/FundMe.sol\":344:381  uint256 public minimumUsd = 50 * 1e18 */\n    tag_2:\n      callvalue\n      dup1\n      iszero\n      tag_10\n      jumpi\n      revert(0x00, 0x00)\n    tag_10:\n      pop\n      tag_11\n      tag_12\n      jump\t// in\n    tag_11:\n      mload(0x40)\n      tag_13\n      swap2\n      swap1\n      tag_14\n      jump\t// in\n    tag_13:\n      mload(0x40)\n      dup1\n      swap2\n      sub\n      swap1\n      return\n        /* \"FundMe/Lesson04/FundMe.sol\":1160:1386  function getVersion() public view returns (uint256) {... */\n    tag_3:\n      callvalue\n      dup1\n      iszero\n      tag_15\n      jumpi\n      revert(0x00, 0x00)\n    tag_15:\n      pop\n      tag_16\n      tag_17\n      jump\t// in\n    tag_16:\n      mload(0x40)\n      tag_18\n      swap2\n      swap1\n      tag_14\n      jump\t// in\n    tag_18:\n      mload(0x40)\n      dup1\n      swap2\n      sub\n      swap1\n      return\n        /* \"FundMe/Lesson04/FundMe.sol\":417:473  mapping(address => uint256) public addressToAmountFunded */\n    tag_4:\n      callvalue\n      dup1\n      iszero\n      tag_19\n      jumpi\n      revert(0x00, 0x00)\n    tag_19:\n      pop\n      tag_20\n      0x04\n      dup1\n      calldatasize\n      sub\n      dup2\n      add\n      swap1\n      tag_21\n      swap2\n      swap1\n      tag_22\n      jump\t// in\n    tag_21:\n      tag_23\n      jump\t// in\n    tag_20:\n      mload(0x40)\n      tag_24\n      swap2\n      swap1\n      tag_14\n      jump\t// in\n    tag_24:\n      mload(0x40)\n      dup1\n      swap2\n      sub\n      swap1\n      return\n        /* \"FundMe/Lesson04/FundMe.sol\":1440:1938  function getConversionRate(uint256 ethAmount)... */\n    tag_5:\n      callvalue\n      dup1\n      iszero\n      tag_25\n      jumpi\n      revert(0x00, 0x00)\n    tag_25:\n      pop\n      tag_26\n      0x04\n      dup1\n      calldatasize\n      sub\n      dup2\n      add\n      swap1\n      tag_27\n      swap2\n      swap1\n      tag_28\n      jump\t// in\n    tag_27:\n      tag_29\n      jump\t// in\n    tag_26:\n      mload(0x40)\n      tag_30\n      swap2\n      swap1\n      tag_14\n      jump\t// in\n    tag_30:\n      mload(0x40)\n      dup1\n      swap2\n      sub\n      swap1\n      return\n        /* \"FundMe/Lesson04/FundMe.sol\":772:1154  function getPrice() public view returns (uint256) {... */\n    tag_6:\n      callvalue\n      dup1\n      iszero\n      tag_31\n      jumpi\n      revert(0x00, 0x00)\n    tag_31:\n      pop\n      tag_32\n      tag_33\n      jump\t// in\n    tag_32:\n      mload(0x40)\n      tag_34\n      swap2\n      swap1\n      tag_14\n      jump\t// in\n    tag_34:\n      mload(0x40)\n      dup1\n      swap2\n      sub\n      swap1\n      return\n        /* \"FundMe/Lesson04/FundMe.sol\":480:766  function fund() public payable {... */\n    tag_7:\n      tag_35\n      tag_36\n      jump\t// in\n    tag_35:\n      stop\n        /* \"FundMe/Lesson04/FundMe.sol\":387:411  address[] public funders */\n    tag_8:\n      callvalue\n      dup1\n      iszero\n      tag_37\n      jumpi\n      revert(0x00, 0x00)\n    tag_37:\n      pop\n      tag_38\n      0x04\n      dup1\n      calldatasize\n      sub\n      dup2\n      add\n      swap1\n      tag_39\n      swap2\n      swap1\n      tag_28\n      jump\t// in\n    tag_39:\n      tag_40\n      jump\t// in\n    tag_38:\n      mload(0x40)\n      tag_41\n      swap2\n      swap1\n      tag_42\n      jump\t// in\n    tag_41:\n      mload(0x40)\n      dup1\n      swap2\n      sub\n      swap1\n      return\n        /* \"FundMe/Lesson04/FundMe.sol\":344:381  uint256 public minimumUsd = 50 * 1e18 */\n    tag_12:\n      sload(0x00)\n      dup2\n      jump\t// out\n        /* \"FundMe/Lesson04/FundMe.sol\":1160:1386  function getVersion() public view returns (uint256) {... */\n    tag_17:\n        /* \"FundMe/Lesson04/FundMe.sol\":1203:1210  uint256 */\n      0x00\n        /* \"FundMe/Lesson04/FundMe.sol\":1222:1253  AggregatorV3Interface priceFeed */\n      0x00\n        /* \"FundMe/Lesson04/FundMe.sol\":1291:1333  0x694AA1769357215DE4FAC081bf1f309aDC325306 */\n      0x694aa1769357215de4fac081bf1f309adc325306\n        /* \"FundMe/Lesson04/FundMe.sol\":1222:1343  AggregatorV3Interface priceFeed = AggregatorV3Interface(... */\n      swap1\n      pop\n        /* \"FundMe/Lesson04/FundMe.sol\":1360:1369  priceFeed */\n      dup1\n        /* \"FundMe/Lesson04/FundMe.sol\":1360:1377  priceFeed.version */\n      0xffffffffffffffffffffffffffffffffffffffff\n      and\n      0x54fd4d50\n        /* \"FundMe/Lesson04/FundMe.sol\":1360:1379  priceFeed.version() */\n      mload(0x40)\n      dup2\n      0xffffffff\n      and\n      0xe0\n      shl\n      dup2\n      mstore\n      0x04\n      add\n      0x20\n      mload(0x40)\n      dup1\n      dup4\n      sub\n      dup2\n      dup7\n      gas\n      staticcall\n      iszero\n      dup1\n      iszero\n      tag_45\n      jumpi\n      returndatacopy(0x00, 0x00, returndatasize)\n      revert(0x00, returndatasize)\n    tag_45:\n      pop\n      pop\n      pop\n      pop\n      mload(0x40)\n      returndatasize\n      not(0x1f)\n      0x1f\n      dup3\n      add\n      and\n      dup3\n      add\n      dup1\n      0x40\n      mstore\n      pop\n      dup2\n      add\n      swap1\n      tag_46\n      swap2\n      swap1\n      tag_47\n      jump\t// in\n    tag_46:\n        /* \"FundMe/Lesson04/FundMe.sol\":1353:1379  return priceFeed.version() */\n      swap2\n      pop\n      pop\n        /* \"FundMe/Lesson04/FundMe.sol\":1160:1386  function getVersion() public view returns (uint256) {... */\n      swap1\n      jump\t// out\n        /* \"FundMe/Lesson04/FundMe.sol\":417:473  mapping(address => uint256) public addressToAmountFunded */\n    tag_23:\n      mstore(0x20, 0x02)\n      dup1\n      0x00\n      mstore\n      keccak256(0x00, 0x40)\n      0x00\n      swap2\n      pop\n      swap1\n      pop\n      sload\n      dup2\n      jump\t// out\n        /* \"FundMe/Lesson04/FundMe.sol\":1440:1938  function getConversionRate(uint256 ethAmount)... */\n    tag_29:\n        /* \"FundMe/Lesson04/FundMe.sol\":1531:1538  uint256 */\n      0x00\n        /* \"FundMe/Lesson04/FundMe.sol\":1554:1570  uint256 ethPrice */\n      0x00\n        /* \"FundMe/Lesson04/FundMe.sol\":1573:1583  getPrice() */\n      tag_49\n        /* \"FundMe/Lesson04/FundMe.sol\":1573:1581  getPrice */\n      tag_33\n        /* \"FundMe/Lesson04/FundMe.sol\":1573:1583  getPrice() */\n      jump\t// in\n    tag_49:\n        /* \"FundMe/Lesson04/FundMe.sol\":1554:1583  uint256 ethPrice = getPrice() */\n      swap1\n      pop\n        /* \"FundMe/Lesson04/FundMe.sol\":1593:1615  uint256 ethAmountInUsd */\n      0x00\n        /* \"FundMe/Lesson04/FundMe.sol\":1643:1647  1e18 */\n      0x0de0b6b3a7640000\n        /* \"FundMe/Lesson04/FundMe.sol\":1630:1639  ethAmount */\n      dup5\n        /* \"FundMe/Lesson04/FundMe.sol\":1619:1627  ethPrice */\n      dup4\n        /* \"FundMe/Lesson04/FundMe.sol\":1619:1639  ethPrice * ethAmount */\n      tag_50\n      swap2\n      swap1\n      tag_51\n      jump\t// in\n    tag_50:\n        /* \"FundMe/Lesson04/FundMe.sol\":1618:1647  (ethPrice * ethAmount) / 1e18 */\n      tag_52\n      swap2\n      swap1\n      tag_53\n      jump\t// in\n    tag_52:\n        /* \"FundMe/Lesson04/FundMe.sol\":1593:1647  uint256 ethAmountInUsd = (ethPrice * ethAmount) / 1e18 */\n      swap1\n      pop\n        /* \"FundMe/Lesson04/FundMe.sol\":1696:1710  ethAmountInUsd */\n      dup1\n        /* \"FundMe/Lesson04/FundMe.sol\":1689:1710  return ethAmountInUsd */\n      swap3\n      pop\n      pop\n      pop\n        /* \"FundMe/Lesson04/FundMe.sol\":1440:1938  function getConversionRate(uint256 ethAmount)... */\n      swap2\n      swap1\n      pop\n      jump\t// out\n        /* \"FundMe/Lesson04/FundMe.sol\":772:1154  function getPrice() public view returns (uint256) {... */\n    tag_33:\n        /* \"FundMe/Lesson04/FundMe.sol\":813:820  uint256 */\n      0x00\n        /* \"FundMe/Lesson04/FundMe.sol\":861:892  AggregatorV3Interface priceFeed */\n      0x00\n        /* \"FundMe/Lesson04/FundMe.sol\":930:972  0x694AA1769357215DE4FAC081bf1f309aDC325306 */\n      0x694aa1769357215de4fac081bf1f309adc325306\n        /* \"FundMe/Lesson04/FundMe.sol\":861:982  AggregatorV3Interface priceFeed = AggregatorV3Interface(... */\n      swap1\n      pop\n        /* \"FundMe/Lesson04/FundMe.sol\":995:1008  int256 answer */\n      0x00\n        /* \"FundMe/Lesson04/FundMe.sol\":1018:1027  priceFeed */\n      dup2\n        /* \"FundMe/Lesson04/FundMe.sol\":1018:1043  priceFeed.latestRoundData */\n      0xffffffffffffffffffffffffffffffffffffffff\n      and\n      0xfeaf968c\n        /* \"FundMe/Lesson04/FundMe.sol\":1018:1045  priceFeed.latestRoundData() */\n      mload(0x40)\n      dup2\n      0xffffffff\n      and\n      0xe0\n      shl\n      dup2\n      mstore\n      0x04\n      add\n      0xa0\n      mload(0x40)\n      dup1\n      dup4\n      sub\n      dup2\n      dup7\n      gas\n      staticcall\n      iszero\n      dup1\n      iszero\n      tag_56\n      jumpi\n      returndatacopy(0x00, 0x00, returndatasize)\n      revert(0x00, returndatasize)\n    tag_56:\n      pop\n      pop\n      pop\n      pop\n      mload(0x40)\n      returndatasize\n      not(0x1f)\n      0x1f\n      dup3\n      add\n      and\n      dup3\n      add\n      dup1\n      0x40\n      mstore\n      pop\n      dup2\n      add\n      swap1\n      tag_57\n      swap2\n      swap1\n      tag_58\n      jump\t// in\n    tag_57:\n        /* \"FundMe/Lesson04/FundMe.sol\":992:1045  (, int256 answer, , , ) = priceFeed.latestRoundData() */\n      pop\n      pop\n      pop\n      swap2\n      pop\n      pop\n        /* \"FundMe/Lesson04/FundMe.sol\":1056:1070  uint8 weiPower */\n      0x00\n        /* \"FundMe/Lesson04/FundMe.sol\":1073:1075  18 */\n      0x12\n        /* \"FundMe/Lesson04/FundMe.sol\":1056:1075  uint8 weiPower = 18 */\n      swap1\n      pop\n        /* \"FundMe/Lesson04/FundMe.sol\":1126:1135  priceFeed */\n      dup3\n        /* \"FundMe/Lesson04/FundMe.sol\":1126:1144  priceFeed.decimals */\n      0xffffffffffffffffffffffffffffffffffffffff\n      and\n      0x313ce567\n        /* \"FundMe/Lesson04/FundMe.sol\":1126:1146  priceFeed.decimals() */\n      mload(0x40)\n      dup2\n      0xffffffff\n      and\n      0xe0\n      shl\n      dup2\n      mstore\n      0x04\n      add\n      0x20\n      mload(0x40)\n      dup1\n      dup4\n      sub\n      dup2\n      dup7\n      gas\n      staticcall\n      iszero\n      dup1\n      iszero\n      tag_60\n      jumpi\n      returndatacopy(0x00, 0x00, returndatasize)\n      revert(0x00, returndatasize)\n    tag_60:\n      pop\n      pop\n      pop\n      pop\n      mload(0x40)\n      returndatasize\n      not(0x1f)\n      0x1f\n      dup3\n      add\n      and\n      dup3\n      add\n      dup1\n      0x40\n      mstore\n      pop\n      dup2\n      add\n      swap1\n      tag_61\n      swap2\n      swap1\n      tag_62\n      jump\t// in\n    tag_61:\n        /* \"FundMe/Lesson04/FundMe.sol\":1115:1123  weiPower */\n      dup2\n        /* \"FundMe/Lesson04/FundMe.sol\":1115:1146  weiPower - priceFeed.decimals() */\n      tag_63\n      swap2\n      swap1\n      tag_64\n      jump\t// in\n    tag_63:\n        /* \"FundMe/Lesson04/FundMe.sol\":1110:1112  10 */\n      0x0a\n        /* \"FundMe/Lesson04/FundMe.sol\":1110:1147  10**(weiPower - priceFeed.decimals()) */\n      tag_65\n      swap2\n      swap1\n      tag_66\n      jump\t// in\n    tag_65:\n        /* \"FundMe/Lesson04/FundMe.sol\":1100:1106  answer */\n      dup3\n        /* \"FundMe/Lesson04/FundMe.sol\":1092:1147  uint256(answer) * 10**(weiPower - priceFeed.decimals()) */\n      tag_67\n      swap2\n      swap1\n      tag_51\n      jump\t// in\n    tag_67:\n        /* \"FundMe/Lesson04/FundMe.sol\":1085:1147  return uint256(answer) * 10**(weiPower - priceFeed.decimals()) */\n      swap4\n      pop\n      pop\n      pop\n      pop\n        /* \"FundMe/Lesson04/FundMe.sol\":772:1154  function getPrice() public view returns (uint256) {... */\n      swap1\n      jump\t// out\n        /* \"FundMe/Lesson04/FundMe.sol\":480:766  function fund() public payable {... */\n    tag_36:\n        /* \"FundMe/Lesson04/FundMe.sol\":615:625  minimumUsd */\n      sload(0x00)\n        /* \"FundMe/Lesson04/FundMe.sol\":542:611  getConversionRate(... */\n      tag_69\n        /* \"FundMe/Lesson04/FundMe.sol\":577:586  msg.value */\n      callvalue\n        /* \"FundMe/Lesson04/FundMe.sol\":542:559  getConversionRate */\n      tag_29\n        /* \"FundMe/Lesson04/FundMe.sol\":542:611  getConversionRate(... */\n      jump\t// in\n    tag_69:\n        /* \"FundMe/Lesson04/FundMe.sol\":542:625  getConversionRate(... */\n      lt\n      iszero\n        /* \"FundMe/Lesson04/FundMe.sol\":521:669  require(... */\n      tag_70\n      jumpi\n      mload(0x40)\n      0x08c379a000000000000000000000000000000000000000000000000000000000\n      dup2\n      mstore\n      0x04\n      add\n      tag_71\n      swap1\n      tag_72\n      jump\t// in\n    tag_71:\n      mload(0x40)\n      dup1\n      swap2\n      sub\n      swap1\n      revert\n    tag_70:\n        /* \"FundMe/Lesson04/FundMe.sol\":679:686  funders */\n      0x01\n        /* \"FundMe/Lesson04/FundMe.sol\":692:702  msg.sender */\n      caller\n        /* \"FundMe/Lesson04/FundMe.sol\":679:703  funders.push(msg.sender) */\n      swap1\n      dup1\n      0x01\n      dup2\n      sload\n      add\n      dup1\n      dup3\n      sstore\n      dup1\n      swap2\n      pop\n      pop\n      0x01\n      swap1\n      sub\n      swap1\n      0x00\n      mstore\n      keccak256(0x00, 0x20)\n      add\n      0x00\n      swap1\n      swap2\n      swap1\n      swap2\n      swap1\n      swap2\n      0x0100\n      exp\n      dup2\n      sload\n      dup2\n      0xffffffffffffffffffffffffffffffffffffffff\n      mul\n      not\n      and\n      swap1\n      dup4\n      0xffffffffffffffffffffffffffffffffffffffff\n      and\n      mul\n      or\n      swap1\n      sstore\n      pop\n        /* \"FundMe/Lesson04/FundMe.sol\":750:759  msg.value */\n      callvalue\n        /* \"FundMe/Lesson04/FundMe.sol\":713:734  addressToAmountFunded */\n      0x02\n        /* \"FundMe/Lesson04/FundMe.sol\":713:746  addressToAmountFunded[msg.sender] */\n      0x00\n        /* \"FundMe/Lesson04/FundMe.sol\":735:745  msg.sender */\n      caller\n        /* \"FundMe/Lesson04/FundMe.sol\":713:746  addressToAmountFunded[msg.sender] */\n      0xffffffffffffffffffffffffffffffffffffffff\n      and\n      0xffffffffffffffffffffffffffffffffffffffff\n      and\n      dup2\n      mstore\n      0x20\n      add\n      swap1\n      dup2\n      mstore\n      0x20\n      add\n      0x00\n      keccak256\n      0x00\n        /* \"FundMe/Lesson04/FundMe.sol\":713:759  addressToAmountFunded[msg.sender] += msg.value */\n      dup3\n      dup3\n      sload\n      tag_74\n      swap2\n      swap1\n      tag_75\n      jump\t// in\n    tag_74:\n      swap3\n      pop\n      pop\n      dup2\n      swap1\n      sstore\n      pop\n        /* \"FundMe/Lesson04/FundMe.sol\":480:766  function fund() public payable {... */\n      jump\t// out\n        /* \"FundMe/Lesson04/FundMe.sol\":387:411  address[] public funders */\n    tag_40:\n      0x01\n      dup2\n      dup2\n      sload\n      dup2\n      lt\n      tag_76\n      jumpi\n      0x00\n      dup1\n      revert\n    tag_76:\n      swap1\n      0x00\n      mstore\n      keccak256(0x00, 0x20)\n      add\n      0x00\n      swap2\n      pop\n      sload\n      swap1\n      0x0100\n      exp\n      swap1\n      div\n      0xffffffffffffffffffffffffffffffffffffffff\n      and\n      dup2\n      jump\t// out\n        /* \"#utility.yul\":7:84   */\n    tag_78:\n        /* \"#utility.yul\":44:51   */\n      0x00\n        /* \"#utility.yul\":73:78   */\n      dup2\n        /* \"#utility.yul\":62:78   */\n      swap1\n      pop\n        /* \"#utility.yul\":7:84   */\n      swap2\n      swap1\n      pop\n      jump\t// out\n        /* \"#utility.yul\":90:208   */\n    tag_79:\n        /* \"#utility.yul\":177:201   */\n      tag_111\n        /* \"#utility.yul\":195:200   */\n      dup2\n        /* \"#utility.yul\":177:201   */\n      tag_78\n      jump\t// in\n    tag_111:\n        /* \"#utility.yul\":172:175   */\n      dup3\n        /* \"#utility.yul\":165:202   */\n      mstore\n        /* \"#utility.yul\":90:208   */\n      pop\n      pop\n      jump\t// out\n        /* \"#utility.yul\":214:436   */\n    tag_14:\n        /* \"#utility.yul\":307:311   */\n      0x00\n        /* \"#utility.yul\":345:347   */\n      0x20\n        /* \"#utility.yul\":334:343   */\n      dup3\n        /* \"#utility.yul\":330:348   */\n      add\n        /* \"#utility.yul\":322:348   */\n      swap1\n      pop\n        /* \"#utility.yul\":358:429   */\n      tag_113\n        /* \"#utility.yul\":426:427   */\n      0x00\n        /* \"#utility.yul\":415:424   */\n      dup4\n        /* \"#utility.yul\":411:428   */\n      add\n        /* \"#utility.yul\":402:408   */\n      dup5\n        /* \"#utility.yul\":358:429   */\n      tag_79\n      jump\t// in\n    tag_113:\n        /* \"#utility.yul\":214:436   */\n      swap3\n      swap2\n      pop\n      pop\n      jump\t// out\n        /* \"#utility.yul\":523:640   */\n    tag_81:\n        /* \"#utility.yul\":632:633   */\n      0x00\n        /* \"#utility.yul\":629:630   */\n      0x00\n        /* \"#utility.yul\":622:634   */\n      revert\n        /* \"#utility.yul\":769:895   */\n    tag_83:\n        /* \"#utility.yul\":806:813   */\n      0x00\n        /* \"#utility.yul\":846:888   */\n      0xffffffffffffffffffffffffffffffffffffffff\n        /* \"#utility.yul\":839:844   */\n      dup3\n        /* \"#utility.yul\":835:889   */\n      and\n        /* \"#utility.yul\":824:889   */\n      swap1\n      pop\n        /* \"#utility.yul\":769:895   */\n      swap2\n      swap1\n      pop\n      jump\t// out\n        /* \"#utility.yul\":901:997   */\n    tag_84:\n        /* \"#utility.yul\":938:945   */\n      0x00\n        /* \"#utility.yul\":967:991   */\n      tag_119\n        /* \"#utility.yul\":985:990   */\n      dup3\n        /* \"#utility.yul\":967:991   */\n      tag_83\n      jump\t// in\n    tag_119:\n        /* \"#utility.yul\":956:991   */\n      swap1\n      pop\n        /* \"#utility.yul\":901:997   */\n      swap2\n      swap1\n      pop\n      jump\t// out\n        /* \"#utility.yul\":1003:1125   */\n    tag_85:\n        /* \"#utility.yul\":1076:1100   */\n      tag_121\n        /* \"#utility.yul\":1094:1099   */\n      dup2\n        /* \"#utility.yul\":1076:1100   */\n      tag_84\n      jump\t// in\n    tag_121:\n        /* \"#utility.yul\":1069:1074   */\n      dup2\n        /* \"#utility.yul\":1066:1101   */\n      eq\n        /* \"#utility.yul\":1056:1119   */\n      tag_122\n      jumpi\n        /* \"#utility.yul\":1115:1116   */\n      0x00\n        /* \"#utility.yul\":1112:1113   */\n      0x00\n        /* \"#utility.yul\":1105:1117   */\n      revert\n        /* \"#utility.yul\":1056:1119   */\n    tag_122:\n        /* \"#utility.yul\":1003:1125   */\n      pop\n      jump\t// out\n        /* \"#utility.yul\":1131:1270   */\n    tag_86:\n        /* \"#utility.yul\":1177:1182   */\n      0x00\n        /* \"#utility.yul\":1215:1221   */\n      dup2\n        /* \"#utility.yul\":1202:1222   */\n      calldataload\n        /* \"#utility.yul\":1193:1222   */\n      swap1\n      pop\n        /* \"#utility.yul\":1231:1264   */\n      tag_124\n        /* \"#utility.yul\":1258:1263   */\n      dup2\n        /* \"#utility.yul\":1231:1264   */\n      tag_85\n      jump\t// in\n    tag_124:\n        /* \"#utility.yul\":1131:1270   */\n      swap3\n      swap2\n      pop\n      pop\n      jump\t// out\n        /* \"#utility.yul\":1276:1605   */\n    tag_22:\n        /* \"#utility.yul\":1335:1341   */\n      0x00\n        /* \"#utility.yul\":1384:1386   */\n      0x20\n        /* \"#utility.yul\":1372:1381   */\n      dup3\n        /* \"#utility.yul\":1363:1370   */\n      dup5\n        /* \"#utility.yul\":1359:1382   */\n      sub\n        /* \"#utility.yul\":1355:1387   */\n      slt\n        /* \"#utility.yul\":1352:1471   */\n      iszero\n      tag_126\n      jumpi\n        /* \"#utility.yul\":1390:1469   */\n      tag_127\n      tag_81\n      jump\t// in\n    tag_127:\n        /* \"#utility.yul\":1352:1471   */\n    tag_126:\n        /* \"#utility.yul\":1510:1511   */\n      0x00\n        /* \"#utility.yul\":1535:1588   */\n      tag_128\n        /* \"#utility.yul\":1580:1587   */\n      dup5\n        /* \"#utility.yul\":1571:1577   */\n      dup3\n        /* \"#utility.yul\":1560:1569   */\n      dup6\n        /* \"#utility.yul\":1556:1578   */\n      add\n        /* \"#utility.yul\":1535:1588   */\n      tag_86\n      jump\t// in\n    tag_128:\n        /* \"#utility.yul\":1525:1588   */\n      swap2\n      pop\n        /* \"#utility.yul\":1481:1598   */\n      pop\n        /* \"#utility.yul\":1276:1605   */\n      swap3\n      swap2\n      pop\n      pop\n      jump\t// out\n        /* \"#utility.yul\":1611:1733   */\n    tag_87:\n        /* \"#utility.yul\":1684:1708   */\n      tag_130\n        /* \"#utility.yul\":1702:1707   */\n      dup2\n        /* \"#utility.yul\":1684:1708   */\n      tag_78\n      jump\t// in\n    tag_130:\n        /* \"#utility.yul\":1677:1682   */\n      dup2\n        /* \"#utility.yul\":1674:1709   */\n      eq\n        /* \"#utility.yul\":1664:1727   */\n      tag_131\n      jumpi\n        /* \"#utility.yul\":1723:1724   */\n      0x00\n        /* \"#utility.yul\":1720:1721   */\n      0x00\n        /* \"#utility.yul\":1713:1725   */\n      revert\n        /* \"#utility.yul\":1664:1727   */\n    tag_131:\n        /* \"#utility.yul\":1611:1733   */\n      pop\n      jump\t// out\n        /* \"#utility.yul\":1739:1878   */\n    tag_88:\n        /* \"#utility.yul\":1785:1790   */\n      0x00\n        /* \"#utility.yul\":1823:1829   */\n      dup2\n        /* \"#utility.yul\":1810:1830   */\n      calldataload\n        /* \"#utility.yul\":1801:1830   */\n      swap1\n      pop\n        /* \"#utility.yul\":1839:1872   */\n      tag_133\n        /* \"#utility.yul\":1866:1871   */\n      dup2\n        /* \"#utility.yul\":1839:1872   */\n      tag_87\n      jump\t// in\n    tag_133:\n        /* \"#utility.yul\":1739:1878   */\n      swap3\n      swap2\n      pop\n      pop\n      jump\t// out\n        /* \"#utility.yul\":1884:2213   */\n    tag_28:\n        /* \"#utility.yul\":1943:1949   */\n      0x00\n        /* \"#utility.yul\":1992:1994   */\n      0x20\n        /* \"#utility.yul\":1980:1989   */\n      dup3\n        /* \"#utility.yul\":1971:1978   */\n      dup5\n        /* \"#utility.yul\":1967:1990   */\n      sub\n        /* \"#utility.yul\":1963:1995   */\n      slt\n        /* \"#utility.yul\":1960:2079   */\n      iszero\n      tag_135\n      jumpi\n        /* \"#utility.yul\":1998:2077   */\n      tag_136\n      tag_81\n      jump\t// in\n    tag_136:\n        /* \"#utility.yul\":1960:2079   */\n    tag_135:\n        /* \"#utility.yul\":2118:2119   */\n      0x00\n        /* \"#utility.yul\":2143:2196   */\n      tag_137\n        /* \"#utility.yul\":2188:2195   */\n      dup5\n        /* \"#utility.yul\":2179:2185   */\n      dup3\n        /* \"#utility.yul\":2168:2177   */\n      dup6\n        /* \"#utility.yul\":2164:2186   */\n      add\n        /* \"#utility.yul\":2143:2196   */\n      tag_88\n      jump\t// in\n    tag_137:\n        /* \"#utility.yul\":2133:2196   */\n      swap2\n      pop\n        /* \"#utility.yul\":2089:2206   */\n      pop\n        /* \"#utility.yul\":1884:2213   */\n      swap3\n      swap2\n      pop\n      pop\n      jump\t// out\n        /* \"#utility.yul\":2219:2337   */\n    tag_89:\n        /* \"#utility.yul\":2306:2330   */\n      tag_139\n        /* \"#utility.yul\":2324:2329   */\n      dup2\n        /* \"#utility.yul\":2306:2330   */\n      tag_84\n      jump\t// in\n    tag_139:\n        /* \"#utility.yul\":2301:2304   */\n      dup3\n        /* \"#utility.yul\":2294:2331   */\n      mstore\n        /* \"#utility.yul\":2219:2337   */\n      pop\n      pop\n      jump\t// out\n        /* \"#utility.yul\":2343:2565   */\n    tag_42:\n        /* \"#utility.yul\":2436:2440   */\n      0x00\n        /* \"#utility.yul\":2474:2476   */\n      0x20\n        /* \"#utility.yul\":2463:2472   */\n      dup3\n        /* \"#utility.yul\":2459:2477   */\n      add\n        /* \"#utility.yul\":2451:2477   */\n      swap1\n      pop\n        /* \"#utility.yul\":2487:2558   */\n      tag_141\n        /* \"#utility.yul\":2555:2556   */\n      0x00\n        /* \"#utility.yul\":2544:2553   */\n      dup4\n        /* \"#utility.yul\":2540:2557   */\n      add\n        /* \"#utility.yul\":2531:2537   */\n      dup5\n        /* \"#utility.yul\":2487:2558   */\n      tag_89\n      jump\t// in\n    tag_141:\n        /* \"#utility.yul\":2343:2565   */\n      swap3\n      swap2\n      pop\n      pop\n      jump\t// out\n        /* \"#utility.yul\":2571:2714   */\n    tag_90:\n        /* \"#utility.yul\":2628:2633   */\n      0x00\n        /* \"#utility.yul\":2659:2665   */\n      dup2\n        /* \"#utility.yul\":2653:2666   */\n      mload\n        /* \"#utility.yul\":2644:2666   */\n      swap1\n      pop\n        /* \"#utility.yul\":2675:2708   */\n      tag_143\n        /* \"#utility.yul\":2702:2707   */\n      dup2\n        /* \"#utility.yul\":2675:2708   */\n      tag_87\n      jump\t// in\n    tag_143:\n        /* \"#utility.yul\":2571:2714   */\n      swap3\n      swap2\n      pop\n      pop\n      jump\t// out\n        /* \"#utility.yul\":2720:3071   */\n    tag_47:\n        /* \"#utility.yul\":2790:2796   */\n      0x00\n        /* \"#utility.yul\":2839:2841   */\n      0x20\n        /* \"#utility.yul\":2827:2836   */\n      dup3\n        /* \"#utility.yul\":2818:2825   */\n      dup5\n        /* \"#utility.yul\":2814:2837   */\n      sub\n        /* \"#utility.yul\":2810:2842   */\n      slt\n        /* \"#utility.yul\":2807:2926   */\n      iszero\n      tag_145\n      jumpi\n        /* \"#utility.yul\":2845:2924   */\n      tag_146\n      tag_81\n      jump\t// in\n    tag_146:\n        /* \"#utility.yul\":2807:2926   */\n    tag_145:\n        /* \"#utility.yul\":2965:2966   */\n      0x00\n        /* \"#utility.yul\":2990:3054   */\n      tag_147\n        /* \"#utility.yul\":3046:3053   */\n      dup5\n        /* \"#utility.yul\":3037:3043   */\n      dup3\n        /* \"#utility.yul\":3026:3035   */\n      dup6\n        /* \"#utility.yul\":3022:3044   */\n      add\n        /* \"#utility.yul\":2990:3054   */\n      tag_90\n      jump\t// in\n    tag_147:\n        /* \"#utility.yul\":2980:3054   */\n      swap2\n      pop\n        /* \"#utility.yul\":2936:3064   */\n      pop\n        /* \"#utility.yul\":2720:3071   */\n      swap3\n      swap2\n      pop\n      pop\n      jump\t// out\n        /* \"#utility.yul\":3077:3257   */\n    tag_91:\n        /* \"#utility.yul\":3125:3202   */\n      0x4e487b7100000000000000000000000000000000000000000000000000000000\n        /* \"#utility.yul\":3122:3123   */\n      0x00\n        /* \"#utility.yul\":3115:3203   */\n      mstore\n        /* \"#utility.yul\":3222:3226   */\n      0x11\n        /* \"#utility.yul\":3219:3220   */\n      0x04\n        /* \"#utility.yul\":3212:3227   */\n      mstore\n        /* \"#utility.yul\":3246:3250   */\n      0x24\n        /* \"#utility.yul\":3243:3244   */\n      0x00\n        /* \"#utility.yul\":3236:3251   */\n      revert\n        /* \"#utility.yul\":3263:3673   */\n    tag_51:\n        /* \"#utility.yul\":3303:3310   */\n      0x00\n        /* \"#utility.yul\":3326:3346   */\n      tag_150\n        /* \"#utility.yul\":3344:3345   */\n      dup3\n        /* \"#utility.yul\":3326:3346   */\n      tag_78\n      jump\t// in\n    tag_150:\n        /* \"#utility.yul\":3321:3346   */\n      swap2\n      pop\n        /* \"#utility.yul\":3360:3380   */\n      tag_151\n        /* \"#utility.yul\":3378:3379   */\n      dup4\n        /* \"#utility.yul\":3360:3380   */\n      tag_78\n      jump\t// in\n    tag_151:\n        /* \"#utility.yul\":3355:3380   */\n      swap3\n      pop\n        /* \"#utility.yul\":3415:3416   */\n      dup3\n        /* \"#utility.yul\":3412:3413   */\n      dup3\n        /* \"#utility.yul\":3408:3417   */\n      mul\n        /* \"#utility.yul\":3437:3467   */\n      tag_152\n        /* \"#utility.yul\":3455:3466   */\n      dup2\n        /* \"#utility.yul\":3437:3467   */\n      tag_78\n      jump\t// in\n    tag_152:\n        /* \"#utility.yul\":3426:3467   */\n      swap2\n      pop\n        /* \"#utility.yul\":3616:3617   */\n      dup3\n        /* \"#utility.yul\":3607:3614   */\n      dup3\n        /* \"#utility.yul\":3603:3618   */\n      div\n        /* \"#utility.yul\":3600:3601   */\n      dup5\n        /* \"#utility.yul\":3597:3619   */\n      eq\n        /* \"#utility.yul\":3577:3578   */\n      dup4\n        /* \"#utility.yul\":3570:3579   */\n      iszero\n        /* \"#utility.yul\":3550:3633   */\n      or\n        /* \"#utility.yul\":3527:3666   */\n      tag_153\n      jumpi\n        /* \"#utility.yul\":3646:3664   */\n      tag_154\n      tag_91\n      jump\t// in\n    tag_154:\n        /* \"#utility.yul\":3527:3666   */\n    tag_153:\n        /* \"#utility.yul\":3311:3673   */\n      pop\n        /* \"#utility.yul\":3263:3673   */\n      swap3\n      swap2\n      pop\n      pop\n      jump\t// out\n        /* \"#utility.yul\":3679:3859   */\n    tag_92:\n        /* \"#utility.yul\":3727:3804   */\n      0x4e487b7100000000000000000000000000000000000000000000000000000000\n        /* \"#utility.yul\":3724:3725   */\n      0x00\n        /* \"#utility.yul\":3717:3805   */\n      mstore\n        /* \"#utility.yul\":3824:3828   */\n      0x12\n        /* \"#utility.yul\":3821:3822   */\n      0x04\n        /* \"#utility.yul\":3814:3829   */\n      mstore\n        /* \"#utility.yul\":3848:3852   */\n      0x24\n        /* \"#utility.yul\":3845:3846   */\n      0x00\n        /* \"#utility.yul\":3838:3853   */\n      revert\n        /* \"#utility.yul\":3865:4050   */\n    tag_53:\n        /* \"#utility.yul\":3905:3906   */\n      0x00\n        /* \"#utility.yul\":3922:3942   */\n      tag_157\n        /* \"#utility.yul\":3940:3941   */\n      dup3\n        /* \"#utility.yul\":3922:3942   */\n      tag_78\n      jump\t// in\n    tag_157:\n        /* \"#utility.yul\":3917:3942   */\n      swap2\n      pop\n        /* \"#utility.yul\":3956:3976   */\n      tag_158\n        /* \"#utility.yul\":3974:3975   */\n      dup4\n        /* \"#utility.yul\":3956:3976   */\n      tag_78\n      jump\t// in\n    tag_158:\n        /* \"#utility.yul\":3951:3976   */\n      swap3\n      pop\n        /* \"#utility.yul\":3995:3996   */\n      dup3\n        /* \"#utility.yul\":3985:4020   */\n      tag_159\n      jumpi\n        /* \"#utility.yul\":4000:4018   */\n      tag_160\n      tag_92\n      jump\t// in\n    tag_160:\n        /* \"#utility.yul\":3985:4020   */\n    tag_159:\n        /* \"#utility.yul\":4042:4043   */\n      dup3\n        /* \"#utility.yul\":4039:4040   */\n      dup3\n        /* \"#utility.yul\":4035:4044   */\n      div\n        /* \"#utility.yul\":4030:4044   */\n      swap1\n      pop\n        /* \"#utility.yul\":3865:4050   */\n      swap3\n      swap2\n      pop\n      pop\n      jump\t// out\n        /* \"#utility.yul\":4056:4161   */\n    tag_93:\n        /* \"#utility.yul\":4092:4099   */\n      0x00\n        /* \"#utility.yul\":4132:4154   */\n      0xffffffffffffffffffff\n        /* \"#utility.yul\":4125:4130   */\n      dup3\n        /* \"#utility.yul\":4121:4155   */\n      and\n        /* \"#utility.yul\":4110:4155   */\n      swap1\n      pop\n        /* \"#utility.yul\":4056:4161   */\n      swap2\n      swap1\n      pop\n      jump\t// out\n        /* \"#utility.yul\":4167:4287   */\n    tag_94:\n        /* \"#utility.yul\":4239:4262   */\n      tag_163\n        /* \"#utility.yul\":4256:4261   */\n      dup2\n        /* \"#utility.yul\":4239:4262   */\n      tag_93\n      jump\t// in\n    tag_163:\n        /* \"#utility.yul\":4232:4237   */\n      dup2\n        /* \"#utility.yul\":4229:4263   */\n      eq\n        /* \"#utility.yul\":4219:4281   */\n      tag_164\n      jumpi\n        /* \"#utility.yul\":4277:4278   */\n      0x00\n        /* \"#utility.yul\":4274:4275   */\n      0x00\n        /* \"#utility.yul\":4267:4279   */\n      revert\n        /* \"#utility.yul\":4219:4281   */\n    tag_164:\n        /* \"#utility.yul\":4167:4287   */\n      pop\n      jump\t// out\n        /* \"#utility.yul\":4293:4434   */\n    tag_95:\n        /* \"#utility.yul\":4349:4354   */\n      0x00\n        /* \"#utility.yul\":4380:4386   */\n      dup2\n        /* \"#utility.yul\":4374:4387   */\n      mload\n        /* \"#utility.yul\":4365:4387   */\n      swap1\n      pop\n        /* \"#utility.yul\":4396:4428   */\n      tag_166\n        /* \"#utility.yul\":4422:4427   */\n      dup2\n        /* \"#utility.yul\":4396:4428   */\n      tag_94\n      jump\t// in\n    tag_166:\n        /* \"#utility.yul\":4293:4434   */\n      swap3\n      swap2\n      pop\n      pop\n      jump\t// out\n        /* \"#utility.yul\":4440:4516   */\n    tag_96:\n        /* \"#utility.yul\":4476:4483   */\n      0x00\n        /* \"#utility.yul\":4505:4510   */\n      dup2\n        /* \"#utility.yul\":4494:4510   */\n      swap1\n      pop\n        /* \"#utility.yul\":4440:4516   */\n      swap2\n      swap1\n      pop\n      jump\t// out\n        /* \"#utility.yul\":4522:4642   */\n    tag_97:\n        /* \"#utility.yul\":4594:4617   */\n      tag_169\n        /* \"#utility.yul\":4611:4616   */\n      dup2\n        /* \"#utility.yul\":4594:4617   */\n      tag_96\n      jump\t// in\n    tag_169:\n        /* \"#utility.yul\":4587:4592   */\n      dup2\n        /* \"#utility.yul\":4584:4618   */\n      eq\n        /* \"#utility.yul\":4574:4636   */\n      tag_170\n      jumpi\n        /* \"#utility.yul\":4632:4633   */\n      0x00\n        /* \"#utility.yul\":4629:4630   */\n      0x00\n        /* \"#utility.yul\":4622:4634   */\n      revert\n        /* \"#utility.yul\":4574:4636   */\n    tag_170:\n        /* \"#utility.yul\":4522:4642   */\n      pop\n      jump\t// out\n        /* \"#utility.yul\":4648:4789   */\n    tag_98:\n        /* \"#utility.yul\":4704:4709   */\n      0x00\n        /* \"#utility.yul\":4735:4741   */\n      dup2\n        /* \"#utility.yul\":4729:4742   */\n      mload\n        /* \"#utility.yul\":4720:4742   */\n      swap1\n      pop\n        /* \"#utility.yul\":4751:4783   */\n      tag_172\n        /* \"#utility.yul\":4777:4782   */\n      dup2\n        /* \"#utility.yul\":4751:4783   */\n      tag_97\n      jump\t// in\n    tag_172:\n        /* \"#utility.yul\":4648:4789   */\n      swap3\n      swap2\n      pop\n      pop\n      jump\t// out\n        /* \"#utility.yul\":4795:5766   */\n    tag_58:\n        /* \"#utility.yul\":4898:4904   */\n      0x00\n        /* \"#utility.yul\":4906:4912   */\n      0x00\n        /* \"#utility.yul\":4914:4920   */\n      0x00\n        /* \"#utility.yul\":4922:4928   */\n      0x00\n        /* \"#utility.yul\":4930:4936   */\n      0x00\n        /* \"#utility.yul\":4979:4982   */\n      0xa0\n        /* \"#utility.yul\":4967:4976   */\n      dup7\n        /* \"#utility.yul\":4958:4965   */\n      dup9\n        /* \"#utility.yul\":4954:4977   */\n      sub\n        /* \"#utility.yul\":4950:4983   */\n      slt\n        /* \"#utility.yul\":4947:5067   */\n      iszero\n      tag_174\n      jumpi\n        /* \"#utility.yul\":4986:5065   */\n      tag_175\n      tag_81\n      jump\t// in\n    tag_175:\n        /* \"#utility.yul\":4947:5067   */\n    tag_174:\n        /* \"#utility.yul\":5106:5107   */\n      0x00\n        /* \"#utility.yul\":5131:5194   */\n      tag_176\n        /* \"#utility.yul\":5186:5193   */\n      dup9\n        /* \"#utility.yul\":5177:5183   */\n      dup3\n        /* \"#utility.yul\":5166:5175   */\n      dup10\n        /* \"#utility.yul\":5162:5184   */\n      add\n        /* \"#utility.yul\":5131:5194   */\n      tag_95\n      jump\t// in\n    tag_176:\n        /* \"#utility.yul\":5121:5194   */\n      swap6\n      pop\n        /* \"#utility.yul\":5077:5204   */\n      pop\n        /* \"#utility.yul\":5243:5245   */\n      0x20\n        /* \"#utility.yul\":5269:5332   */\n      tag_177\n        /* \"#utility.yul\":5324:5331   */\n      dup9\n        /* \"#utility.yul\":5315:5321   */\n      dup3\n        /* \"#utility.yul\":5304:5313   */\n      dup10\n        /* \"#utility.yul\":5300:5322   */\n      add\n        /* \"#utility.yul\":5269:5332   */\n      tag_98\n      jump\t// in\n    tag_177:\n        /* \"#utility.yul\":5259:5332   */\n      swap5\n      pop\n        /* \"#utility.yul\":5214:5342   */\n      pop\n        /* \"#utility.yul\":5381:5383   */\n      0x40\n        /* \"#utility.yul\":5407:5471   */\n      tag_178\n        /* \"#utility.yul\":5463:5470   */\n      dup9\n        /* \"#utility.yul\":5454:5460   */\n      dup3\n        /* \"#utility.yul\":5443:5452   */\n      dup10\n        /* \"#utility.yul\":5439:5461   */\n      add\n        /* \"#utility.yul\":5407:5471   */\n      tag_90\n      jump\t// in\n    tag_178:\n        /* \"#utility.yul\":5397:5471   */\n      swap4\n      pop\n        /* \"#utility.yul\":5352:5481   */\n      pop\n        /* \"#utility.yul\":5520:5522   */\n      0x60\n        /* \"#utility.yul\":5546:5610   */\n      tag_179\n        /* \"#utility.yul\":5602:5609   */\n      dup9\n        /* \"#utility.yul\":5593:5599   */\n      dup3\n        /* \"#utility.yul\":5582:5591   */\n      dup10\n        /* \"#utility.yul\":5578:5600   */\n      add\n        /* \"#utility.yul\":5546:5610   */\n      tag_90\n      jump\t// in\n    tag_179:\n        /* \"#utility.yul\":5536:5610   */\n      swap3\n      pop\n        /* \"#utility.yul\":5491:5620   */\n      pop\n        /* \"#utility.yul\":5659:5662   */\n      0x80\n        /* \"#utility.yul\":5686:5749   */\n      tag_180\n        /* \"#utility.yul\":5741:5748   */\n      dup9\n        /* \"#utility.yul\":5732:5738   */\n      dup3\n        /* \"#utility.yul\":5721:5730   */\n      dup10\n        /* \"#utility.yul\":5717:5739   */\n      add\n        /* \"#utility.yul\":5686:5749   */\n      tag_95\n      jump\t// in\n    tag_180:\n        /* \"#utility.yul\":5676:5749   */\n      swap2\n      pop\n        /* \"#utility.yul\":5630:5759   */\n      pop\n        /* \"#utility.yul\":4795:5766   */\n      swap3\n      swap6\n      pop\n      swap3\n      swap6\n      swap1\n      swap4\n      pop\n      jump\t// out\n        /* \"#utility.yul\":5772:5858   */\n    tag_99:\n        /* \"#utility.yul\":5807:5814   */\n      0x00\n        /* \"#utility.yul\":5847:5851   */\n      0xff\n        /* \"#utility.yul\":5840:5845   */\n      dup3\n        /* \"#utility.yul\":5836:5852   */\n      and\n        /* \"#utility.yul\":5825:5852   */\n      swap1\n      pop\n        /* \"#utility.yul\":5772:5858   */\n      swap2\n      swap1\n      pop\n      jump\t// out\n        /* \"#utility.yul\":5864:5982   */\n    tag_100:\n        /* \"#utility.yul\":5935:5957   */\n      tag_183\n        /* \"#utility.yul\":5951:5956   */\n      dup2\n        /* \"#utility.yul\":5935:5957   */\n      tag_99\n      jump\t// in\n    tag_183:\n        /* \"#utility.yul\":5928:5933   */\n      dup2\n        /* \"#utility.yul\":5925:5958   */\n      eq\n        /* \"#utility.yul\":5915:5976   */\n      tag_184\n      jumpi\n        /* \"#utility.yul\":5972:5973   */\n      0x00\n        /* \"#utility.yul\":5969:5970   */\n      0x00\n        /* \"#utility.yul\":5962:5974   */\n      revert\n        /* \"#utility.yul\":5915:5976   */\n    tag_184:\n        /* \"#utility.yul\":5864:5982   */\n      pop\n      jump\t// out\n        /* \"#utility.yul\":5988:6127   */\n    tag_101:\n        /* \"#utility.yul\":6043:6048   */\n      0x00\n        /* \"#utility.yul\":6074:6080   */\n      dup2\n        /* \"#utility.yul\":6068:6081   */\n      mload\n        /* \"#utility.yul\":6059:6081   */\n      swap1\n      pop\n        /* \"#utility.yul\":6090:6121   */\n      tag_186\n        /* \"#utility.yul\":6115:6120   */\n      dup2\n        /* \"#utility.yul\":6090:6121   */\n      tag_100\n      jump\t// in\n    tag_186:\n        /* \"#utility.yul\":5988:6127   */\n      swap3\n      swap2\n      pop\n      pop\n      jump\t// out\n        /* \"#utility.yul\":6133:6480   */\n    tag_62:\n        /* \"#utility.yul\":6201:6207   */\n      0x00\n        /* \"#utility.yul\":6250:6252   */\n      0x20\n        /* \"#utility.yul\":6238:6247   */\n      dup3\n        /* \"#utility.yul\":6229:6236   */\n      dup5\n        /* \"#utility.yul\":6225:6248   */\n      sub\n        /* \"#utility.yul\":6221:6253   */\n      slt\n        /* \"#utility.yul\":6218:6337   */\n      iszero\n      tag_188\n      jumpi\n        /* \"#utility.yul\":6256:6335   */\n      tag_189\n      tag_81\n      jump\t// in\n    tag_189:\n        /* \"#utility.yul\":6218:6337   */\n    tag_188:\n        /* \"#utility.yul\":6376:6377   */\n      0x00\n        /* \"#utility.yul\":6401:6463   */\n      tag_190\n        /* \"#utility.yul\":6455:6462   */\n      dup5\n        /* \"#utility.yul\":6446:6452   */\n      dup3\n        /* \"#utility.yul\":6435:6444   */\n      dup6\n        /* \"#utility.yul\":6431:6453   */\n      add\n        /* \"#utility.yul\":6401:6463   */\n      tag_101\n      jump\t// in\n    tag_190:\n        /* \"#utility.yul\":6391:6463   */\n      swap2\n      pop\n        /* \"#utility.yul\":6347:6473   */\n      pop\n        /* \"#utility.yul\":6133:6480   */\n      swap3\n      swap2\n      pop\n      pop\n      jump\t// out\n        /* \"#utility.yul\":6486:6677   */\n    tag_64:\n        /* \"#utility.yul\":6524:6528   */\n      0x00\n        /* \"#utility.yul\":6544:6562   */\n      tag_192\n        /* \"#utility.yul\":6560:6561   */\n      dup3\n        /* \"#utility.yul\":6544:6562   */\n      tag_99\n      jump\t// in\n    tag_192:\n        /* \"#utility.yul\":6539:6562   */\n      swap2\n      pop\n        /* \"#utility.yul\":6576:6594   */\n      tag_193\n        /* \"#utility.yul\":6592:6593   */\n      dup4\n        /* \"#utility.yul\":6576:6594   */\n      tag_99\n      jump\t// in\n    tag_193:\n        /* \"#utility.yul\":6571:6594   */\n      swap3\n      pop\n        /* \"#utility.yul\":6618:6619   */\n      dup3\n        /* \"#utility.yul\":6615:6616   */\n      dup3\n        /* \"#utility.yul\":6611:6620   */\n      sub\n        /* \"#utility.yul\":6603:6620   */\n      swap1\n      pop\n        /* \"#utility.yul\":6642:6646   */\n      0xff\n        /* \"#utility.yul\":6636:6640   */\n      dup2\n        /* \"#utility.yul\":6633:6647   */\n      gt\n        /* \"#utility.yul\":6630:6670   */\n      iszero\n      tag_194\n      jumpi\n        /* \"#utility.yul\":6650:6668   */\n      tag_195\n      tag_91\n      jump\t// in\n    tag_195:\n        /* \"#utility.yul\":6630:6670   */\n    tag_194:\n        /* \"#utility.yul\":6486:6677   */\n      swap3\n      swap2\n      pop\n      pop\n      jump\t// out\n        /* \"#utility.yul\":6683:6785   */\n    tag_102:\n        /* \"#utility.yul\":6725:6733   */\n      0x00\n        /* \"#utility.yul\":6772:6777   */\n      dup2\n        /* \"#utility.yul\":6769:6770   */\n      0x01\n        /* \"#utility.yul\":6765:6778   */\n      shr\n        /* \"#utility.yul\":6744:6778   */\n      swap1\n      pop\n        /* \"#utility.yul\":6683:6785   */\n      swap2\n      swap1\n      pop\n      jump\t// out\n        /* \"#utility.yul\":6791:7639   */\n    tag_103:\n        /* \"#utility.yul\":6852:6857   */\n      0x00\n        /* \"#utility.yul\":6859:6863   */\n      0x00\n        /* \"#utility.yul\":6883:6889   */\n      dup3\n        /* \"#utility.yul\":6874:6889   */\n      swap2\n      pop\n        /* \"#utility.yul\":6907:6912   */\n      dup4\n        /* \"#utility.yul\":6898:6912   */\n      swap1\n      pop\n        /* \"#utility.yul\":6921:7633   */\n    tag_198:\n        /* \"#utility.yul\":6942:6943   */\n      0x01\n        /* \"#utility.yul\":6932:6940   */\n      dup6\n        /* \"#utility.yul\":6929:6944   */\n      gt\n        /* \"#utility.yul\":6921:7633   */\n      iszero\n      tag_200\n      jumpi\n        /* \"#utility.yul\":7037:7041   */\n      dup1\n        /* \"#utility.yul\":7032:7035   */\n      dup7\n        /* \"#utility.yul\":7028:7042   */\n      div\n        /* \"#utility.yul\":7022:7026   */\n      dup2\n        /* \"#utility.yul\":7019:7043   */\n      gt\n        /* \"#utility.yul\":7016:7066   */\n      iszero\n      tag_201\n      jumpi\n        /* \"#utility.yul\":7046:7064   */\n      tag_202\n      tag_91\n      jump\t// in\n    tag_202:\n        /* \"#utility.yul\":7016:7066   */\n    tag_201:\n        /* \"#utility.yul\":7096:7097   */\n      0x01\n        /* \"#utility.yul\":7086:7094   */\n      dup6\n        /* \"#utility.yul\":7082:7098   */\n      and\n        /* \"#utility.yul\":7079:7530   */\n      iszero\n      tag_203\n      jumpi\n        /* \"#utility.yul\":7511:7515   */\n      dup1\n        /* \"#utility.yul\":7504:7509   */\n      dup3\n        /* \"#utility.yul\":7500:7516   */\n      mul\n        /* \"#utility.yul\":7491:7516   */\n      swap2\n      pop\n        /* \"#utility.yul\":7079:7530   */\n    tag_203:\n        /* \"#utility.yul\":7561:7565   */\n      dup1\n        /* \"#utility.yul\":7555:7559   */\n      dup2\n        /* \"#utility.yul\":7551:7566   */\n      mul\n        /* \"#utility.yul\":7543:7566   */\n      swap1\n      pop\n        /* \"#utility.yul\":7591:7623   */\n      tag_204\n        /* \"#utility.yul\":7614:7622   */\n      dup6\n        /* \"#utility.yul\":7591:7623   */\n      tag_102\n      jump\t// in\n    tag_204:\n        /* \"#utility.yul\":7579:7623   */\n      swap5\n      pop\n        /* \"#utility.yul\":6921:7633   */\n      jump(tag_198)\n    tag_200:\n        /* \"#utility.yul\":6791:7639   */\n      swap5\n      pop\n      swap5\n      swap3\n      pop\n      pop\n      pop\n      jump\t// out\n        /* \"#utility.yul\":7645:8718   */\n    tag_104:\n        /* \"#utility.yul\":7699:7704   */\n      0x00\n        /* \"#utility.yul\":7890:7898   */\n      dup3\n        /* \"#utility.yul\":7880:7920   */\n      tag_206\n      jumpi\n        /* \"#utility.yul\":7911:7912   */\n      0x01\n        /* \"#utility.yul\":7902:7912   */\n      swap1\n      pop\n        /* \"#utility.yul\":7913:7918   */\n      jump(tag_205)\n        /* \"#utility.yul\":7880:7920   */\n    tag_206:\n        /* \"#utility.yul\":7939:7943   */\n      dup2\n        /* \"#utility.yul\":7929:7965   */\n      tag_207\n      jumpi\n        /* \"#utility.yul\":7956:7957   */\n      0x00\n        /* \"#utility.yul\":7947:7957   */\n      swap1\n      pop\n        /* \"#utility.yul\":7958:7963   */\n      jump(tag_205)\n        /* \"#utility.yul\":7929:7965   */\n    tag_207:\n        /* \"#utility.yul\":8025:8029   */\n      dup2\n        /* \"#utility.yul\":8073:8074   */\n      0x01\n        /* \"#utility.yul\":8068:8095   */\n      dup2\n      eq\n      tag_209\n      jumpi\n        /* \"#utility.yul\":8109:8110   */\n      0x02\n        /* \"#utility.yul\":8104:8295   */\n      dup2\n      eq\n      tag_210\n      jumpi\n        /* \"#utility.yul\":8018:8295   */\n      jump(tag_208)\n        /* \"#utility.yul\":8068:8095   */\n    tag_209:\n        /* \"#utility.yul\":8086:8087   */\n      0x01\n        /* \"#utility.yul\":8077:8087   */\n      swap2\n      pop\n        /* \"#utility.yul\":8088:8093   */\n      pop\n      jump(tag_205)\n        /* \"#utility.yul\":8104:8295   */\n    tag_210:\n        /* \"#utility.yul\":8149:8152   */\n      0xff\n        /* \"#utility.yul\":8139:8147   */\n      dup5\n        /* \"#utility.yul\":8136:8153   */\n      gt\n        /* \"#utility.yul\":8133:8176   */\n      iszero\n      tag_211\n      jumpi\n        /* \"#utility.yul\":8156:8174   */\n      tag_212\n      tag_91\n      jump\t// in\n    tag_212:\n        /* \"#utility.yul\":8133:8176   */\n    tag_211:\n        /* \"#utility.yul\":8205:8213   */\n      dup4\n        /* \"#utility.yul\":8202:8203   */\n      0x02\n        /* \"#utility.yul\":8198:8214   */\n      exp\n        /* \"#utility.yul\":8189:8214   */\n      swap2\n      pop\n        /* \"#utility.yul\":8240:8243   */\n      dup5\n        /* \"#utility.yul\":8233:8238   */\n      dup3\n        /* \"#utility.yul\":8230:8244   */\n      gt\n        /* \"#utility.yul\":8227:8267   */\n      iszero\n      tag_213\n      jumpi\n        /* \"#utility.yul\":8247:8265   */\n      tag_214\n      tag_91\n      jump\t// in\n    tag_214:\n        /* \"#utility.yul\":8227:8267   */\n    tag_213:\n        /* \"#utility.yul\":8280:8285   */\n      pop\n      jump(tag_205)\n        /* \"#utility.yul\":8018:8295   */\n    tag_208:\n      pop\n        /* \"#utility.yul\":8404:8406   */\n      0x20\n        /* \"#utility.yul\":8394:8402   */\n      dup4\n        /* \"#utility.yul\":8391:8407   */\n      lt\n        /* \"#utility.yul\":8385:8388   */\n      0x0133\n        /* \"#utility.yul\":8379:8383   */\n      dup4\n        /* \"#utility.yul\":8376:8389   */\n      lt\n        /* \"#utility.yul\":8372:8408   */\n      and\n        /* \"#utility.yul\":8354:8356   */\n      0x4e\n        /* \"#utility.yul\":8344:8352   */\n      dup5\n        /* \"#utility.yul\":8341:8357   */\n      lt\n        /* \"#utility.yul\":8336:8338   */\n      0x0b\n        /* \"#utility.yul\":8330:8334   */\n      dup5\n        /* \"#utility.yul\":8327:8339   */\n      lt\n        /* \"#utility.yul\":8323:8358   */\n      and\n        /* \"#utility.yul\":8307:8418   */\n      or\n        /* \"#utility.yul\":8304:8550   */\n      iszero\n      tag_215\n      jumpi\n        /* \"#utility.yul\":8460:8468   */\n      dup3\n        /* \"#utility.yul\":8454:8458   */\n      dup3\n        /* \"#utility.yul\":8450:8469   */\n      exp\n        /* \"#utility.yul\":8441:8469   */\n      swap1\n      pop\n        /* \"#utility.yul\":8495:8498   */\n      dup4\n        /* \"#utility.yul\":8488:8493   */\n      dup2\n        /* \"#utility.yul\":8485:8499   */\n      gt\n        /* \"#utility.yul\":8482:8522   */\n      iszero\n      tag_216\n      jumpi\n        /* \"#utility.yul\":8502:8520   */\n      tag_217\n      tag_91\n      jump\t// in\n    tag_217:\n        /* \"#utility.yul\":8482:8522   */\n    tag_216:\n        /* \"#utility.yul\":8535:8540   */\n      jump(tag_205)\n        /* \"#utility.yul\":8304:8550   */\n    tag_215:\n        /* \"#utility.yul\":8575:8617   */\n      tag_218\n        /* \"#utility.yul\":8613:8616   */\n      dup5\n        /* \"#utility.yul\":8603:8611   */\n      dup5\n        /* \"#utility.yul\":8597:8601   */\n      dup5\n        /* \"#utility.yul\":8594:8595   */\n      0x01\n        /* \"#utility.yul\":8575:8617   */\n      tag_103\n      jump\t// in\n    tag_218:\n        /* \"#utility.yul\":8560:8617   */\n      swap3\n      pop\n      swap1\n      pop\n        /* \"#utility.yul\":8649:8653   */\n      dup2\n        /* \"#utility.yul\":8644:8647   */\n      dup5\n        /* \"#utility.yul\":8640:8654   */\n      div\n        /* \"#utility.yul\":8633:8638   */\n      dup2\n        /* \"#utility.yul\":8630:8655   */\n      gt\n        /* \"#utility.yul\":8627:8678   */\n      iszero\n      tag_219\n      jumpi\n        /* \"#utility.yul\":8658:8676   */\n      tag_220\n      tag_91\n      jump\t// in\n    tag_220:\n        /* \"#utility.yul\":8627:8678   */\n    tag_219:\n        /* \"#utility.yul\":8707:8711   */\n      dup2\n        /* \"#utility.yul\":8700:8705   */\n      dup2\n        /* \"#utility.yul\":8696:8712   */\n      mul\n        /* \"#utility.yul\":8687:8712   */\n      swap1\n      pop\n        /* \"#utility.yul\":7645:8718   */\n    tag_205:\n      swap4\n      swap3\n      pop\n      pop\n      pop\n      jump\t// out\n        /* \"#utility.yul\":8724:9005   */\n    tag_66:\n        /* \"#utility.yul\":8782:8787   */\n      0x00\n        /* \"#utility.yul\":8806:8829   */\n      tag_222\n        /* \"#utility.yul\":8824:8828   */\n      dup3\n        /* \"#utility.yul\":8806:8829   */\n      tag_78\n      jump\t// in\n    tag_222:\n        /* \"#utility.yul\":8798:8829   */\n      swap2\n      pop\n        /* \"#utility.yul\":8850:8875   */\n      tag_223\n        /* \"#utility.yul\":8866:8874   */\n      dup4\n        /* \"#utility.yul\":8850:8875   */\n      tag_99\n      jump\t// in\n    tag_223:\n        /* \"#utility.yul\":8838:8875   */\n      swap3\n      pop\n        /* \"#utility.yul\":8894:8998   */\n      tag_224\n        /* \"#utility.yul\":8931:8997   */\n      0xffffffffffffffffffffffffffffffffffffffffffffffffffffffffffffffff\n        /* \"#utility.yul\":8921:8929   */\n      dup5\n        /* \"#utility.yul\":8915:8919   */\n      dup5\n        /* \"#utility.yul\":8894:8998   */\n      tag_104\n      jump\t// in\n    tag_224:\n        /* \"#utility.yul\":8885:8998   */\n      swap1\n      pop\n        /* \"#utility.yul\":8724:9005   */\n      swap3\n      swap2\n      pop\n      pop\n      jump\t// out\n        /* \"#utility.yul\":9011:9180   */\n    tag_105:\n        /* \"#utility.yul\":9095:9106   */\n      0x00\n        /* \"#utility.yul\":9129:9135   */\n      dup3\n        /* \"#utility.yul\":9124:9127   */\n      dup3\n        /* \"#utility.yul\":9117:9136   */\n      mstore\n        /* \"#utility.yul\":9169:9173   */\n      0x20\n        /* \"#utility.yul\":9164:9167   */\n      dup3\n        /* \"#utility.yul\":9160:9174   */\n      add\n        /* \"#utility.yul\":9145:9174   */\n      swap1\n      pop\n        /* \"#utility.yul\":9011:9180   */\n      swap3\n      swap2\n      pop\n      pop\n      jump\t// out\n        /* \"#utility.yul\":9186:9354   */\n    tag_106:\n        /* \"#utility.yul\":9326:9346   */\n      0x4469646e27742073656e6420656e6f7567680000000000000000000000000000\n        /* \"#utility.yul\":9322:9323   */\n      0x00\n        /* \"#utility.yul\":9314:9320   */\n      dup3\n        /* \"#utility.yul\":9310:9324   */\n      add\n        /* \"#utility.yul\":9303:9347   */\n      mstore\n        /* \"#utility.yul\":9186:9354   */\n      pop\n      jump\t// out\n        /* \"#utility.yul\":9360:9726   */\n    tag_107:\n        /* \"#utility.yul\":9502:9505   */\n      0x00\n        /* \"#utility.yul\":9523:9590   */\n      tag_228\n        /* \"#utility.yul\":9587:9589   */\n      0x12\n        /* \"#utility.yul\":9582:9585   */\n      dup4\n        /* \"#utility.yul\":9523:9590   */\n      tag_105\n      jump\t// in\n    tag_228:\n        /* \"#utility.yul\":9516:9590   */\n      swap2\n      pop\n        /* \"#utility.yul\":9599:9692   */\n      tag_229\n        /* \"#utility.yul\":9688:9691   */\n      dup3\n        /* \"#utility.yul\":9599:9692   */\n      tag_106\n      jump\t// in\n    tag_229:\n        /* \"#utility.yul\":9717:9719   */\n      0x20\n        /* \"#utility.yul\":9712:9715   */\n      dup3\n        /* \"#utility.yul\":9708:9720   */\n      add\n        /* \"#utility.yul\":9701:9720   */\n      swap1\n      pop\n        /* \"#utility.yul\":9360:9726   */\n      swap2\n      swap1\n      pop\n      jump\t// out\n        /* \"#utility.yul\":9732:10151   */\n    tag_72:\n        /* \"#utility.yul\":9898:9902   */\n      0x00\n        /* \"#utility.yul\":9936:9938   */\n      0x20\n        /* \"#utility.yul\":9925:9934   */\n      dup3\n        /* \"#utility.yul\":9921:9939   */\n      add\n        /* \"#utility.yul\":9913:9939   */\n      swap1\n      pop\n        /* \"#utility.yul\":9985:9994   */\n      dup2\n        /* \"#utility.yul\":9979:9983   */\n      dup2\n        /* \"#utility.yul\":9975:9995   */\n      sub\n        /* \"#utility.yul\":9971:9972   */\n      0x00\n        /* \"#utility.yul\":9960:9969   */\n      dup4\n        /* \"#utility.yul\":9956:9973   */\n      add\n        /* \"#utility.yul\":9949:9996   */\n      mstore\n        /* \"#utility.yul\":10013:10144   */\n      tag_231\n        /* \"#utility.yul\":10139:10143   */\n      dup2\n        /* \"#utility.yul\":10013:10144   */\n      tag_107\n      jump\t// in\n    tag_231:\n        /* \"#utility.yul\":10005:10144   */\n      swap1\n      pop\n        /* \"#utility.yul\":9732:10151   */\n      swap2\n      swap1\n      pop\n      jump\t// out\n        /* \"#utility.yul\":10157:10348   */\n    tag_75:\n        /* \"#utility.yul\":10197:10200   */\n      0x00\n        /* \"#utility.yul\":10216:10236   */\n      tag_233\n        /* \"#utility.yul\":10234:10235   */\n      dup3\n        /* \"#utility.yul\":10216:10236   */\n      tag_78\n      jump\t// in\n    tag_233:\n        /* \"#utility.yul\":10211:10236   */\n      swap2\n      pop\n        /* \"#utility.yul\":10250:10270   */\n      tag_234\n        /* \"#utility.yul\":10268:10269   */\n      dup4\n        /* \"#utility.yul\":10250:10270   */\n      tag_78\n      jump\t// in\n    tag_234:\n        /* \"#utility.yul\":10245:10270   */\n      swap3\n      pop\n        /* \"#utility.yul\":10293:10294   */\n      dup3\n        /* \"#utility.yul\":10290:10291   */\n      dup3\n        /* \"#utility.yul\":10286:10295   */\n      add\n        /* \"#utility.yul\":10279:10295   */\n      swap1\n      pop\n        /* \"#utility.yul\":10314:10317   */\n      dup1\n        /* \"#utility.yul\":10311:10312   */\n      dup3\n        /* \"#utility.yul\":10308:10318   */\n      gt\n        /* \"#utility.yul\":10305:10341   */\n      iszero\n      tag_235\n      jumpi\n        /* \"#utility.yul\":10321:10339   */\n      tag_236\n      tag_91\n      jump\t// in\n    tag_236:\n        /* \"#utility.yul\":10305:10341   */\n    tag_235:\n        /* \"#utility.yul\":10157:10348   */\n      swap3\n      swap2\n      pop\n      pop\n      jump\t// out\n\n    auxdata: 0xa2646970667358221220f42c7809a825ca5dc93abca86c01bba7b132f9edf1e9cffd51216b17224f798e64736f6c634300081e0033\n}\n",
				"bytecode": {
					"linkReferences": {},
					"object": "60806040526802b5e3af16b18800005f55348015601a575f5ffd5b50610b0b806100285f395ff3fe60806040526004361061006f575f3560e01c80636e5b6b281161004d5780636e5b6b281461010357806398d5fdca1461013f578063b60d428814610169578063dc0d3dff146101735761006f565b8063098de820146100735780630d8e6e2c1461009d5780633e47d6f3146100c7575b5f5ffd5b34801561007e575f5ffd5b506100876101af565b604051610094919061050a565b60405180910390f35b3480156100a8575f5ffd5b506100b16101b4565b6040516100be919061050a565b60405180910390f35b3480156100d2575f5ffd5b506100ed60048036038101906100e89190610581565b610240565b6040516100fa919061050a565b60405180910390f35b34801561010e575f5ffd5b50610129600480360381019061012491906105d6565b610255565b604051610136919061050a565b60405180910390f35b34801561014a575f5ffd5b5061015361028d565b604051610160919061050a565b60405180910390f35b6101716103b6565b005b34801561017e575f5ffd5b50610199600480360381019061019491906105d6565b6104b7565b6040516101a69190610610565b60405180910390f35b5f5481565b5f5f73694aa1769357215de4fac081bf1f309adc32530690508073ffffffffffffffffffffffffffffffffffffffff166354fd4d506040518163ffffffff1660e01b8152600401602060405180830381865afa158015610216573d5f5f3e3d5ffd5b505050506040513d601f19601f8201168201806040525081019061023a919061063d565b91505090565b6002602052805f5260405f205f915090505481565b5f5f61025f61028d565b90505f670de0b6b3a764000084836102779190610695565b6102819190610703565b90508092505050919050565b5f5f73694aa1769357215de4fac081bf1f309adc32530690505f8173ffffffffffffffffffffffffffffffffffffffff1663feaf968c6040518163ffffffff1660e01b815260040160a060405180830381865afa1580156102f0573d5f5f3e3d5ffd5b505050506040513d601f19601f8201168201806040525081019061031491906107a5565b5050509150505f601290508273ffffffffffffffffffffffffffffffffffffffff1663313ce5676040518163ffffffff1660e01b8152600401602060405180830381865afa158015610368573d5f5f3e3d5ffd5b505050506040513d601f19601f8201168201806040525081019061038c9190610852565b81610397919061087d565b600a6103a391906109e0565b826103ae9190610695565b935050505090565b5f546103c134610255565b1015610402576040517f08c379a00000000000000000000000000000000000000000000000000000000081526004016103f990610a84565b60405180910390fd5b600133908060018154018082558091505060019003905f5260205f20015f9091909190916101000a81548173ffffffffffffffffffffffffffffffffffffffff021916908373ffffffffffffffffffffffffffffffffffffffff1602179055503460025f3373ffffffffffffffffffffffffffffffffffffffff1673ffffffffffffffffffffffffffffffffffffffff1681526020019081526020015f205f8282546104ae9190610aa2565b92505081905550565b600181815481106104c6575f80fd5b905f5260205f20015f915054906101000a900473ffffffffffffffffffffffffffffffffffffffff1681565b5f819050919050565b610504816104f2565b82525050565b5f60208201905061051d5f8301846104fb565b92915050565b5f5ffd5b5f73ffffffffffffffffffffffffffffffffffffffff82169050919050565b5f61055082610527565b9050919050565b61056081610546565b811461056a575f5ffd5b50565b5f8135905061057b81610557565b92915050565b5f6020828403121561059657610595610523565b5b5f6105a38482850161056d565b91505092915050565b6105b5816104f2565b81146105bf575f5ffd5b50565b5f813590506105d0816105ac565b92915050565b5f602082840312156105eb576105ea610523565b5b5f6105f8848285016105c2565b91505092915050565b61060a81610546565b82525050565b5f6020820190506106235f830184610601565b92915050565b5f81519050610637816105ac565b92915050565b5f6020828403121561065257610651610523565b5b5f61065f84828501610629565b91505092915050565b7f4e487b71000000000000000000000000000000000000000000000000000000005f52601160045260245ffd5b5f61069f826104f2565b91506106aa836104f2565b92508282026106b8816104f2565b915082820484148315176106cf576106ce610668565b5b5092915050565b7f4e487b71000000000000000000000000000000000000000000000000000000005f52601260045260245ffd5b5f61070d826104f2565b9150610718836104f2565b925082610728576107276106d6565b5b828204905092915050565b5f69ffffffffffffffffffff82169050919050565b61075181610733565b811461075b575f5ffd5b50565b5f8151905061076c81610748565b92915050565b5f819050919050565b61078481610772565b811461078e575f5ffd5b50565b5f8151905061079f8161077b565b92915050565b5f5f5f5f5f60a086880312156107be576107bd610523565b5b5f6107cb8882890161075e565b95505060206107dc88828901610791565b94505060406107ed88828901610629565b93505060606107fe88828901610629565b925050608061080f8882890161075e565b9150509295509295909350565b5f60ff82169050919050565b6108318161081c565b811461083b575f5ffd5b50565b5f8151905061084c81610828565b92915050565b5f6020828403121561086757610866610523565b5b5f6108748482850161083e565b91505092915050565b5f6108878261081c565b91506108928361081c565b9250828203905060ff8111156108ab576108aa610668565b5b92915050565b5f8160011c9050919050565b5f5f8291508390505b6001851115610906578086048111156108e2576108e1610668565b5b60018516156108f15780820291505b80810290506108ff856108b1565b94506108c6565b94509492505050565b5f8261091e57600190506109d9565b8161092b575f90506109d9565b8160018114610941576002811461094b5761097a565b60019150506109d9565b60ff84111561095d5761095c610668565b5b8360020a91508482111561097457610973610668565b5b506109d9565b5060208310610133831016604e8410600b84101617156109af5782820a9050838111156109aa576109a9610668565b5b6109d9565b6109bc84848460016108bd565b925090508184048111156109d3576109d2610668565b5b81810290505b9392505050565b5f6109ea826104f2565b91506109f58361081c565b9250610a227fffffffffffffffffffffffffffffffffffffffffffffffffffffffffffffffff848461090f565b905092915050565b5f82825260208201905092915050565b7f4469646e27742073656e6420656e6f75676800000000000000000000000000005f82015250565b5f610a6e601283610a2a565b9150610a7982610a3a565b602082019050919050565b5f6020820190508181035f830152610a9b81610a62565b9050919050565b5f610aac826104f2565b9150610ab7836104f2565b9250828201905080821115610acf57610ace610668565b5b9291505056fea2646970667358221220f42c7809a825ca5dc93abca86c01bba7b132f9edf1e9cffd51216b17224f798e64736f6c634300081e0033",
					"opcodes": "PUSH1 0x80 PUSH1 0x40 MSTORE PUSH9 0x2B5E3AF16B1880000 PUSH0 SSTORE CALLVALUE DUP1 ISZERO PUSH1 0x1A JUMPI PUSH0 PUSH0 REVERT JUMPDEST POP PUSH2 0xB0B DUP1 PUSH2 0x28 PUSH0 CODECOPY PUSH0 RETURN INVALID PUSH1 0x80 PUSH1 0x40 MSTORE PUSH1 0x4 CALLDATASIZE LT PUSH2 0x6F JUMPI PUSH0 CALLDATALOAD PUSH1 0xE0 SHR DUP1 PUSH4 0x6E5B6B28 GT PUSH2 0x4D JUMPI DUP1 PUSH4 0x6E5B6B28 EQ PUSH2 0x103 JUMPI DUP1 PUSH4 0x98D5FDCA EQ PUSH2 0x13F JUMPI DUP1 PUSH4 0xB60D4288 EQ PUSH2 0x169 JUMPI DUP1 PUSH4 0xDC0D3DFF EQ PUSH2 0x173 JUMPI PUSH2 0x6F JUMP JUMPDEST DUP1 PUSH4 0x98DE820 EQ PUSH2 0x73 JUMPI DUP1 PUSH4 0xD8E6E2C EQ PUSH2 0x9D JUMPI DUP1 PUSH4 0x3E47D6F3 EQ PUSH2 0xC7 JUMPI JUMPDEST PUSH0 PUSH0 REVERT JUMPDEST CALLVALUE DUP1 ISZERO PUSH2 0x7E JUMPI PUSH0 PUSH0 REVERT JUMPDEST POP PUSH2 0x87 PUSH2 0x1AF JUMP JUMPDEST PUSH1 0x40 MLOAD PUSH2 0x94 SWAP2 SWAP1 PUSH2 0x50A JUMP JUMPDEST PUSH1 0x40 MLOAD DUP1 SWAP2 SUB SWAP1 RETURN JUMPDEST CALLVALUE DUP1 ISZERO PUSH2 0xA8 JUMPI PUSH0 PUSH0 REVERT JUMPDEST POP PUSH2 0xB1 PUSH2 0x1B4 JUMP JUMPDEST PUSH1 0x40 MLOAD PUSH2 0xBE SWAP2 SWAP1 PUSH2 0x50A JUMP JUMPDEST PUSH1 0x40 MLOAD DUP1 SWAP2 SUB SWAP1 RETURN JUMPDEST CALLVALUE DUP1 ISZERO PUSH2 0xD2 JUMPI PUSH0 PUSH0 REVERT JUMPDEST POP PUSH2 0xED PUSH1 0x4 DUP1 CALLDATASIZE SUB DUP2 ADD SWAP1 PUSH2 0xE8 SWAP2 SWAP1 PUSH2 0x581 JUMP JUMPDEST PUSH2 0x240 JUMP JUMPDEST PUSH1 0x40 MLOAD PUSH2 0xFA SWAP2 SWAP1 PUSH2 0x50A JUMP JUMPDEST PUSH1 0x40 MLOAD DUP1 SWAP2 SUB SWAP1 RETURN JUMPDEST CALLVALUE DUP1 ISZERO PUSH2 0x10E JUMPI PUSH0 PUSH0 REVERT JUMPDEST POP PUSH2 0x129 PUSH1 0x4 DUP1 CALLDATASIZE SUB DUP2 ADD SWAP1 PUSH2 0x124 SWAP2 SWAP1 PUSH2 0x5D6 JUMP JUMPDEST PUSH2 0x255 JUMP JUMPDEST PUSH1 0x40 MLOAD PUSH2 0x136 SWAP2 SWAP1 PUSH2 0x50A JUMP JUMPDEST PUSH1 0x40 MLOAD DUP1 SWAP2 SUB SWAP1 RETURN JUMPDEST CALLVALUE DUP1 ISZERO PUSH2 0x14A JUMPI PUSH0 PUSH0 REVERT JUMPDEST POP PUSH2 0x153 PUSH2 0x28D JUMP JUMPDEST PUSH1 0x40 MLOAD PUSH2 0x160 SWAP2 SWAP1 PUSH2 0x50A JUMP JUMPDEST PUSH1 0x40 MLOAD DUP1 SWAP2 SUB SWAP1 RETURN JUMPDEST PUSH2 0x171 PUSH2 0x3B6 JUMP JUMPDEST STOP JUMPDEST CALLVALUE DUP1 ISZERO PUSH2 0x17E JUMPI PUSH0 PUSH0 REVERT JUMPDEST POP PUSH2 0x199 PUSH1 0x4 DUP1 CALLDATASIZE SUB DUP2 ADD SWAP1 PUSH2 0x194 SWAP2 SWAP1 PUSH2 0x5D6 JUMP JUMPDEST PUSH2 0x4B7 JUMP JUMPDEST PUSH1 0x40 MLOAD PUSH2 0x1A6 SWAP2 SWAP1 PUSH2 0x610 JUMP JUMPDEST PUSH1 0x40 MLOAD DUP1 SWAP2 SUB SWAP1 RETURN JUMPDEST PUSH0 SLOAD DUP2 JUMP JUMPDEST PUSH0 PUSH0 PUSH20 0x694AA1769357215DE4FAC081BF1F309ADC325306 SWAP1 POP DUP1 PUSH20 0xFFFFFFFFFFFFFFFFFFFFFFFFFFFFFFFFFFFFFFFF AND PUSH4 0x54FD4D50 PUSH1 0x40 MLOAD DUP2 PUSH4 0xFFFFFFFF AND PUSH1 0xE0 SHL DUP2 MSTORE PUSH1 0x4 ADD PUSH1 0x20 PUSH1 0x40 MLOAD DUP1 DUP4 SUB DUP2 DUP7 GAS STATICCALL ISZERO DUP1 ISZERO PUSH2 0x216 JUMPI RETURNDATASIZE PUSH0 PUSH0 RETURNDATACOPY RETURNDATASIZE PUSH0 REVERT JUMPDEST POP POP POP POP PUSH1 0x40 MLOAD RETURNDATASIZE PUSH1 0x1F NOT PUSH1 0x1F DUP3 ADD AND DUP3 ADD DUP1 PUSH1 0x40 MSTORE POP DUP2 ADD SWAP1 PUSH2 0x23A SWAP2 SWAP1 PUSH2 0x63D JUMP JUMPDEST SWAP2 POP POP SWAP1 JUMP JUMPDEST PUSH1 0x2 PUSH1 0x20 MSTORE DUP1 PUSH0 MSTORE PUSH1 0x40 PUSH0 KECCAK256 PUSH0 SWAP2 POP SWAP1 POP SLOAD DUP2 JUMP JUMPDEST PUSH0 PUSH0 PUSH2 0x25F PUSH2 0x28D JUMP JUMPDEST SWAP1 POP PUSH0 PUSH8 0xDE0B6B3A7640000 DUP5 DUP4 PUSH2 0x277 SWAP2 SWAP1 PUSH2 0x695 JUMP JUMPDEST PUSH2 0x281 SWAP2 SWAP1 PUSH2 0x703 JUMP JUMPDEST SWAP1 POP DUP1 SWAP3 POP POP POP SWAP2 SWAP1 POP JUMP JUMPDEST PUSH0 PUSH0 PUSH20 0x694AA1769357215DE4FAC081BF1F309ADC325306 SWAP1 POP PUSH0 DUP2 PUSH20 0xFFFFFFFFFFFFFFFFFFFFFFFFFFFFFFFFFFFFFFFF AND PUSH4 0xFEAF968C PUSH1 0x40 MLOAD DUP2 PUSH4 0xFFFFFFFF AND PUSH1 0xE0 SHL DUP2 MSTORE PUSH1 0x4 ADD PUSH1 0xA0 PUSH1 0x40 MLOAD DUP1 DUP4 SUB DUP2 DUP7 GAS STATICCALL ISZERO DUP1 ISZERO PUSH2 0x2F0 JUMPI RETURNDATASIZE PUSH0 PUSH0 RETURNDATACOPY RETURNDATASIZE PUSH0 REVERT JUMPDEST POP POP POP POP PUSH1 0x40 MLOAD RETURNDATASIZE PUSH1 0x1F NOT PUSH1 0x1F DUP3 ADD AND DUP3 ADD DUP1 PUSH1 0x40 MSTORE POP DUP2 ADD SWAP1 PUSH2 0x314 SWAP2 SWAP1 PUSH2 0x7A5 JUMP JUMPDEST POP POP POP SWAP2 POP POP PUSH0 PUSH1 0x12 SWAP1 POP DUP3 PUSH20 0xFFFFFFFFFFFFFFFFFFFFFFFFFFFFFFFFFFFFFFFF AND PUSH4 0x313CE567 PUSH1 0x40 MLOAD DUP2 PUSH4 0xFFFFFFFF AND PUSH1 0xE0 SHL DUP2 MSTORE PUSH1 0x4 ADD PUSH1 0x20 PUSH1 0x40 MLOAD DUP1 DUP4 SUB DUP2 DUP7 GAS STATICCALL ISZERO DUP1 ISZERO PUSH2 0x368 JUMPI RETURNDATASIZE PUSH0 PUSH0 RETURNDATACOPY RETURNDATASIZE PUSH0 REVERT JUMPDEST POP POP POP POP PUSH1 0x40 MLOAD RETURNDATASIZE PUSH1 0x1F NOT PUSH1 0x1F DUP3 ADD AND DUP3 ADD DUP1 PUSH1 0x40 MSTORE POP DUP2 ADD SWAP1 PUSH2 0x38C SWAP2 SWAP1 PUSH2 0x852 JUMP JUMPDEST DUP2 PUSH2 0x397 SWAP2 SWAP1 PUSH2 0x87D JUMP JUMPDEST PUSH1 0xA PUSH2 0x3A3 SWAP2 SWAP1 PUSH2 0x9E0 JUMP JUMPDEST DUP3 PUSH2 0x3AE SWAP2 SWAP1 PUSH2 0x695 JUMP JUMPDEST SWAP4 POP POP POP POP SWAP1 JUMP JUMPDEST PUSH0 SLOAD PUSH2 0x3C1 CALLVALUE PUSH2 0x255 JUMP JUMPDEST LT ISZERO PUSH2 0x402 JUMPI PUSH1 0x40 MLOAD PUSH32 0x8C379A000000000000000000000000000000000000000000000000000000000 DUP2 MSTORE PUSH1 0x4 ADD PUSH2 0x3F9 SWAP1 PUSH2 0xA84 JUMP JUMPDEST PUSH1 0x40 MLOAD DUP1 SWAP2 SUB SWAP1 REVERT JUMPDEST PUSH1 0x1 CALLER SWAP1 DUP1 PUSH1 0x1 DUP2 SLOAD ADD DUP1 DUP3 SSTORE DUP1 SWAP2 POP POP PUSH1 0x1 SWAP1 SUB SWAP1 PUSH0 MSTORE PUSH1 0x20 PUSH0 KECCAK256 ADD PUSH0 SWAP1 SWAP2 SWAP1 SWAP2 SWAP1 SWAP2 PUSH2 0x100 EXP DUP2 SLOAD DUP2 PUSH20 0xFFFFFFFFFFFFFFFFFFFFFFFFFFFFFFFFFFFFFFFF MUL NOT AND SWAP1 DUP4 PUSH20 0xFFFFFFFFFFFFFFFFFFFFFFFFFFFFFFFFFFFFFFFF AND MUL OR SWAP1 SSTORE POP CALLVALUE PUSH1 0x2 PUSH0 CALLER PUSH20 0xFFFFFFFFFFFFFFFFFFFFFFFFFFFFFFFFFFFFFFFF AND PUSH20 0xFFFFFFFFFFFFFFFFFFFFFFFFFFFFFFFFFFFFFFFF AND DUP2 MSTORE PUSH1 0x20 ADD SWAP1 DUP2 MSTORE PUSH1 0x20 ADD PUSH0 KECCAK256 PUSH0 DUP3 DUP3 SLOAD PUSH2 0x4AE SWAP2 SWAP1 PUSH2 0xAA2 JUMP JUMPDEST SWAP3 POP POP DUP2 SWAP1 SSTORE POP JUMP JUMPDEST PUSH1 0x1 DUP2 DUP2 SLOAD DUP2 LT PUSH2 0x4C6 JUMPI PUSH0 DUP1 REVERT JUMPDEST SWAP1 PUSH0 MSTORE PUSH1 0x20 PUSH0 KECCAK256 ADD PUSH0 SWAP2 POP SLOAD SWAP1 PUSH2 0x100 EXP SWAP1 DIV PUSH20 0xFFFFFFFFFFFFFFFFFFFFFFFFFFFFFFFFFFFFFFFF AND DUP2 JUMP JUMPDEST PUSH0 DUP2 SWAP1 POP SWAP2 SWAP1 POP JUMP JUMPDEST PUSH2 0x504 DUP2 PUSH2 0x4F2 JUMP JUMPDEST DUP3 MSTORE POP POP JUMP JUMPDEST PUSH0 PUSH1 0x20 DUP3 ADD SWAP1 POP PUSH2 0x51D PUSH0 DUP4 ADD DUP5 PUSH2 0x4FB JUMP JUMPDEST SWAP3 SWAP2 POP POP JUMP JUMPDEST PUSH0 PUSH0 REVERT JUMPDEST PUSH0 PUSH20 0xFFFFFFFFFFFFFFFFFFFFFFFFFFFFFFFFFFFFFFFF DUP3 AND SWAP1 POP SWAP2 SWAP1 POP JUMP JUMPDEST PUSH0 PUSH2 0x550 DUP3 PUSH2 0x527 JUMP JUMPDEST SWAP1 POP SWAP2 SWAP1 POP JUMP JUMPDEST PUSH2 0x560 DUP2 PUSH2 0x546 JUMP JUMPDEST DUP2 EQ PUSH2 0x56A JUMPI PUSH0 PUSH0 REVERT JUMPDEST POP JUMP JUMPDEST PUSH0 DUP2 CALLDATALOAD SWAP1 POP PUSH2 0x57B DUP2 PUSH2 0x557 JUMP JUMPDEST SWAP3 SWAP2 POP POP JUMP JUMPDEST PUSH0 PUSH1 0x20 DUP3 DUP5 SUB SLT ISZERO PUSH2 0x596 JUMPI PUSH2 0x595 PUSH2 0x523 JUMP JUMPDEST JUMPDEST PUSH0 PUSH2 0x5A3 DUP5 DUP3 DUP6 ADD PUSH2 0x56D JUMP JUMPDEST SWAP2 POP POP SWAP3 SWAP2 POP POP JUMP JUMPDEST PUSH2 0x5B5 DUP2 PUSH2 0x4F2 JUMP JUMPDEST DUP2 EQ PUSH2 0x5BF JUMPI PUSH0 PUSH0 REVERT JUMPDEST POP JUMP JUMPDEST PUSH0 DUP2 CALLDATALOAD SWAP1 POP PUSH2 0x5D0 DUP2 PUSH2 0x5AC JUMP JUMPDEST SWAP3 SWAP2 POP POP JUMP JUMPDEST PUSH0 PUSH1 0x20 DUP3 DUP5 SUB SLT ISZERO PUSH2 0x5EB JUMPI PUSH2 0x5EA PUSH2 0x523 JUMP JUMPDEST JUMPDEST PUSH0 PUSH2 0x5F8 DUP5 DUP3 DUP6 ADD PUSH2 0x5C2 JUMP JUMPDEST SWAP2 POP POP SWAP3 SWAP2 POP POP JUMP JUMPDEST PUSH2 0x60A DUP2 PUSH2 0x546 JUMP JUMPDEST DUP3 MSTORE POP POP JUMP JUMPDEST PUSH0 PUSH1 0x20 DUP3 ADD SWAP1 POP PUSH2 0x623 PUSH0 DUP4 ADD DUP5 PUSH2 0x601 JUMP JUMPDEST SWAP3 SWAP2 POP POP JUMP JUMPDEST PUSH0 DUP2 MLOAD SWAP1 POP PUSH2 0x637 DUP2 PUSH2 0x5AC JUMP JUMPDEST SWAP3 SWAP2 POP POP JUMP JUMPDEST PUSH0 PUSH1 0x20 DUP3 DUP5 SUB SLT ISZERO PUSH2 0x652 JUMPI PUSH2 0x651 PUSH2 0x523 JUMP JUMPDEST JUMPDEST PUSH0 PUSH2 0x65F DUP5 DUP3 DUP6 ADD PUSH2 0x629 JUMP JUMPDEST SWAP2 POP POP SWAP3 SWAP2 POP POP JUMP JUMPDEST PUSH32 0x4E487B7100000000000000000000000000000000000000000000000000000000 PUSH0 MSTORE PUSH1 0x11 PUSH1 0x4 MSTORE PUSH1 0x24 PUSH0 REVERT JUMPDEST PUSH0 PUSH2 0x69F DUP3 PUSH2 0x4F2 JUMP JUMPDEST SWAP2 POP PUSH2 0x6AA DUP4 PUSH2 0x4F2 JUMP JUMPDEST SWAP3 POP DUP3 DUP3 MUL PUSH2 0x6B8 DUP2 PUSH2 0x4F2 JUMP JUMPDEST SWAP2 POP DUP3 DUP3 DIV DUP5 EQ DUP4 ISZERO OR PUSH2 0x6CF JUMPI PUSH2 0x6CE PUSH2 0x668 JUMP JUMPDEST JUMPDEST POP SWAP3 SWAP2 POP POP JUMP JUMPDEST PUSH32 0x4E487B7100000000000000000000000000000000000000000000000000000000 PUSH0 MSTORE PUSH1 0x12 PUSH1 0x4 MSTORE PUSH1 0x24 PUSH0 REVERT JUMPDEST PUSH0 PUSH2 0x70D DUP3 PUSH2 0x4F2 JUMP JUMPDEST SWAP2 POP PUSH2 0x718 DUP4 PUSH2 0x4F2 JUMP JUMPDEST SWAP3 POP DUP3 PUSH2 0x728 JUMPI PUSH2 0x727 PUSH2 0x6D6 JUMP JUMPDEST JUMPDEST DUP3 DUP3 DIV SWAP1 POP SWAP3 SWAP2 POP POP JUMP JUMPDEST PUSH0 PUSH10 0xFFFFFFFFFFFFFFFFFFFF DUP3 AND SWAP1 POP SWAP2 SWAP1 POP JUMP JUMPDEST PUSH2 0x751 DUP2 PUSH2 0x733 JUMP JUMPDEST DUP2 EQ PUSH2 0x75B JUMPI PUSH0 PUSH0 REVERT JUMPDEST POP JUMP JUMPDEST PUSH0 DUP2 MLOAD SWAP1 POP PUSH2 0x76C DUP2 PUSH2 0x748 JUMP JUMPDEST SWAP3 SWAP2 POP POP JUMP JUMPDEST PUSH0 DUP2 SWAP1 POP SWAP2 SWAP1 POP JUMP JUMPDEST PUSH2 0x784 DUP2 PUSH2 0x772 JUMP JUMPDEST DUP2 EQ PUSH2 0x78E JUMPI PUSH0 PUSH0 REVERT JUMPDEST POP JUMP JUMPDEST PUSH0 DUP2 MLOAD SWAP1 POP PUSH2 0x79F DUP2 PUSH2 0x77B JUMP JUMPDEST SWAP3 SWAP2 POP POP JUMP JUMPDEST PUSH0 PUSH0 PUSH0 PUSH0 PUSH0 PUSH1 0xA0 DUP7 DUP9 SUB SLT ISZERO PUSH2 0x7BE JUMPI PUSH2 0x7BD PUSH2 0x523 JUMP JUMPDEST JUMPDEST PUSH0 PUSH2 0x7CB DUP9 DUP3 DUP10 ADD PUSH2 0x75E JUMP JUMPDEST SWAP6 POP POP PUSH1 0x20 PUSH2 0x7DC DUP9 DUP3 DUP10 ADD PUSH2 0x791 JUMP JUMPDEST SWAP5 POP POP PUSH1 0x40 PUSH2 0x7ED DUP9 DUP3 DUP10 ADD PUSH2 0x629 JUMP JUMPDEST SWAP4 POP POP PUSH1 0x60 PUSH2 0x7FE DUP9 DUP3 DUP10 ADD PUSH2 0x629 JUMP JUMPDEST SWAP3 POP POP PUSH1 0x80 PUSH2 0x80F DUP9 DUP3 DUP10 ADD PUSH2 0x75E JUMP JUMPDEST SWAP2 POP POP SWAP3 SWAP6 POP SWAP3 SWAP6 SWAP1 SWAP4 POP JUMP JUMPDEST PUSH0 PUSH1 0xFF DUP3 AND SWAP1 POP SWAP2 SWAP1 POP JUMP JUMPDEST PUSH2 0x831 DUP2 PUSH2 0x81C JUMP JUMPDEST DUP2 EQ PUSH2 0x83B JUMPI PUSH0 PUSH0 REVERT JUMPDEST POP JUMP JUMPDEST PUSH0 DUP2 MLOAD SWAP1 POP PUSH2 0x84C DUP2 PUSH2 0x828 JUMP JUMPDEST SWAP3 SWAP2 POP POP JUMP JUMPDEST PUSH0 PUSH1 0x20 DUP3 DUP5 SUB SLT ISZERO PUSH2 0x867 JUMPI PUSH2 0x866 PUSH2 0x523 JUMP JUMPDEST JUMPDEST PUSH0 PUSH2 0x874 DUP5 DUP3 DUP6 ADD PUSH2 0x83E JUMP JUMPDEST SWAP2 POP POP SWAP3 SWAP2 POP POP JUMP JUMPDEST PUSH0 PUSH2 0x887 DUP3 PUSH2 0x81C JUMP JUMPDEST SWAP2 POP PUSH2 0x892 DUP4 PUSH2 0x81C JUMP JUMPDEST SWAP3 POP DUP3 DUP3 SUB SWAP1 POP PUSH1 0xFF DUP2 GT ISZERO PUSH2 0x8AB JUMPI PUSH2 0x8AA PUSH2 0x668 JUMP JUMPDEST JUMPDEST SWAP3 SWAP2 POP POP JUMP JUMPDEST PUSH0 DUP2 PUSH1 0x1 SHR SWAP1 POP SWAP2 SWAP1 POP JUMP JUMPDEST PUSH0 PUSH0 DUP3 SWAP2 POP DUP4 SWAP1 POP JUMPDEST PUSH1 0x1 DUP6 GT ISZERO PUSH2 0x906 JUMPI DUP1 DUP7 DIV DUP2 GT ISZERO PUSH2 0x8E2 JUMPI PUSH2 0x8E1 PUSH2 0x668 JUMP JUMPDEST JUMPDEST PUSH1 0x1 DUP6 AND ISZERO PUSH2 0x8F1 JUMPI DUP1 DUP3 MUL SWAP2 POP JUMPDEST DUP1 DUP2 MUL SWAP1 POP PUSH2 0x8FF DUP6 PUSH2 0x8B1 JUMP JUMPDEST SWAP5 POP PUSH2 0x8C6 JUMP JUMPDEST SWAP5 POP SWAP5 SWAP3 POP POP POP JUMP JUMPDEST PUSH0 DUP3 PUSH2 0x91E JUMPI PUSH1 0x1 SWAP1 POP PUSH2 0x9D9 JUMP JUMPDEST DUP2 PUSH2 0x92B JUMPI PUSH0 SWAP1 POP PUSH2 0x9D9 JUMP JUMPDEST DUP2 PUSH1 0x1 DUP2 EQ PUSH2 0x941 JUMPI PUSH1 0x2 DUP2 EQ PUSH2 0x94B JUMPI PUSH2 0x97A JUMP JUMPDEST PUSH1 0x1 SWAP2 POP POP PUSH2 0x9D9 JUMP JUMPDEST PUSH1 0xFF DUP5 GT ISZERO PUSH2 0x95D JUMPI PUSH2 0x95C PUSH2 0x668 JUMP JUMPDEST JUMPDEST DUP4 PUSH1 0x2 EXP SWAP2 POP DUP5 DUP3 GT ISZERO PUSH2 0x974 JUMPI PUSH2 0x973 PUSH2 0x668 JUMP JUMPDEST JUMPDEST POP PUSH2 0x9D9 JUMP JUMPDEST POP PUSH1 0x20 DUP4 LT PUSH2 0x133 DUP4 LT AND PUSH1 0x4E DUP5 LT PUSH1 0xB DUP5 LT AND OR ISZERO PUSH2 0x9AF JUMPI DUP3 DUP3 EXP SWAP1 POP DUP4 DUP2 GT ISZERO PUSH2 0x9AA JUMPI PUSH2 0x9A9 PUSH2 0x668 JUMP JUMPDEST JUMPDEST PUSH2 0x9D9 JUMP JUMPDEST PUSH2 0x9BC DUP5 DUP5 DUP5 PUSH1 0x1 PUSH2 0x8BD JUMP JUMPDEST SWAP3 POP SWAP1 POP DUP2 DUP5 DIV DUP2 GT ISZERO PUSH2 0x9D3 JUMPI PUSH2 0x9D2 PUSH2 0x668 JUMP JUMPDEST JUMPDEST DUP2 DUP2 MUL SWAP1 POP JUMPDEST SWAP4 SWAP3 POP POP POP JUMP JUMPDEST PUSH0 PUSH2 0x9EA DUP3 PUSH2 0x4F2 JUMP JUMPDEST SWAP2 POP PUSH2 0x9F5 DUP4 PUSH2 0x81C JUMP JUMPDEST SWAP3 POP PUSH2 0xA22 PUSH32 0xFFFFFFFFFFFFFFFFFFFFFFFFFFFFFFFFFFFFFFFFFFFFFFFFFFFFFFFFFFFFFFFF DUP5 DUP5 PUSH2 0x90F JUMP JUMPDEST SWAP1 POP SWAP3 SWAP2 POP POP JUMP JUMPDEST PUSH0 DUP3 DUP3 MSTORE PUSH1 0x20 DUP3 ADD SWAP1 POP SWAP3 SWAP2 POP POP JUMP JUMPDEST PUSH32 0x4469646E27742073656E6420656E6F7567680000000000000000000000000000 PUSH0 DUP3 ADD MSTORE POP JUMP JUMPDEST PUSH0 PUSH2 0xA6E PUSH1 0x12 DUP4 PUSH2 0xA2A JUMP JUMPDEST SWAP2 POP PUSH2 0xA79 DUP3 PUSH2 0xA3A JUMP JUMPDEST PUSH1 0x20 DUP3 ADD SWAP1 POP SWAP2 SWAP1 POP JUMP JUMPDEST PUSH0 PUSH1 0x20 DUP3 ADD SWAP1 POP DUP2 DUP2 SUB PUSH0 DUP4 ADD MSTORE PUSH2 0xA9B DUP2 PUSH2 0xA62 JUMP JUMPDEST SWAP1 POP SWAP2 SWAP1 POP JUMP JUMPDEST PUSH0 PUSH2 0xAAC DUP3 PUSH2 0x4F2 JUMP JUMPDEST SWAP2 POP PUSH2 0xAB7 DUP4 PUSH2 0x4F2 JUMP JUMPDEST SWAP3 POP DUP3 DUP3 ADD SWAP1 POP DUP1 DUP3 GT ISZERO PUSH2 0xACF JUMPI PUSH2 0xACE PUSH2 0x668 JUMP JUMPDEST JUMPDEST SWAP3 SWAP2 POP POP JUMP INVALID LOG2 PUSH5 0x6970667358 0x22 SLT KECCAK256 DELEGATECALL 0x2C PUSH25 0x9A825CA5DC93ABCA86C01BBA7B132F9EDF1E9CFFD51216B17 0x22 0x4F PUSH26 0x8E64736F6C634300081E00330000000000000000000000000000 "
				},
				"gasEstimates": {
					"creation": {
						"codeDepositCost": "565400",
						"executionCost": "22703",
						"totalCost": "588103"
					},
					"external": {
						"addressToAmountFunded(address)": "2847",
						"fund()": "infinite",
						"funders(uint256)": "5010",
						"getConversionRate(uint256)": "infinite",
						"getPrice()": "infinite",
						"getVersion()": "infinite",
						"minimumUsd()": "2425"
					}
				},
				"methodIdentifiers": {
					"addressToAmountFunded(address)": "3e47d6f3",
					"fund()": "b60d4288",
					"funders(uint256)": "dc0d3dff",
					"getConversionRate(uint256)": "6e5b6b28",
					"getPrice()": "98d5fdca",
					"getVersion()": "0d8e6e2c",
					"minimumUsd()": "098de820"
				}
			},
			"storageLayout": {
				"storage": [
					{
						"astId": 54,
						"contract": "FundMe/Lesson04/FundMe.sol:FUndMe",
						"label": "minimumUsd",
						"offset": 0,
						"slot": "0",
						"type": "t_uint256"
					},
					{
						"astId": 57,
						"contract": "FundMe/Lesson04/FundMe.sol:FUndMe",
						"label": "funders",
						"offset": 0,
						"slot": "1",
						"type": "t_array(t_address)dyn_storage"
					},
					{
						"astId": 61,
						"contract": "FundMe/Lesson04/FundMe.sol:FUndMe",
						"label": "addressToAmountFunded",
						"offset": 0,
						"slot": "2",
						"type": "t_mapping(t_address,t_uint256)"
					}
				],
				"types": {
					"t_address": {
						"encoding": "inplace",
						"label": "address",
						"numberOfBytes": "20"
					},
					"t_array(t_address)dyn_storage": {
						"base": "t_address",
						"encoding": "dynamic_array",
						"label": "address[]",
						"numberOfBytes": "32"
					},
					"t_mapping(t_address,t_uint256)": {
						"encoding": "mapping",
						"key": "t_address",
						"label": "mapping(address => uint256)",
						"numberOfBytes": "32",
						"value": "t_uint256"
					},
					"t_uint256": {
						"encoding": "inplace",
						"label": "uint256",
						"numberOfBytes": "32"
					}
				}
			},
			"userdoc": {
				"kind": "user",
				"methods": {},
				"version": 1
			}
		}
	}
}